:020000040800F2
:10000000000400200101000817030008A3020008F3
:1000100015030008430100084F0500080000000018
:100020000000000000000000000000003305000890
:1000300053010008000000003B03000835050008DC
:100040005105000839030008370500082D05000890
:1000500063010008A50400085501000859010008C3
:100060005B0100085D0100085F0100084501000810
:1000700047010008490100084B0100084D01000834
:100080004F01000851010008410100081701000854
:100090001701000817010008170100086101000896
:1000A000390500083F0500083D0500083B0500082C
:1000B000410500084305000845050008A70200089F
:1000C000A5020008AB020008A90200082F050008DD
:1000D0003105000847050008490500084B050008E0
:1000E000570100082B0500084D050008DFF80CD06B
:1000F00000F014F8004800477105000800040020D3
:1001000005480047FEE7FEE7FEE7FEE7FEE7FEE7FD
:10011000FEE7FEE7FEE7FEE7ED000008064C074DB0
:1001200006E0E06840F0010394E8070098471034C7
:10013000AC42F6D3FFF7DEFF000600081006000809
:100140007047FEE7704770477047704770477047C9
:1001500070477047704770477047704770477047E7
:100160007047704704490A6822F010020A600A6862
:1001700002430A607047000000200240034A1168F1
:1001800001F0380101431160704700000020024077
:1001900038B54FF47F40ADF8000003248DF80240DD
:1001A00010208DF803006946074800F011F80F2071
:1001B000ADF800008DF8024004208DF80300694678
:1001C000024800F005F838BD000C0140000801406D
:1001D0002DE9F041CA780025D30602F00F0201D5BF
:1001E0008B781A430B884FF00F084FF0010C13F077
:1001F000FF0F1CD0D0F800400E880CFA05F31E400B
:100200009E4210D1AF0008FA07F624EA060602FA69
:1002100007F43443CE78282E02D0482E02D002E0D4
:10022000436100E003616D1C082DE5D304600B8879
:10023000FF2B1DD94468002505F108060CFA06F3CA
:100240000E881E409E420FD1AF0008FA07F624EA3E
:10025000060602FA07F43443CE78282E00D1436113
:10026000CE78482E00D103616D1C082DE4D3446084
:10027000BDE8F0810246002092680A4200D00120C9
:10028000704702460020D2680A4200D00120704721
:1002900041617047016170470AB101617047416176
:1002A0007047FEE7704770477047704710B545F2DA
:1002B000555000F029F8002000F01AF840F6FF70C1
:1002C00000F01CF800F00CF8BDE81040AFF300801F
:1002D00002494CF6CC4008607047000000300040F6
:1002E00002494AF6AA20086070470000003000402A
:1002F00001494860704700000030004001498860B3
:10030000704700000030004001490860704700005D
:1003100000300040FEE7704700214FF0006000F021
:1003200001B80000024A11400143024801607047D1
:1003300080FFFF1F08ED00E070477047044A002966
:10034000916901D0014300E0814391617047000051
:10035000001002400248416A41F0807141627047DA
:100360000010024010B500F039F84FF480342046F8
:1003700000F07EF800F0C6F801282DD11020FFF71C
:10038000F1FE0220FFF7FAFE002000F067F80020DF
:1003900000F094F8A01100F087F84FF4E011204627
:1003A00000F09CF8012000F093F8392000F036F8B6
:1003B0000028FAD0022000F09BF800BF00F046F8B9
:1003C0000828FBD101210420FFF7B8FF0121BDE877
:1003D00010400820FFF7B2BF10BD00000C480168B4
:1003E00041F00101016041680A4A11404160016821
:1003F000094A11400160016821F4802101604268CE
:100400004FF41F0122F4FE02426081607047000039
:10041000001002400000FFF8FFFFF6FE0246002039
:1004200053090949012B0BD0022B0BD0D1F8241012
:1004300002F01F02012393400B4200D001207047BD
:100440000968F5E7096AF3E70010024002484068CE
:1004500000F00C007047000000100240034A516891
:1004600021F0F0010143516070470000001002408C
:100470000B490A6822F480320A600A68B0F5803FAE
:1004800022F480220A6007D0B0F5802F03D10868DB
:1004900040F4A02008607047086840F48030F9E715
:1004A0000010024070470000034A516821F4E061E7
:1004B00001435160704700000010024003494A6840
:1004C00022F4605242EAC0004860704700100240C7
:1004D000014908667047000000004242034A536821
:1004E000084323F47C131843506070470010024007
:1004F000034A516821F00301014351607047000035
:100500000010024030B500244FF4A0653120FFF701
:1005100085FF641CAC4201D00028F7D03120FFF7E2
:100520007DFF002800D0012030BD70477047704724
:100530007047704770477047704770477047704703
:100540007047704770477047704770477047FEE7C5
:10055000704702E008C8121F08C1002AFAD170478C
:100560007047002001E001C1121F002AFBD1704733
:10057000FFF7F8FEFFF70CFE7D20FFF74FFF1C4C46
:1005800058B14FF400412046FFF784FEFFF7E2FE2A
:1005900018480021491C8142FCD3FFF7BDFEFFF73C
:1005A00085FE4FF47F412046FFF772FE124F134D38
:1005B000FE1400BFFFF794FE01213846FFF75AFEF4
:1005C00078B131462046FFF75CFEC0F10100C2B2AF
:1005D00031462046FFF760FE0020401CA842FCD3B5
:1005E000E8E74FF480712046FFF754FEFEE7000075
:1005F000000C0140809698000008014080841E0095
:100600001006000800000020000400006205000839
:04000005080000ED02
:00000001FF
