:020000040800F2
:100000000804002001010008C3040008850200085C
:10001000C10400086D010008C306000800000000CC
:10002000000000000000000000000000BF06000803
:100030006F01000800000000E5040008C106000888
:100040001701000817010008170100081701000830
:100050001701000817010008170100081701000820
:100060001701000817010008170100081701000810
:100070001701000817010008170100081701000800
:1000800017010008170100081701000817010008F0
:1000900017010008170100081701000817010008E0
:1000A00017010008170100081701000817010008D0
:1000B00017010008170100081701000817010008C0
:1000C00017010008170100081701000817010008B0
:1000D00017010008170100081701000817010008A0
:1000E000170100081701000817010008DFF80CD0FD
:1000F00000F02AF800480047610A000808040020C0
:1001000005480047FEE7FEE7FEE7FEE7FEE7FEE7FD
:10011000FEE7FEE7FEE7FEE7ED00000830B50B4620
:10012000014600202022012409E021FA02F59D4227
:1001300005D303FA02F5491B04FA02F52844151EFB
:10014000A2F10102F1DC30BD064C074D06E0E0688B
:1001500040F0010394E8070098471034AC42F6D30E
:10016000FFF7C8FF1C0B00083C0B0008FEE77047B8
:1001700004490A6822F010020A600A6802430A6011
:100180007047000000200240034A116801F0380166
:1001900001431160704700000020024008B54FF491
:1001A0007F40ADF8000003208DF8020010208DF88C
:1001B00003006946014800F003F808BD000C014047
:1001C0002DE9F041CA780025D30602F00F0201D5CF
:1001D0008B781A430B884FF00F084FF0010C13F087
:1001E000FF0F1CD0D0F800400E880CFA05F31E401B
:1001F0009E4210D1AF0008FA07F624EA060602FA7A
:1002000007F43443CE78282E02D0482E02D002E0E4
:10021000436100E003616D1C082DE5D304600B8889
:10022000FF2B1DD94468002505F108060CFA06F3DA
:100230000E881E409E420FD1AF0008FA07F624EA4E
:10024000060602FA07F43443CE78282E00D1436123
:10025000CE78482E00D103616D1C082DE4D3446094
:10026000BDE8F0810246002092680A4200D00120D9
:10027000704741617047016170470AB10161704781
:1002800041617047FEE700EB8110C0B240F0800092
:1002900000F09EB870B51F4841F60F411E4C01801A
:1002A000032181701021C17001462046FFF788FFAD
:1002B0004FF4E0512046FFF7DCFF18490020401CB6
:1002C0008842FCD3002447F23055032000F0B6F8F2
:1002D0000020401CA842FCD3641CE4B2032CF4D3DD
:1002E000022000F0ABF8002041F27071401C8842FF
:1002F000FCD3282000F06CF8082000F069F80120F9
:1003000000F066F8062000F063F8BDE870400C20AD
:1003100000F05EB80000002000100140E0930400EF
:1003200070B50122124E950229463046FFF7A5FF0F
:1003300008213046FFF796FF044604213046FFF7B8
:1003400091FF44EA400402213046FFF78BFF44EA64
:10035000800401213046FFF785FF44EAC000C4B2A3
:10036000002229463046FFF788FF204670BD000076
:10037000001001402DE9F041134C0F264820268043
:10038000124FE070002521463846FFF719FF012281
:10039000D1023846FFF771FF0022B9143846FFF743
:1003A0006CFFFFF7BDFF45EA0010C5B2FFF7B8FFCD
:1003B000054326801020E07021463846FFF700FFF5
:1003C0002846BDE8F0810000000000200010014038
:1003D00010B5044600224FF4C0510848FFF74DFF06
:1003E000200900F02BF804F00F0000F027F800BF00
:1003F000FFF7C0FF0006FBD410BD00000010014055
:1004000070B50D4D044600224FF400612846FFF7F9
:1004100034FF012211032846FFF72FFF200900F0C7
:100420000DF804F00F0000F009F800BFFFF7A2FF7D
:100430000006FBD470BD00000010014070B5012221
:10044000124E0446950229463046FFF716FF04F087
:10045000010208213046FFF710FF04F002020421D8
:100460003046FFF70AFF04F0040202213046FFF78E
:1004700004FF04F0080201213046FFF7FEFE294682
:100480003046BDE870400022FFF7F7BE0010014083
:1004900010B5044602E0641CFFF7B2FF2078002884
:1004A000F9D110BD10B5044608461146FFF7EBFE22
:1004B00002E0641CFFF7A4FF20780028F9D110BDEA
:1004C000FEE7704700214FF0006000F001B8000027
:1004D000024A1140014302480160704780FFFF1F3C
:1004E00008ED00E070470000044A0029916901D03E
:1004F000014300E081439161704700000010024019
:1005000010B500F037F84FF48034204600F07CF846
:1005100000F0C2F801282CD11020FFF729FE02209C
:10052000FFF732FE002000F065F8002000F090F8A0
:10053000A01100F083F84FF4E011204600F098F885
:10054000012000F08FF8392000F034F80028FAD0AC
:10055000022000F097F800BF00F044F80828FBD113
:100560000121FFF7C1FF0121BDE810401020FFF776
:10057000BBBF10BD0C48016841F00101016041683A
:100580000A4A114041600168094A1140016001684E
:1005900021F48021016042684FF41F0122F4FE0221
:1005A0004260816070470000001002400000FFF8C8
:1005B000FFFFF6FE0246002053090949012B0BD02C
:1005C000022B0BD0D1F8241002F01F02012393401C
:1005D0000B4200D0012070470968F5E7096AF3E78C
:1005E000001002400248406800F00C007047000014
:1005F00000100240034A516821F0F00101435160AC
:1006000070470000001002400B490A6822F4803253
:100610000A600A68B0F5803F22F480220A6007D0A1
:10062000B0F5802F03D1086840F4A020086070471F
:10063000086840F48030F9E700100240034A51682E
:1006400021F4E06101435160704700000010024056
:1006500003494A6822F4605242EAC0004860704789
:100660000010024001490866704700000000424245
:10067000034A5368084323F47C13184350607047BF
:1006800000100240034A516821F003010143516008
:10069000704700000010024030B500244FF4A06500
:1006A0003120FFF787FF641CAC4201D00028F7D04F
:1006B0003120FFF77FFF002800D0012030BD7047B8
:1006C0007047FEE70FB4084B10B504A902AA0398BF
:1006D00000F01CF8044602A9002000F0BBF92046F7
:1006E00010BC5DF814FB0000550A000802E008C8C1
:1006F000121F08C1002AFAD170477047002001E09C
:1007000001C1121F002AFBD1704700002DE9FF4FE5
:100710008DB005468846002667E125287AD1002459
:100720006D1CB64AA146A34601212B78203B01FA55
:1007300003F0104202D004436D1CF6E728782A2803
:1007400010D06FF02F022878A0F13001092915D8B8
:1007500009EB890102EB410144F0020400EB0109BD
:100760006D1CF0E758F8049BB9F1000103DA44F47A
:100770000054C1F1000944F002046D1C28782E28B1
:1007800017D115F8010F44F004042A280ED06FF099
:100790002F022878A0F1300109290AD80BEB8B0130
:1007A00002EB410100EB010B6D1CF2E758F804BBB2
:1007B0006D1C28786C280FD006DC4C2817D06828D0
:1007C0000DD06A2814D104E0742810D07A280FD1F3
:1007D0000DE044F400140AE044F4801401E044F411
:1007E00040146978814202D16D1C04F580146D1C9F
:1007F0002878692866D007DC002875D0632828D0BF
:10080000642807D15EE005E06E2808D073282AD05E
:1008100075287AD0DDE90F129047761CE4E0C4F326
:100820000250022809D003280DD0D8F8001004285F
:100830000DD00E6008F10408D6E0D8F80010F217C9
:10084000C1E90062F6E7D8F800100E80F2E70E70FA
:10085000F0E758F8041B8DF8001000208DF8010017
:10086000EA46012003E058F804AB4FF0FF3061077F
:100870004FF0000701D40AE07F1C5F450DDA874284
:10088000FADB1AF807100029F6D106E07F1C874230
:10089000FCDB1AF807100029F8D1DDE90F23A9EBDA
:1008A00007008146214600F0BEF83044C61904E036
:1008B000DDE90F121AF8010B90477F1EF8D221468E
:1008C00048468CE00A2758F8040BC4F30251032968
:1008D00000D100B2042900D140B2002806DAC0F1EC
:1008E00000004FF02D0104E083E00EE0210504D567
:1008F0002B218DF82C10012103E0E10710D02021DD
:10090000F7E70DF1200A099113E00A2758F8040BC4
:10091000C4F30251032900D180B2042900D1C0B22E
:100920000021EEE73946FFF7F9FB01F130020AF842
:10093000012D0028F6D1ADEB0A0000F1200008904F
:10094000600702D524F4803401E04FF0010B089ACF
:1009500000205946934501DDA1EB0200834600EBE0
:10096000020109980144A9EB01000A90E00306D4B2
:10097000DDE90F2321460A9800F055F806440027C8
:100980000DF12C0906E0DDE90F1219F80700904778
:10099000761C7F1C09988742F5DBE0030CD5DDE966
:1009A0000F2321460A9800F03EF8064404E0DDE9F2
:1009B0000F1230209047761CBBF10001ABF1010B08
:1009C000F5DC05E0DDE90F121AF8010B9047761C03
:1009D0000899481E08900029F4DC0A982146DDE9B0
:1009E0000F2300F00DF806446D1C287800287FF4D2
:1009F00094AE11B03046BDE8F08F00000928010028
:100A00002DE9F0410446002517461E46880405D40A
:100A100006E039462020B04705F10105641EF8D5EF
:100A20002846BDE8F0812DE9F04104460025302735
:100A300090461E46C80300D42027880405D506E04A
:100A400041463846B04705F10105641EF8D52846F1
:100A5000BDE8F0810A68531C0B60107070470000FD
:100A60001CB52249D1E90001CDE90001FFF748FD9D
:100A7000FFF794FBFFF726FD1D4F4FF47F413846EB
:100A8000FFF7F7FBFFF706FC0120FFF7A1FC19A019
:100A9000FFF7FEFC1B490020401C8842FCD30024C9
:100AA000194E01254FF48078224618A16846FFF7B9
:100AB00009FE012200216846FFF7F4FC0020401CDB
:100AC000B042FCD345B1641C41463846FFF7D3FB26
:100AD0000F2CE9D30025E7E7641E41463846FFF7AF
:100AE000C8FB002CE0D10125DEE70000140B000854
:100AF000000C01404F646C69637A616E69653A006D
:100B000000000000C0C62D0000093D00253269002C
:100B10000000000030000000000000003C0B000856
:100B20000000002004000000EC060008400B000854
:100B30000400002004040000FC060008000000007F
:04000005080000ED02
:00000001FF
