:020000040800F2
:1000000000040020010100088F020008830200089C
:100010008D020008430100081507000800000000D9
:10002000000000000000000000000000B70400080D
:100030005301000800000000B3020008B9040008E2
:1000400017070008B1020008BB040008B10400084B
:10005000630100082904000855010008590100083F
:100060005B0100085D0100085F0100084501000810
:1000700047010008490100084B0100084D01000834
:100080004F01000851010008410100081701000854
:100090001701000817010008170100086101000896
:1000A000BD040008C3040008C1040008BF04000820
:1000B000C5040008C7040008C90400088702000836
:1000C000850200088B02000889020008B3040008BA
:1000D000B50400080D0700080F0700081107000805
:1000E00057010008AF04000813070008DFF80CD020
:1000F00000F014F800480047390700080004002009
:1001000005480047FEE7FEE7FEE7FEE7FEE7FEE7FD
:10011000FEE7FEE7FEE7FEE7ED000008064C074DB0
:1001200006E0E06840F0010394E8070098471034C7
:10013000AC42F6D3FFF7DEFF9C070008AC070008CF
:100140007047FEE7704770477047704770477047C9
:1001500070477047704770477047704770477047E7
:100160007047704704490A6822F010020A600A6862
:1001700002430A607047000000200240034A1168F1
:1001800001F0380101431160704700000020024077
:1001900038B54FF47F40ADF8000003248DF80240DD
:1001A00018208DF803006946074800F011F80F2069
:1001B000ADF800008DF8024004208DF80300694678
:1001C000024800F005F838BD000C0140000801406D
:1001D0002DE9F041CA780025D30602F00F0201D5BF
:1001E0008B781A430B884FF00F084FF0010C13F077
:1001F000FF0F1CD0D0F800400E880CFA05F31E400B
:100200009E4210D1AF0008FA07F624EA060602FA69
:1002100007F43443CE78282E02D0482E02D002E0D4
:10022000436100E003616D1C082DE5D304600B8879
:10023000FF2B1DD94468002505F108060CFA06F3CA
:100240000E881E409E420FD1AF0008FA07F624EA3E
:10025000060602FA07F43443CE78282E00D1436113
:10026000CE78482E00D103616D1C082DE4D3446084
:10027000BDE8F0810246002092680A4200D00120C9
:100280007047FEE77047704770477047FEE770475A
:1002900000214FF0006000F001B80000024A114058
:1002A000014302480160704780FFFF1F08ED00E036
:1002B00070477047044A0029D16901D0014300E02A
:1002C0008143D1617047000000100240044A0029B8
:1002D000916901D0014300E08143916170470000C2
:1002E0000010024010B500F03BF84FF48034204677
:1002F00000F080F800F0C8F8012830D11020FFF796
:1003000031FF0220FFF73AFF002000F069F80020DB
:1003100000F096F8A01100F089F84FF4E0112046A3
:1003200000F09EF8012000F095F8392000F038F830
:100330000028FAD0022000F09DF800BF00F048F835
:100340000828FBD10121FFF7C1FF01210420FFF79D
:10035000BDFF0121BDE810400420FFF7ABBF10BD79
:100360000C48016841F00101016041680A4A1140EE
:1003700041600168094A11400160016821F480214F
:10038000016042684FF41F0122F4FE024260816066
:1003900070470000001002400000FFF8FFFFF6FE6B
:1003A0000246002053090949012B0BD0022B0BD028
:1003B000D1F8241002F01F02012393400B4200D019
:1003C000012070470968F5E7096AF3E70010024069
:1003D0000248406800F00C00704700000010024026
:1003E000034A516821F0F001014351607047000059
:1003F000001002400B490A6822F480320A600A6841
:10040000B0F5803F22F480220A6007D0B0F5802F3B
:1004100003D1086840F4A02008607047086840F4E1
:100420008030F9E70010024070470000034A51682D
:1004300021F4E06101435160704700000010024068
:1004400003494A6822F4605242EAC000486070479B
:100450000010024001490866704700000000424257
:10046000034A5368084323F47C13184350607047D1
:1004700000100240034A516821F00301014351601A
:10048000704700000010024030B500244FF4A06512
:100490003120FFF785FF641CAC4201D00028F7D063
:1004A0003120FFF77DFF002800D0012030BD7047CC
:1004B0007047704770477047704770477047704784
:1004C000704770477047704770470029018802D015
:1004D00041F0800101E021F0800101807047002996
:1004E000018802D041F0010101E021F00101018009
:1004F00070470000F0B587B000244CF24F30ADF8E3
:1005000014001D4FADF81040ADF81640ADF8124084
:1005100004A9384600F0ACF860253220ADF8005050
:100520000126ADF80600ADF80260ADF80840694656
:10053000384600F023F80821384600F05BF846F210
:10054000A810ADF80050ADF80600ADF80260ADF8A7
:1005500008406946384600F053F80821384600F054
:100560007FF801213846FFF7B0FF01213846FFF739
:10057000B6FF07B0F0BD00000008004070B5028C67
:1005800022F480720284028C8388848B0D8922F489
:1005900000722D0642EA15454A8824F073061206B9
:1005A0000C8845EA1242114D3443A84202D0104D46
:1005B000A84215D122F400654A8923F4405312065B
:1005C00045EA124222F480658A88120645EA124200
:1005D0008D892D0543EA1545CB891B0545EA134353
:1005E00083808483C9888187028470BD002C014088
:1005F00000340140828B22F008020A438283704754
:1006000030B5028C22F480520284048C8288838B61
:1006100023F4E6450B881B0645EA134324F40055F2
:100620000C89240745EA14444D882D0744EA1545F2
:10063000094CA04202D0094CA04205D122F48044CA
:100640008A89920544EA124282808383C988A0F88D
:100650004010058430BD0000002C014000340140F2
:10066000828B22F4006242EA0121818370470000FC
:1006700030B502881B4B1C4C98420DD0A0420BD0C9
:10068000B0F1804F08D0194DA84205D0184DA842AE
:1006900002D0184DA84203D122F070054A882A439F
:1006A000154DA84206D0154DA84203D022F440753E
:1006B000CA882A4302808A88984282850A880285ED
:1006C0000AD0A04208D00E4A904205D00D4A90426E
:1006D00002D00D4A904201D1097A0186012181821E
:1006E00030BD0000002C01400034014000040040F7
:1006F00000080040000C00400010004000140040C2
:1007000000400140004401400048014070477047EC
:1007100070477047FEE7704702E008C8121F08C123
:10072000002AFAD170477047002001E001C1121F72
:10073000002AFBD170470000FFF7D4FDFFF728FD2A
:10074000FFF7A6FDFFF7D6FE124D134E4FF60577C5
:10075000EC0401212846FFF78DFD40B9B4F83C08B0
:10076000B84204D8B4F83C08FA30A4F83C08022196
:100770002846FFF77FFD40B9B4F83C08FA2804D3B7
:10078000B4F83C08FA38A4F83C080020401CB042F9
:10079000FCD3DEE700080140801A0600AC07000821
:0C07A000000000200004000028070008F2
:04000005080000ED02
:00000001FF
