:020000040800F2
:1000000008040020010100087B0900080707000818
:100010007909000801040008A50E0008000000008E
:10002000000000000000000000000000870C000835
:100030009F050008000000004F0A0008890C000816
:10004000A70E00084D0A00088B0C0008810C000860
:10005000AF050008F90B0008A1050008A505000878
:10006000A7050008A9050008AB050008030400085F
:100070000504000807040008090400080B04000830
:100080000D0400080F0400086D01000817010008A6
:10009000170100081701000817010008AD05000846
:1000A0008D0C0008C30C0008C10C0008910C00085E
:1000B000C50C0008C70C0008C90C00080B07000895
:1000C000090700080F0700080D070008830C000847
:1000D000850C00089D0E00089F0E0008A10E000868
:1000E000A30500087F0C0008A30E0008DFF80CD061
:1000F00000F02AF8004800474512000808040020D4
:1001000005480047FEE7FEE7FEE7FEE7FEE7FEE7FD
:10011000FEE7FEE7FEE7FEE7ED00000830B50B4620
:10012000014600202022012409E021FA02F59D4227
:1001300005D303FA02F5491B04FA02F52844151EFB
:10014000A2F10102F1DC30BD064C074D06E0E0688B
:1001500040F0010394E8070098471034AC42F6D30E
:10016000FFF7C8FF98130008B813000870B50A4DD0
:100170004FF4A0742146284600F0A3F800280AD0C6
:100180002146284600F01DF8BDE870400122910389
:10019000024800F0B3BA70BD00240140000C0140D9
:1001A0004268024B1A400A4342607047FFFD3FFF1E
:1001B000426822F01F020A43426070474162826235
:1001C00070476FEA1121016070470029816802D0F1
:1001D00041F0010101E021F0010181607047000060
:1001E00010B586B0002001218DF8041000908DF824
:1001F0000500029003900220224C8DF81000694601
:10020000204600F07BF8002301220E21204600F05A
:1002100099F8072302221021204600F093F80120CC
:1002200000F0DEF80121204600F030F84FF49B6228
:1002300040F61E412046FFF7C1FF13492046FFF755
:10024000AFFF0E212046FFF7B3FF01224FF4A0714C
:10025000204600F04AF801212046FFF7B6FF20466D
:1002600000F0AAF8204600F039F80028FAD120461C
:1002700000F0B1F8204600F01DF80028FAD106B0D1
:1002800010BD0000002401400002800000298168A8
:1002900002D041F4807101E021F4807181607047E7
:1002A0000029816802D041F4801101E021F480111D
:1002B00081607047014600208968490700D5012008
:1002C000704710B5002244680B0A0068C9B20C40A0
:1002D000184201D004B10122104610BD0146002091
:1002E0008968090700D501207047002A4268C9B211
:1002F00001D00A4300E08A434260704730B542684B
:100300000E4B0C791A400B6842EA042213434360F7
:1003100083680B4A4D791340D1E9024243EA450311
:1003200022431A438260C26A097C22F47002491E89
:10033000C9B242EA0151C16230BD0000FFFEF0FFC8
:10034000FDF7F1FF70B5072509290AD9C468A1F1A5
:100350000A0606EB4606B540AC43B3401C43C460F6
:1003600007E0046901EB4106B540AC43B3401C43D0
:1003700004611F23072A09D2446B521E02EB82023A
:1003800093409C4391400C43446370BD0D2A09D2B5
:10039000046BD21F02EB820293409C4391400C43BA
:1003A000046370BDC46A0D3A02EB820293409C4321
:1003B00091400C43C46270BD816841F008018160C6
:1003C00070470029816802D041F4A00101E021F4C6
:1003D000A00181607047816841F00401816070472D
:1003E00006490028D1F8080402D040F4000001E0DA
:1003F00020F40000C1F8080470470000002001400C
:10040000FEE7704770477047704770477047704706
:100410000029016802D041F0010101E021F0010151
:100420000160704710B5114C8CB0204600F024F8E4
:100430000F4800900F480021CDE901010220CDE9CD
:100440000301802005904000069080000790202046
:1004500008900002CDE909016946204600F082F8C3
:1004600001212046FFF7D4FF0CB010BD0800024068
:100470004C240140000000200268002122F001020B
:100480000260016041608160C1603449334A0839CB
:10049000904203D1486840F00F0006E02F4A143222
:1004A000904204D1486840F0F000486070472B4A01
:1004B0002832904203D1486840F47060F5E7274A3B
:1004C0003C32904203D1486840F47040EDE7234A43
:1004D0005032904203D1486840F47020E5E71F4A4B
:1004E0006432904203D1486840F47000DDE71B4A53
:1004F0007832904203D1486840F07060D5E7184ADE
:10050000904204D1D1F8040440F00F0007E0144AEF
:100510001432904206D1D1F8040440F0F000C1F842
:10052000040470470E4A2832904204D1D1F80404E2
:1005300040F47060F3E70A4A3C32904204D1D1F8AB
:10054000040440F47040EAE7054A50329042E8D192
:10055000D1F8040440F47020E1E7000008000240F4
:100560000804024070B5036847F6F0729343D1E97E
:1005700004460D6A8A6834432A432243D1E906546B
:100580002A432243D1E909542A4322431A430260F1
:10059000CA6842600A6882604968C16070BD70477D
:1005A0007047704770477047704770477047704793
:1005B00004490A6822F010020A600A6802430A60CD
:1005C0007047000000200240034A116801F0380122
:1005D00001431160704700000020024038B54FF41D
:1005E0007F40ADF8000003248DF8024010258DF8FF
:1005F000035069460D4800F01FF80F20ADF80000C9
:100600008DF8024004208DF803006946084800F088
:1006100013F8ADF8005000208DF803008DF802406B
:100620006946044800F008F838BD0000000C01409D
:1006300000080140001001402DE9F041CA78002572
:10064000D30602F00F0201D58B781A430B884FF0C6
:100650000F084FF0010C13F0FF0F1CD0D0F8004032
:100660000E880CFA05F31E409E4210D1AF0008FA26
:1006700007F624EA060602FA07F43443CE78282E59
:1006800002D0482E02D002E0436100E003616D1CFD
:10069000082DE5D304600B88FF2B1DD94468002585
:1006A00005F108060CFA06F30E881E409E420FD193
:1006B000AF0008FA07F624EA060602FA07F4344304
:1006C000CE78282E00D14361CE78482E00D1036128
:1006D0006D1C082DE4D34460BDE8F0810246002083
:1006E00092680A4200D00120704702460020D2687A
:1006F0000A4200D001207047416170470AB1016190
:10070000704741617047FEE7704770477047704718
:1007100000EB8110C0B240F0800000F0B5B80000DE
:1007200070B51F4841F60F411E4C018003218170B6
:100730001021C17001462046FFF77EFF4FF4E051C3
:100740002046FFF7D9FF18490020401C8842FCD3FF
:10075000002447F23055032000F0CCF80020401C64
:10076000A842FCD3641CE4B2032CF4D3022000F0B2
:10077000C1F8002041F27071401C8842FCD328204F
:1007800000F082F8082000F07FF8012000F07CF8EB
:10079000062000F079F8BDE870400C2000F074B835
:1007A0000400002000100140E093040070B5012215
:1007B000124E950229463046FFF7A0FF0821304629
:1007C000FFF78CFF044604213046FFF787FF44EA19
:1007D000400402213046FFF781FF44EA80040121F2
:1007E0003046FFF77BFF44EAC000C4B2002229462E
:1007F0003046FFF783FF204670BD00000010014027
:100800002DE9F041134C0F2648202680124FE0704E
:10081000002521463846FFF70FFF0122D102384656
:10082000FFF76CFF0022B9143846FFF767FFFFF7A8
:10083000BDFF45EA0010C5B2FFF7B8FF05432680AB
:100840001020E07021463846FFF7F6FE2846BDE846
:10085000F0810000040000200010014070B50D463A
:10086000402141EAC0001446C0B200F00DF8E8068D
:100870005FEA106514F8010B00F01EF86D1E15F00C
:10088000FF05F7D170BD000010B5044600224FF4FB
:10089000C0510848FFF732FF200900F02BF804F0A0
:1008A0000F0000F027F800BFFFF7AAFF0006FBD4F7
:1008B00010BD00000010014070B50D4D044600222F
:1008C0004FF400612846FFF719FF01221103284663
:1008D000FFF714FF200900F00DF804F00F0000F0FE
:1008E00009F800BFFFF78CFF0006FBD470BD0000C5
:1008F0000010014070B50122124E044695022946AF
:100900003046FFF7FBFE04F0010208213046FFF7F6
:10091000F5FE04F0020204213046FFF7EFFE04F07A
:10092000040202213046FFF7E9FE04F0080201212B
:100930003046FFF7E3FE29463046BDE8704000220E
:10094000FFF7DCBE0010014010B5044602E0641C55
:10095000FFF7B2FF20780028F9D110BD10B504468A
:1009600008461146FFF7D4FE02E0641CFFF7A4FF1F
:1009700020780028F9D110BDFEE7704738B5002176
:100980004FF0006000F058F84FF4C06000F04AF8F3
:1009900012208DF8000001248DF8014000208DF810
:1009A00002008DF80340684600F00DF81B208DF81A
:1009B00000008DF801408DF802408DF80340684634
:1009C00000F001F838BDF0B50F22C57803784FF07C
:1009D000E0210124E5B1D1F80C5D467805F4E0652D
:1009E000C5F5E0652D0AC5F10407EA408578BE40EB
:1009F000154035430B442A0183F80024007842094E
:100A000000F01F00844001EB8200C0F80041F0BDFF
:100A100003F01F008440580901EB8000C0F88041BA
:100A2000F0BD000002490843024908607047000019
:100A30000000FA050CED00E0024A114001430248B3
:100A40000160704780FFFF1F08ED00E070477047AE
:100A5000034A516821F4404101435160704700004E
:100A600000100240044A0029516901D0014300E00E
:100A7000814351617047000000100240044A002980
:100A8000916901D0014300E081439161704700000A
:100A90000010024010B500F04BF84FF480342046AF
:100AA00000F090F800F0D8F8012840D11020FFF7AE
:100AB0007FFD0220FFF788FD002000F079F800207C
:100AC00000F0A6F8A01100F099F84FF4A01120460C
:100AD00000F0AEF8012000F0A5F8392000F048F849
:100AE0000028FAD0022000F0ADF800BF00F058F85E
:100AF0000828FBD1C002FFF7ABFF01210420FFF75C
:100B0000BDFF01210820FFF7B9FF01211020FFF7E9
:100B1000B5FF01214802FFF7B1FF01210846FFF7A9
:100B2000A1FF0121BDE81040C802FFF7A7BF10BD1B
:100B30000C48016841F00101016041680A4A114016
:100B400041600168094A11400160016821F4802177
:100B5000016042684FF41F0122F4FE02426081608E
:100B600070470000001002400000FFF8FFFFF6FE93
:100B70000246002053090949012B0BD0022B0BD050
:100B8000D1F8241002F01F02012393400B4200D041
:100B9000012070470968F5E7096AF3E70010024091
:100BA0000248406800F00C0070470000001002404E
:100BB000034A516821F0F001014351607047000081
:100BC000001002400B490A6822F480320A600A6869
:100BD000B0F5803F22F480220A6007D0B0F5802F64
:100BE00003D1086840F4A02008607047086840F40A
:100BF0008030F9E70010024070470000034A516856
:100C000021F4E06101435160704700000010024090
:100C100003494A6822F4605242EAC00048607047C3
:100C2000001002400149086670470000000042427F
:100C3000034A5368084323F47C13184350607047F9
:100C400000100240034A516821F003010143516042
:100C5000704700000010024030B500244FF4A0653A
:100C60003120FFF785FF641CAC4201D00028F7D08B
:100C70003120FFF77DFF002800D0012030BD7047F4
:100C80007047704770477047704770477047000063
:100C900010B5094C0221204600F058F8002809D070
:100CA0000221204600F011F8BDE810400121034860
:100CB000FFF7F6BA10BD0000002C014000240140EF
:100CC00070477047704770477047C943018270474B
:100CD0000029018802D041F0010101E021F0010169
:100CE0000180704770B588B041F2DF500024ADF844
:100CF000000044F62065144EADF80450ADF80640EF
:100D00008DF80840ADF802406946304600F078F8AA
:100D1000ADF80C400120ADF80E00ADF81250ADF862
:100D2000144003A9304600F025F80021304600F0B9
:100D300061F801220221304600F014F8012130460A
:100D4000FFF7C6FF08B070BD002C0140024600202E
:100D5000138A92890B4202EA010202D0002A00D0D3
:100D600001207047002A828901D00A4300E08A43AB
:100D700082817047F0B5028C22F001020284058C5A
:100D80008388028B0C8822F0730225F002060D89FD
:100D900014434A88124F35432A43B8420BD0114DB1
:100DA000A84208D0104DA84205D0104DA84202D04C
:100DB0000F4DA8420DD122F008054A8923F4407650
:100DC0002A4322F004058A88CB892A438D8935433A
:100DD0002B4383800483C98881860284F0BD000090
:100DE000002C01400034014000400140004401401B
:100DF00000480140028B22F008020A430283704738
:100E000030B502881B4B1C4C98420DD0A0420BD031
:100E1000B0F1804F08D0194DA84205D0184DA84216
:100E200002D0184DA84203D122F070054A882A4307
:100E3000154DA84206D0154DA84203D022F44075A6
:100E4000CA882A4302808A88984282850A88028555
:100E50000AD0A04208D00E4A904205D00D4A9042D6
:100E600002D00D4A904201D1097A01860121818286
:100E700030BD0000002C014000340140000400405F
:100E800000080040000C004000100040001400402A
:100E90000040014000440140004801407047704755
:100EA00070477047FEE770470FB4084B10B504A9B0
:100EB00002AA039800F01CF8044602A9002000F0E2
:100EC000BBF9204610BC5DF814FB00003912000885
:100ED00002E008C8121F08C1002AFAD17047704703
:100EE000002001E001C1121F002AFBD17047000061
:100EF0002DE9FF4F8DB005468846002667E125287D
:100F00007AD100246D1CB64AA146A34601212B7854
:100F1000203B01FA03F0104202D004436D1CF6E7B7
:100F200028782A2810D06FF02F022878A0F13001FD
:100F3000092915D809EB890102EB410144F00204AB
:100F400000EB01096D1CF0E758F8049BB9F10001B2
:100F500003DA44F40054C1F1000944F002046D1CAA
:100F600028782E2817D115F8010F44F004042A28F8
:100F70000ED06FF02F022878A0F1300109290AD88D
:100F80000BEB8B0102EB410100EB010B6D1CF2E757
:100F900058F804BB6D1C28786C280FD006DC4C2850
:100FA00017D068280DD06A2814D104E0742810D016
:100FB0007A280FD10DE044F400140AE044F48014C0
:100FC00001E044F440146978814202D16D1C04F5BB
:100FD00080146D1C2878692866D007DC002875D03D
:100FE000632828D0642807D15EE005E06E2808D089
:100FF00073282AD075287AD0DDE90F129047761C25
:10100000E4E0C4F30250022809D003280DD0D8F838
:10101000001004280DD00E6008F10408D6E0D8F8BE
:101020000010F217C1E90062F6E7D8F800100E8050
:10103000F2E70E70F0E758F8041B8DF8001000205E
:101040008DF80100EA46012003E058F804AB4FF0A8
:10105000FF3061074FF0000701D40AE07F1C5F45B5
:101060000DDA8742FADB1AF807100029F6D106E0FC
:101070007F1C8742FCDB1AF807100029F8D1DDE954
:101080000F23A9EB07008146214600F0BEF830444B
:10109000C61904E0DDE90F121AF8010B90477F1E14
:1010A000F8D2214648468CE00A2758F8040BC4F3CE
:1010B0000251032900D100B2042900D140B2002816
:1010C00006DAC0F100004FF02D0104E083E00EE0ED
:1010D000210504D52B218DF82C10012103E0E10717
:1010E00010D02021F7E70DF1200A099113E00A271B
:1010F00058F8040BC4F30251032900D180B204292B
:1011000000D1C0B20021EEE73946FFF707F801F140
:1011100030020AF8012D0028F6D1ADEB0A0000F1EB
:1011200020000890600702D524F4803401E04FF0DD
:10113000010B089A00205946934501DDA1EB0200FE
:10114000834600EB020109980144A9EB01000A90D3
:10115000E00306D4DDE90F2321460A9800F055F894
:10116000064400270DF12C0906E0DDE90F1219F8FD
:1011700007009047761C7F1C09988742F5DBE00347
:101180000CD5DDE90F2321460A9800F03EF806440D
:1011900004E0DDE90F1230209047761CBBF100011E
:1011A000ABF1010BF5DC05E0DDE90F121AF8010BDC
:1011B0009047761C0899481E08900029F4DC0A988C
:1011C0002146DDE90F2300F00DF806446D1C287858
:1011D00000287FF494AE11B03046BDE8F08F0000D7
:1011E000092801002DE9F0410446002517461E4656
:1011F000880405D406E039462020B04705F10105F2
:10120000641EF8D52846BDE8F0812DE9F04104467A
:101210000025302790461E46C80300D420278804A6
:1012200005D506E041463846B04705F10105641E84
:10123000F8D52846BDE8F0810A68531C0B60107091
:10124000704700001FB5002040A100900190D1E937
:101250000001CDE90201FFF71DFCFFF7BFF9FFF721
:101260008DFBFFF7DFF8FEF7BBFFFFF73BFD394CC7
:101270004FF47F412046FFF73FFAFFF751FA012173
:1012800002AA0846FFF7EAFA0120FFF7FDFA32A0AA
:10129000FFF75AFB0122002133A0FFF75FFB364D19
:1012A00001212846FFF78DF801212846FEF7F8FFB7
:1012B000324D334E4FF0010A42F210784FF47A79F2
:1012C0004FF02B0B288841F67B714843B0FBF8F0B8
:1012D000B0FBF9F209FB120347462AA16846FFF763
:1012E000E3FD002207216846FFF738FB688841F6D6
:1012F0007B714843B0FBF7F0A0F296506FF0090104
:10130000484390FBFBF2193221A16846FFF7CCFD60
:101310008DF802A0012207216846FFF71FFB4FF45A
:10132000004739462046FFF7E0F9C0F10100C2B29C
:1013300039462046FFF7E2F9002279102046FFF7F0
:10134000DDF90021491CB142FCD3BBE706090906BF
:1013500000000000000C0140506F742E203A203035
:101360002C3030302056000054656D702E3A20200D
:101370003020430000000000002401400000002055
:1013800060E3160025642C253033642056000000ED
:101390002532642043000000B8130008000000203C
:1013A00008000000D00E0008C0130008080000204C
:1013B00000040000E00E0008000000000000000033
:04000005080000ED02
:00000001FF
