:020000040800F2
:1000000000040020010100088B020008870200089C
:100010008902000841010008970400080000000060
:100020000000000000000000000000009304000831
:100030004301000800000000AD020008950400081C
:100040001701000817010008170100081701000830
:100050001701000817010008170100081701000820
:100060001701000817010008170100081701000810
:100070001701000817010008170100081701000800
:1000800017010008170100081701000817010008F0
:1000900017010008170100081701000817010008E0
:1000A00017010008170100081701000817010008D0
:1000B00017010008170100081701000817010008C0
:1000C00017010008170100081701000817010008B0
:1000D00017010008170100081701000817010008A0
:1000E000170100081701000817010008DFF80CD0FD
:1000F00000F014F800480047B9040008000400208C
:1001000005480047FEE7FEE7FEE7FEE7FEE7FEE7FD
:10011000FEE7FEE7FEE7FEE7ED000008064C074DB0
:1001200006E0E06840F0010394E8070098471034C7
:10013000AC42F6D3FFF7DEFF50050008600500086B
:10014000FEE7704704490A6822F010020A600A6854
:1001500002430A607047000000200240034A116811
:1001600001F0380101431160704700000020024097
:1001700038B54FF47F40ADF8000003248DF80240FD
:1001800010208DF8030069460D4800F01FF80F207D
:10019000ADF800008DF8024004258DF80350694643
:1001A000084800F013F82020ADF800008DF8024058
:1001B0008DF803506946044800F008F838BD000087
:1001C000000C014000080140001001402DE9F04101
:1001D000CA780025D30602F00F0201D58B781A43A6
:1001E0000B884FF00F084FF0010C13F0FF0F1CD0DD
:1001F000D0F800400E880CFA05F31E409E4210D144
:10020000AF0008FA07F624EA060602FA07F43443B8
:10021000CE78282E02D0482E02D002E0436100E0C2
:1002200003616D1C082DE5D304600B88FF2B1DD9DD
:100230004468002505F108060CFA06F30E881E40F6
:100240009E420FD1AF0008FA07F624EA060602FA2A
:1002500007F43443CE78282E00D14361CE78482E5F
:1002600000D103616D1C082DE4D34460BDE8F0812A
:100270000246002092680A4200D001207047416186
:10028000704701617047FEE7FEE7704700214FF0BD
:10029000006000F001B80000024A1140014302482A
:1002A0000160704780FFFF1F08ED00E0704700000D
:1002B000044A0029916901D0014300E08143916122
:1002C000704700000010024010B500F03DF84FF4F8
:1002D0008034204600F082F800F0C8F8012831D1BF
:1002E0001020FFF72FFF0220FFF738FF002000F05B
:1002F0006BF8002000F096F8A01100F089F84FF498
:10030000E011204600F09EF8012000F095F8392019
:1003100000F03AF80028FAD0022000F09DF800BF63
:1003200000F04AF80828FBD101210420FFF7C0FFA4
:1003300001210820FFF7BCFF0121BDE8104010207B
:10034000FFF7B6BF10BD00000C48016841F0010185
:10035000016041680A4A114041600168094A114040
:100360000160016821F48021016042684FF41F019F
:1003700022F4FE02426081607047000000100240DB
:100380000000FFF8FFFFF6FE02460020530909496E
:10039000012B0BD0022B0BD0D1F8241002F01F023E
:1003A000012393400B4200D0012070470968F5E714
:1003B000096AF3E7001002400248406800F00C00B0
:1003C0007047000000100240034A516821F0F0011C
:1003D0000143516070470000001002400B490A6859
:1003E00022F480320A600A68B0F5803F22F480224D
:1003F0000A6007D0B0F5802F03D1086840F4A02030
:1004000008607047086840F48030F9E70010024047
:10041000034A516821F4E0610143516070470000D4
:100420000010024003494A6822F4605242EAC000C8
:10043000486070470010024001490866704700009C
:1004400000004242034A5368084323F47C131843D4
:100450005060704700100240034A516821F00301C8
:1004600001435160704700000010024030B5002485
:100470004FF4A0653120FFF787FF641CAC4201D028
:100480000028F7D03120FFF77FFF002800D001209F
:1004900030BD70477047FEE702E008C8121F08C170
:1004A000002AFAD170477047002001E001C1121FF5
:1004B000002AFBD170470000FFF706FFFFF758FE48
:1004C000FFF7E4FE204D4FF47F412846FFF7D7FEAB
:1004D0001E4CAE154FF400784FF48069E7140121EB
:1004E0002046FFF7C5FE00283146284602D0FFF718
:1004F000C6FE01E0FFF7C5FE02212046FFF7B8FE69
:1005000000284146284602D0FFF7B9FE01E0FFF778
:10051000B8FE04212046FFF7ABFE002849462846D6
:1005200002D0FFF7ACFE01E0FFF7ABFE082120464A
:10053000FFF79EFE00283946284602D0FFF79FFEAF
:10054000CDE7FFF79EFECAE7000C0140000801401E
:10055000600500080000002000040000A804000856
:04000005080000ED02
:00000001FF
