:020000040800F2
:100000001804002001010008D9020008CD020008F0
:10001000D702000843010008BF06000800000000E6
:100020000000000000000000000000008305000840
:100030005301000800000000FB02000885050008CD
:10004000C1060008F9020008870500087D050008C0
:1000500063010008F5040008550100085901000873
:100060005B0100085D0100085F0100084501000810
:1000700047010008490100084B0100084D01000834
:100080004F01000851010008410100081701000854
:100090001701000817010008170100086101000896
:1000A000890500088F0500088D0500088B050008EC
:1000B000910500089305000895050008D102000885
:1000C000CF020008D5020008D30200087F0500080F
:1000D0008105000897050008990500089B050008A0
:1000E000570100087B050008BD060008DFF80CD0AA
:1000F00000F014F800480047E1060008180400204A
:1001000005480047FEE7FEE7FEE7FEE7FEE7FEE7FD
:10011000FEE7FEE7FEE7FEE7ED000008064C074DB0
:1001200006E0E06840F0010394E8070098471034C7
:10013000AC42F6D3FFF7DEFF90070008B0070008D7
:100140007047FEE7704770477047704770477047C9
:1001500070477047704770477047704770477047E7
:100160007047704704490A6822F010020A600A6862
:1001700002430A607047000000200240034A1168F1
:1001800001F0380101431160704700000020024077
:10019000F8B54FF47F40ADF8000003248DF802401D
:1001A00010208DF803006946134800F029F80F204D
:1001B000ADF80000114E8DF8024004258DF8035073
:1001C0006946304600F01CF8E801ADF800008DF8F3
:1001D000024018208DF803006946304600F010F800
:1001E0002802ADF800008DF802408DF803506946F2
:1001F000304600F005F8F8BD000C01400008014051
:100200002DE9F041CA780025D30602F00F0201D58E
:100210008B781A430B884FF00F084FF0010C13F046
:10022000FF0F1CD0D0F800400E880CFA05F31E40DA
:100230009E4210D1AF0008FA07F624EA060602FA39
:1002400007F43443CE78282E02D0482E02D002E0A4
:10025000436100E003616D1C082DE5D304600B8849
:10026000FF2B1DD94468002505F108060CFA06F39A
:100270000E881E409E420FD1AF0008FA07F624EA0E
:10028000060602FA07F43443CE78282E00D14361E3
:10029000CE78482E00D103616D1C082DE4D3446054
:1002A000BDE8F081806880B27047C06880B2704756
:1002B00002460020D2680A4200D001207047C16087
:1002C00070470AB10161704741617047FEE77047AE
:1002D000704770477047FEE7704700214FF000609D
:1002E000AFF30080024A11400143024801607047A9
:1002F00080FFFF1F08ED00E070477047044A0029A7
:10030000916901D0014300E0814391617047000091
:100310000010024010B500F03DF84FF48034204644
:1003200000F0CEF800F016F9012831D11020FFF7C7
:1003300019FF0220FFF722FF002000F0B7F800208D
:1003400000F0E4F8A01100F0D7F84FF4E0112046D7
:1003500000F0ECF8012000F0E3F8392000F086F816
:100360000028FAD0022000F0EBF800BF00F096F869
:100370000828FBD101210420FFF7C0FF012108203C
:10038000FFF7BCFF0121BDE810408803FFF7B6BFAF
:1003900010BD00000C48016841F001010160416896
:1003A0000A4A114041600168094A11400160016830
:1003B00021F48021016042684FF41F0122F4FE0203
:1003C0004260816070470000001002400000FFF8AA
:1003D000FFFFF6FE214910B54B68214A13F00C03CC
:1003E00003D0042B01D0082B26D002604A681D4B95
:1003F00002F0F00212099C5C0268E24042604C6824
:1004000004F4E064240A1C5D22FA04F484604C685D
:1004100004F460544FEAD4241B5D22FA03F2C26054
:100420004968104B01F440414FEA91311B1F595C60
:10043000B2FBF1F1016110BD4A684B68022402F47D
:10044000701204EB924213F4803F02D04B689B037E
:1004500001D5054B00E0024B5A43C6E700100240AD
:1004600000127A000400002000093D00024600202E
:1004700053090949012B0BD0022B0BD0D1F82410C2
:1004800002F01F02012393400B4200D0012070476D
:100490000968F5E7096AF3E700100240024840687E
:1004A00000F00C007047000000100240034A516841
:1004B00021F0F0010143516070470000001002403C
:1004C0000B490A6822F480320A600A68B0F5803F5E
:1004D00022F480220A6007D0B0F5802F03D108688B
:1004E00040F4A02008607047086840F48030F9E7C5
:1004F0000010024070470000034A516821F4E06197
:1005000001435160704700000010024003494A68EF
:1005100022F4605242EAC000486070470010024076
:10052000014908667047000000004242034A5368D0
:10053000084323F47C1318435060704700100240B6
:10054000034A516821F003010143516070470000E4
:100550000010024030B500244FF4A0653120FFF7B1
:1005600085FF641CAC4201D00028F7D03120FFF792
:100570007DFF002800D0012030BD704770477047D4
:1005800070477047704770477047704770477047B3
:1005900070477047704770477047704700298189DE
:1005A00002D041F4005101E021F4005181817047F3
:1005B0001FB54FF4165000900020ADF80400ADF8C0
:1005C0000600ADF80800ADF80C000C20054CADF8A5
:1005D0000A006946204600F00FF801212046FFF787
:1005E000DDFF1FBD003801400246002012880A428C
:1005F00000D001207047000030B50446008A85B065
:100600000D464CF6FF710840E98801432182A1891B
:100610004EF6F3100140A8882A8910436A890A43DC
:100620001043A081A08A4FF6FF410840A9890143E9
:10063000A1826846FFF7CEFE1B48844201D1039891
:1006400000E00298A1890904002900EBC00101EB38
:100650000010296802DA4FEA410101E04FEA810106
:10066000B0FBF1F06422B0FBF2F14FEA01114FEA66
:1006700011136FF018056B43A58900EB83004FF051
:1006800032032D0406D503EBC000B0FBF2F000F0FE
:10069000070005E003EB0010B0FBF2F000F00F00E4
:1006A0000843208105B030BD003801408088C0F388
:1006B00008007047C1F30801818070477047FEE76A
:1006C000704702E008C8121F08C1002AFAD170471B
:1006D0007047002001E001C1121F002AFBD17047C2
:1006E000FFF718FEFFF754FDFFF7F7FDFFF760FF78
:1006F000DFF88C90234E244F244D4FF6FF782021B5
:100700003046FFF771FF70B13046FFF7CFFF0402AC
:10071000A4F540542846FFF7C8FDC0B20443A1B277
:100720002846FFF7CCFD4846FFF7BCFDA8EB0000CC
:1007300010F00F0012D0303081B23046FFF7BAFF10
:100740004FF4804421462846FFF7B2FDC0F1010076
:10075000C2B221462846FFF7B4FD0020401CB84233
:10076000FCD34FF4004421462846FFF7A1FDC0F119
:100770000100C2B221462846FFF7A3FDBFE70000F3
:100780000008014000380140404B4C00000C014083
:10079000B00700080000002014000000C206000896
:1007A000C40700081400002004040000D20600085A
:1007B0000204060800000000010203040102030411
:0407C0000607080917
:04000005080000ED02
:00000001FF
