:020000040800F2
:100000000004002001010008C9020008C102000824
:10001000C502000841010008250500080000000095
:1000200000000000000000000000000021050008A2
:100030004501000800000000ED020008230500084B
:100040001701000817010008170100081701000830
:100050001701000817010008170100081701000820
:100060001701000817010008170100081701000810
:100070001701000817010008170100081701000800
:1000800017010008170100081701000817010008F0
:1000900017010008170100081701000817010008E0
:1000A00017010008170100081701000817010008D0
:1000B00017010008170100081701000817010008C0
:1000C00017010008170100081701000817010008B0
:1000D00017010008170100081701000817010008A0
:1000E000170100081701000817010008DFF80CD0FD
:1000F00000F014F8004800474905000800040020FB
:1001000005480047FEE7FEE7FEE7FEE7FEE7FEE7FD
:10011000FEE7FEE7FEE7FEE7ED000008064C074DB0
:1001200006E0E06840F0010394E8070098471034C7
:10013000AC42F6D3FFF7DEFFBC050008CC05000893
:1001400000BFFEE7704700000549096821F0100173
:10015000034A1160114609680143116070470000AD
:100160000020024001460020034A106800F03800D9
:1001700008431060704700000020024008B54FF4AB
:100180007F40ADF8000003208DF8020010208DF8AC
:1001900003006946014800F003F808BD000C014067
:1001A0002DE9F0410246002500260020002300240E
:1001B000002791F803C00CF00F0591F803C01CF064
:1001C000100F03D091F802C04CEA050591F800C069
:1001D000BCF1000F31D0146800202BE04FF0010C6F
:1001E0000CFA00F3B1F800C00CEA03069E4220D1DD
:1001F00083004FF00F0C0CFA03F7BC4305FA03FC25
:100200004CEA040491F803C0BCF1280F06D14FF06A
:10021000010C0CFA00FCC2F814C00AE091F803C00B
:10022000BCF1480F05D14FF0010C0CFA00FCC2F8EC
:1002300010C0401C0828D1D31460B1F800C0BCF134
:10024000FF0F34DD546800202EE000F1080C4FF061
:10025000010808FA0CF3B1F800C00CEA03069E424C
:1002600021D183004FF00F0C0CFA03F7BC4305FAC1
:1002700003FC4CEA040491F803C0BCF1280F05D13B
:1002800000F1080C08FA0CF8C2F8148091F803C0C9
:10029000BCF1480F07D100F1080C4FF0010808FA33
:1002A0000CF8C2F81080401C0828CED35460BDE87A
:1002B000F081416170470AB1016100E0416170471E
:1002C00000BFFEE700BFFEE7704710B500214FF00A
:1002D000006000F001F810BD024A0A400243024BE0
:1002E0001A60704780FFFF1F08ED00E070470000B4
:1002F00029B1064A92690243044B9A6104E0034A19
:1003000092698243014B9A617047000000100240DD
:1003100010B500F033F84FF4803000F087F800F0AB
:10032000E3F80446012C27D11020FFF70DFF02202F
:10033000FFF718FF002000F06DF8002000F0A8F88B
:10034000A00200F099F84FF4E011200400F0B2F898
:10035000012000F0A9F800BF392000F035F800288E
:10036000FAD0022000F0B4F800BF00F04BF80828E3
:10037000FBD10121FFF7BCFF10BD00000F48006852
:1003800040F001000D490860084640680C490840EB
:100390000A494860084600680A4908400749086059
:1003A0000846006820F4802008600846406820F471
:1003B000FE0048604FF41F00886070470010024044
:1003C0000000FFF8FFFFF6FE10B5014600220023F3
:1003D00000204A11012A02D1094C236806E0022AB2
:1003E00002D1074C236A01E0054C636A01F01F0249
:1003F000012494401C4201D0012000E0002010BDE7
:10040000001002400248406800F00C0070470000F5
:100410000010024001460020034A506820F0F0001E
:1004200008435060704700000010024011490968FD
:1004300021F480310F4A11601146096821F48021AE
:100440001160B0F5803F03D0B0F5802F0ED106E0EB
:100450000849096841F48031064A116007E00549FE
:10046000096841F4A021034A116000E000BF00BF09
:10047000704700000010024001460020034A506807
:1004800020F4E06008435060704700000010024014
:1004900001460020034A506820F4605040EAC10041
:1004A0005060704700100240014908667047000024
:1004B0000000424202460020044B586820F47C10A1
:1004C00042EA01031843014B586070470010024094
:1004D00001460020034A506820F0030008435060A2
:1004E000704700000010024038B500200090002442
:1004F000002500BF3120FFF767FF05460098401C2C
:1005000000900098B0F5A06F01D0002DF2D03120FE
:10051000FFF75AFF08B1012400E00024204638BD4F
:100520007047704700BFFEE702E008C8121F08C10D
:10053000002AFAD170477047002001E001C1121F64
:10054000002AFBD17047000008B5FFF7E1FEFFF776
:10055000BCFEFFF713FE4FF47F411748FFF7A9FEDB
:1005600029E0012211021448FFF7A5FE00200090A7
:1005700002E00098401C00900098B0F5C00FF8D33E
:1005800000224FF480710C48FFF795FE01225102C2
:100590000948FFF790FE0020009002E00098401C00
:1005A00000900098B0F5C00FF8D300224FF400710E
:1005B0000148FFF780FED4E7000C0140CC0500089D
:0C05C000000000200004000038050008C6
:04000005080000ED02
:00000001FF
