:020000040800F2
:1000000000040020010100084B020008470200081C
:1000100049020008410100084304000800000000F4
:100020000000000000000000000000003F04000885
:1000300043010008000000006D02000841040008B0
:100040001701000817010008170100081701000830
:100050001701000817010008170100081701000820
:100060001701000817010008170100081701000810
:100070001701000817010008170100081701000800
:1000800017010008170100081701000817010008F0
:1000900017010008170100081701000817010008E0
:1000A00017010008170100081701000817010008D0
:1000B00017010008170100081701000817010008C0
:1000C00017010008170100081701000817010008B0
:1000D00017010008170100081701000817010008A0
:1000E000170100081701000817010008DFF80CD0FD
:1000F00000F014F8004800476504000800040020E0
:1001000005480047FEE7FEE7FEE7FEE7FEE7FEE7FD
:10011000FEE7FEE7FEE7FEE7ED000008064C074DB0
:1001200006E0E06840F0010394E8070098471034C7
:10013000AC42F6D3FFF7DEFFC0040008D00400088D
:10014000FEE7704704490A6822F010020A600A6854
:1001500002430A607047000000200240034A116811
:1001600001F0380101431160704700000020024097
:1001700008B54FF47F40ADF8000003208DF8020071
:1001800010208DF803006946014800F003F808BD0F
:10019000000C01402DE9F041CA780025D30602F099
:1001A0000F0201D58B781A430B884FF00F084FF0E0
:1001B000010C13F0FF0F1CD0D0F800400E880CFA91
:1001C00005F31E409E4210D1AF0008FA07F624EA5C
:1001D000060602FA07F43443CE78282E02D0482EC1
:1001E00002D002E0436100E003616D1C082DE5D3FD
:1001F00004600B88FF2B1DD94468002505F1080613
:100200000CFA06F30E881E409E420FD1AF0008FA8A
:1002100007F624EA060602FA07F43443CE78282EBD
:1002200000D14361CE78482E00D103616D1C082DAA
:10023000E4D34460BDE8F081C06880B2704741619A
:100240007047C1607047FEE7FEE7704700214FF03E
:10025000006000F001B80000024A1140014302486A
:100260000160704780FFFF1F08ED00E0704700004D
:10027000044A0029916901D0014300E08143916162
:10028000704700000010024010B500F033F84FF442
:100290008034204600F078F800F0BEF8012828D11C
:1002A0001020FFF74FFF0220FFF758FF002000F05B
:1002B00061F8002000F08CF8A01100F07FF84FF4F6
:1002C000E011204600F094F8012000F08BF839206E
:1002D00000F030F80028FAD0022000F093F800BFB8
:1002E00000F040F80828FBD1BDE810400121FFF7DD
:1002F000BFBF10BD0C48016841F0010101604168B9
:100300000A4A114041600168094A114001600168D0
:1003100021F48021016042684FF41F0122F4FE02A3
:100320004260816070470000001002400000FFF84A
:10033000FFFFF6FE0246002053090949012B0BD0AE
:10034000022B0BD0D1F8241002F01F02012393409E
:100350000B4200D0012070470968F5E7096AF3E70E
:10036000001002400248406800F00C007047000096
:1003700000100240034A516821F0F001014351602E
:1003800070470000001002400B490A6822F48032D6
:100390000A600A68B0F5803F22F480220A6007D024
:1003A000B0F5802F03D1086840F4A02008607047A2
:1003B000086840F48030F9E700100240034A5168B1
:1003C00021F4E061014351607047000000100240D9
:1003D00003494A6822F4605242EAC000486070470C
:1003E00000100240014908667047000000004242C8
:1003F000034A5368084323F47C1318435060704742
:1004000000100240034A516821F00301014351608A
:10041000704700000010024030B500244FF4A06582
:100420003120FFF787FF641CAC4201D00028F7D0D1
:100430003120FFF77FFF002800D0012030BD70473A
:100440007047FEE702E008C8121F08C1002AFAD16F
:1004500070477047002001E001C1121F002AFBD144
:10046000704700004FF480784446FFF70DFFFFF718
:100470007FFEFFF7EBFE114E4FF47F413046FFF752
:10048000DEFE01254FF414173046FFF7D5FEC0B24B
:10049000204381B23046FFF7D4FE2DB16400B4F59D
:1004A000004F05D3002503E06408444500D801252A
:1004B0000020401CB842FCD3E6E70000000C0140DD
:1004C000D0040008000000200004000054040008CC
:04000005080000ED02
:00000001FF
