:020000040800F2
:1000000008040020010100082B050008BF020008B9
:100010002905000865010008C70800080000000065
:10002000000000000000000000000000C3080008FD
:100030006701000800000000DD060008C508000890
:100040001701000817010008170100081701000830
:100050001701000817010008170100081701000820
:100060001701000817010008170100081701000810
:100070001701000817010008170100081701000800
:1000800017010008170100081701000817010008F0
:1000900017010008170100081701000817010008E0
:1000A00017010008170100081701000817010008D0
:1000B00017010008170100081701000817010008C0
:1000C00017010008170100081701000817010008B0
:1000D00017010008170100081701000817010008A0
:1000E000170100081701000817010008DFF80CD0FD
:1000F00000F026F800480047E9080008080400203E
:1001000005480047FEE7FEE7FEE7FEE7FEE7FEE7FD
:10011000FEE7FEE7FEE7FEE7ED00000840EA010328
:100120009B0703D009E008C9121F08C0042AFAD2AD
:1001300003E011F8013B00F8013B521EF9D2704771
:10014000064C074D06E0E06840F0010394E8070024
:1001500098471034AC42F6D3FFF7CCFF200B0008D1
:10016000400B0008FEE7704704490A6822F01002BD
:100170000A600A6802430A607047000000200240DB
:10018000034A116801F03801014311607047000013
:100190000020024038B50F20ADF8000003248DF890
:1001A000024004258DF8035069460E4800F020F8FF
:1001B0004FF47F40ADF800008DF8024010208DF81C
:1001C00003006946084800F013F82020ADF800004D
:1001D0008DF802408DF803506946044800F008F895
:1001E00038BD000000080140000C01400010014033
:1001F0002DE9F041CA780025D30602F00F0201D59F
:100200008B781A430B884FF00F084FF0010C13F056
:10021000FF0F1CD0D0F800400E880CFA05F31E40EA
:100220009E4210D1AF0008FA07F624EA060602FA49
:1002300007F43443CE78282E02D0482E02D002E0B4
:10024000436100E003616D1C082DE5D304600B8859
:10025000FF2B1DD94468002505F108060CFA06F3AA
:100260000E881E409E420FD1AF0008FA07F624EA1E
:10027000060602FA07F43443CE78282E00D14361F3
:10028000CE78482E00D103616D1C082DE4D3446064
:10029000BDE8F0810246002092680A4200D00120A9
:1002A000704702460020D2680A4200D00120704701
:1002B000416170470AB10161704741617047FEE7D3
:1002C00000EB8110C0B240F0800000F0B5B8000033
:1002D00070B51F4841F60F411E4C0180032181700B
:1002E0001021C17001462046FFF782FF4FF4E05114
:1002F0002046FFF7DDFF18490020401C8842FCD350
:10030000002447F23055032000F0CCF80020401CB8
:10031000A842FCD3641CE4B2032CF4D3022000F006
:10032000C1F8002041F27071401C8842FCD32820A3
:1003300000F082F8082000F07FF8012000F07CF83F
:10034000062000F079F8BDE870400C2000F074B889
:100350000000002000100140E093040070B501226D
:10036000124E950229463046FFF7A4FF0821304679
:10037000FFF790FF044604213046FFF78BFF44EA65
:10038000400402213046FFF785FF44EA8004012142
:100390003046FFF77FFF44EAC000C4B2002229467E
:1003A0003046FFF787FF204670BD00000010014077
:1003B0002DE9F041134C0F2648202680124FE070A3
:1003C000002521463846FFF713FF0122D1023846A7
:1003D000FFF770FF0022B9143846FFF76BFFFFF7F5
:1003E000BDFF45EA0010C5B2FFF7B8FF0543268000
:1003F0001020E07021463846FFF7FAFE2846BDE897
:10040000F0810000000000200010014070B50D4692
:10041000402141EAC0001446C0B200F00DF8E806E1
:100420005FEA106514F8010B00F01EF86D1E15F060
:10043000FF05F7D170BD000010B5044600224FF44F
:10044000C0510848FFF736FF200900F02BF804F0F0
:100450000F0000F027F800BFFFF7AAFF0006FBD44B
:1004600010BD00000010014070B50D4D0446002283
:100470004FF400612846FFF71DFF012211032846B3
:10048000FFF718FF200900F00DF804F00F0000F04E
:1004900009F800BFFFF78CFF0006FBD470BD000019
:1004A0000010014070B50122124E04469502294603
:1004B0003046FFF7FFFE04F0010208213046FFF747
:1004C000F9FE04F0020204213046FFF7F3FE04F0C7
:1004D000040202213046FFF7EDFE04F0080201217C
:1004E0003046FFF7E7FE29463046BDE8704000225F
:1004F000FFF7E0BE0010014010B5044602E0641CA6
:10050000FFF7B2FF20780028F9D110BD10B50446DE
:1005100008461146FFF7D4FE02E0641CFFF7A4FF73
:1005200020780028F9D110BDFEE7704700214FF078
:10053000006000F001B80000024A11400143024887
:100540000160704780FFFF1F08ED00E070B5084DA7
:100550004FF4807421462846FFF7A3FEC0F1010046
:10056000C2B221462846BDE87040FFF7A3BE000096
:10057000000C014008B502208DF8000000220F2178
:100580006846FFF7C3FF08BD08B503208DF80000DB
:1005900000220F216846FFF7B9FF08BD08B5042007
:1005A0008DF8000000220F216846FFF7AFFF08BD5D
:1005B00070B5084D4FF4007421462846FFF771FED0
:1005C000C0F10100C2B221462846BDE87040FFF7E5
:1005D00071BE0000000C014070B5084D4FF48064FE
:1005E00021462846FFF75DFEC0F10100C2B2214658
:1005F0002846BDE87040FFF75DBE0000000C0140DA
:1006000070B5084D4FF4006421462846FFF749FEB7
:10061000C0F10100C2B221462846BDE87040FFF794
:1006200049BE0000000C014070B5084D4FF48054E5
:1006300021462846FFF735FEC0F10100C2B221462F
:100640002846BDE87040FFF735BE0000000C0140B1
:1006500070B5084D4FF4005421462846FFF721FE9F
:10066000C0F10100C2B221462846BDE87040FFF744
:1006700021BE0000000C014070B5084D4FF48044CD
:1006800021462846FFF70DFEC0F10100C2B2214607
:100690002846BDE87040FFF70DBE0000000C014089
:1006A00070B5084D4FF4004421462846FFF7F9FD88
:1006B000C0F10100C2B221462846BDE87040FFF7F4
:1006C000F9BD0000000C014008B501208DF80000C4
:1006D00000220F216846FFF719FF08BD7047000090
:1006E000044A0029916901D0014300E081439161EE
:1006F000704700000010024010B500F03DF84FF4C4
:100700008034204600F082F800F0C8F8012831D18A
:100710001020FFF729FD0220FFF732FD002000F036
:100720006BF8002000F096F8A01100F089F84FF463
:10073000E011204600F09EF8012000F095F83920E5
:1007400000F03AF80028FAD0022000F09DF800BF2F
:1007500000F04AF80828FBD101210420FFF7C0FF70
:1007600001210820FFF7BCFF0121BDE81040102047
:10077000FFF7B6BF10BD00000C48016841F0010151
:10078000016041680A4A114041600168094A11400C
:100790000160016821F48021016042684FF41F016B
:1007A00022F4FE02426081607047000000100240A7
:1007B0000000FFF8FFFFF6FE02460020530909493A
:1007C000012B0BD0022B0BD0D1F8241002F01F020A
:1007D000012393400B4200D0012070470968F5E7E0
:1007E000096AF3E7001002400248406800F00C007C
:1007F0007047000000100240034A516821F0F001E8
:100800000143516070470000001002400B490A6824
:1008100022F480320A600A68B0F5803F22F4802218
:100820000A6007D0B0F5802F03D1086840F4A020FB
:1008300008607047086840F48030F9E70010024013
:10084000034A516821F4E0610143516070470000A0
:100850000010024003494A6822F4605242EAC00094
:100860004860704700100240014908667047000068
:1008700000004242034A5368084323F47C131843A0
:100880005060704700100240034A516821F0030194
:1008900001435160704700000010024030B5002451
:1008A0004FF4A0653120FFF787FF641CAC4201D0F4
:1008B0000028F7D03120FFF77FFF002800D001206B
:1008C00030BD70477047FEE702E008C8121F08C13C
:1008D000002AFAD170477047002001E001C1121FC1
:1008E000002AFBD17047000094B001243022544903
:1008F0006846FFF713FC202252A10CA8FFF70EFC5C
:10090000FFF7FAFEFFF746FCFFF710FE4FF47F41BA
:100910005448FFF7CDFCFFF7DBFC0CAA04210120B3
:10092000FFF774FD0120FFF787FD4FA0FFF7E4FDFF
:100930000098FFF7E1FD4DA0FFF7DEFD6D460122B7
:1009400002210198FFF7E2FD494EDFF828814A4F66
:1009500002213046FFF79EFCD0B90C2C18D2641C43
:10096000E4B20120FFF768FD3FA0FFF7C5FD05EBEE
:10097000840050F8040CFFF7BFFD3CA0FFF7BCFD5E
:100980000C2C05D255F8240001220221FFF7BEFDF0
:1009900001213046FFF77EFCD0B9012C18D9641E26
:1009A000E4B20120FFF748FD2FA0FFF7A5FD05EBFE
:1009B000840050F8040CFFF79FFD2CA0FFF79CFD6E
:1009C0000C2C05D255F8240001220221FFF79EFDD0
:1009D00020214046FFF75EFC08BB0D2C29D2DFE842
:1009E00004F02828070A0D101316191C1F222500D1
:1009F000FFF7DEFD1FE0FFF7EFFD1CE0FFF700FE55
:100A000019E0FFF711FE16E0FFF722FE13E0FFF7F3
:100A100033FE10E0FFF744FE0DE0FFF755FE0AE05D
:100A2000FFF7A8FD07E0FFF7AFFD04E0FFF7B6FD15
:100A300001E0FFF78BFD0020401CB842FCD387E7A4
:100A40007C0A0008041F111111111F00041F11114D
:100A50001F1F1F00041F1F1F1F1F1F001F0A0A0444
:100A60000E0E1F00000C01403E200000203C000044
:100A7000000801400010014040420F00AC0A00088D
:100A8000B50A0008BE0A0008C70A0008D00A000814
:100A9000D90A0008E20A0008EB0A0008F40A000874
:100AA000FD0A0008070B0008120B000844696F6478
:100AB000612031000044696F6461203200004469A4
:100AC0006F64612033000044696F6461203400006A
:100AD00044696F64612035000044696F64612036A9
:100AE000000044696F64612037000044696F6461ED
:100AF000203800004261742E2030250000426174CD
:100B00002E2035302500004261742E2031303025F2
:100B100000004B6C65707379647261000000000026
:100B2000400B00080000002004000000C808000876
:100B3000440B00080400002004040000D80800084A
:040B400000000000B1
:04000005080000ED02
:00000001FF
