:020000040800F2
:10000000080400200101000833060008B3020008BC
:10001000310600086F010008110900080000000007
:10002000000000000000000000000000F5080008CB
:100030007F0100080000000057060008F7080008CC
:100040001309000855060008F908000849080008C7
:100050008F010008C1070008810100088501000820
:1000600087010008890100088B0100087101000860
:100070007301000875010008770100087901000884
:100080007B0100087D0100086D01000817010008D0
:100090001701000817010008170100088D0100086A
:1000A000FB08000801090008FF080008FD08000817
:1000B000030900080509000807090008B70200083D
:1000C000B5020008BB020008B90200084B0800088E
:1000D0004D080008090900080B0900080D0900086F
:1000E00083010008470800080F090008DFF80CD05A
:1000F00000F02AF800480047B10C0008080400206E
:1001000005480047FEE7FEE7FEE7FEE7FEE7FEE7FD
:10011000FEE7FEE7FEE7FEE7ED00000830B50B4620
:10012000014600202022012409E021FA02F59D4227
:1001300005D303FA02F5491B04FA02F52844151EFB
:10014000A2F10102F1DC30BD064C074D06E0E0688B
:1001500040F0010394E8070098471034AC42F6D30E
:10016000FFF7C8FF080F0008280F00087047FEE7D8
:1001700070477047704770477047704770477047C7
:1001800070477047704770477047704770477047B7
:1001900004490A6822F010020A600A6802430A60F1
:1001A0007047000000200240034A116801F0380146
:1001B00001431160704700000020024008B54FF471
:1001C0007F40ADF8000003208DF8020010208DF86C
:1001D00003006946014800F003F808BD000C014027
:1001E0002DE9F041CA780025D30602F00F0201D5AF
:1001F0008B781A430B884FF00F084FF0010C13F067
:10020000FF0F1CD0D0F800400E880CFA05F31E40FA
:100210009E4210D1AF0008FA07F624EA060602FA59
:1002200007F43443CE78282E02D0482E02D002E0C4
:10023000436100E003616D1C082DE5D304600B8869
:10024000FF2B1DD94468002505F108060CFA06F3BA
:100250000E881E409E420FD1AF0008FA07F624EA2E
:10026000060602FA07F43443CE78282E00D1436103
:10027000CE78482E00D103616D1C082DE4D3446074
:10028000BDE8F0810246002092680A4200D00120B9
:10029000704702460020D2680A4200D00120704711
:1002A00041617047016170470AB101617047416166
:1002B0007047FEE7704770477047704700EB81104A
:1002C000C0B240F0800000F09FB8000070B51F4839
:1002D00041F60F411E4C0180032181701021C17035
:1002E00001462046FFF77CFF4FF4E0512046FFF720
:1002F000D7FF18490020401C8842FCD3002447F255
:100300003055032000F0B6F80020401CA842FCD372
:10031000641CE4B2032CF4D3022000F0ABF80020FC
:1003200041F27071401C8842FCD3282000F06CF828
:10033000082000F069F8012000F066F8062000F0BF
:1003400063F8BDE870400C2000F05EB800000020AB
:1003500000100140E093040070B50122124E950296
:1003600029463046FFF7A0FF08213046FFF78AFFF5
:10037000044604213046FFF785FF44EA4004022189
:100380003046FFF77FFF44EA800401213046FFF743
:1003900079FF44EAC000C4B2002229463046FFF784
:1003A00083FF204670BD0000001001402DE9F041A0
:1003B000134C0F2648202680124FE070002521465E
:1003C0003846FFF70DFF0122D1023846FFF76CFFD8
:1003D0000022B9143846FFF767FFFFF7BDFF45EA73
:1003E0000010C5B2FFF7B8FF054326801020E0706B
:1003F00021463846FFF7F4FE2846BDE8F0810000AC
:10040000000000200010014010B5044600224FF407
:10041000C0510848FFF748FF200900F02BF804F00E
:100420000F0000F027F800BFFFF7C0FF0006FBD465
:1004300010BD00000010014070B50D4D04460022B3
:100440004FF400612846FFF72FFF012211032846D1
:10045000FFF72AFF200900F00DF804F00F0000F06C
:1004600009F800BFFFF7A2FF0006FBD470BD000033
:100470000010014070B50122124E04469502294633
:100480003046FFF711FF04F0010208213046FFF764
:100490000BFF04F0020204213046FFF705FF04F0D1
:1004A000040202213046FFF7FFFE04F0080201219A
:1004B0003046FFF7F9FE29463046BDE8704000227D
:1004C000FFF7F2BE0010014010B504460846114681
:1004D000FFF7F4FE02E0641CFFF7AEFF207800286F
:1004E000F9D110BD70B504460D46164600F0B6F9B8
:1004F000E92000F0EBF9FF2000F0E8F92070FF2080
:1005000000F0E4F9FF2000F0E1F92870FF2000F08E
:10051000DDF9FF2000F0DAF93070BDE8704000F03E
:1005200097B970B505460C4600F098F945F0800083
:1005300000F0CCF9FF2000F0C9F92070BDE8704050
:1005400000F086B910B500F089F9212000F0BEF95D
:10055000402000F0BBF9BDE8104000F079B9000080
:1005600010B586B0E020ADF8140018208DF8170003
:1005700003201A4C8DF8160005A92046FFF730FE1F
:100580001021ADF814108DF8171005A92046FFF7BB
:1005900027FE0020ADF800004FF48271ADF8021084
:1005A000ADF804000221ADF806100121ADF80810E5
:1005B0004902ADF80A103821ADF80C10ADF80E0064
:1005C0000720074CADF810006946204600F061F99D
:1005D0000121204600F048F906B010BD0008014096
:1005E0000030014008B5FFF7ADFF69462020FFF756
:1005F00098FF4721202000F00CF869462020FFF7E3
:1006000090FF9DF80000472801D0012008BD002080
:1006100008BD70B505460C4600F020F9284600F0EC
:1006200055F9204600F052F9BDE8704000F010B9CD
:10063000FEE7704700214FF0006000F001B80000B5
:10064000024A1140014302480160704780FFFF1FCA
:1006500008ED00E070477047044A0029916901D015
:10066000014300E0814391617047000000100240A7
:1006700010B500F041F84FF48034204600F086F8C1
:1006800000F0CEF8012835D11020FFF781FD0220BF
:10069000FFF78AFD002000F06FF8002000F09CF8C2
:1006A000A01100F08FF84FF4E011204600F0A4F8FC
:1006B000012000F09BF8392000F03EF80028FAD025
:1006C000022000F0A3F800BF00F04EF80828FBD18C
:1006D00001210420FFF7C0FF01210820FFF7BCFF24
:1006E00001211020FFF7B8FF0121BDE810400803E9
:1006F000FFF7B2BF10BD00000C48016841F00101D6
:10070000016041680A4A114041600168094A11408C
:100710000160016821F48021016042684FF41F01EB
:1007200022F4FE0242608160704700000010024027
:100730000000FFF8FFFFF6FE0246002053090949BA
:10074000012B0BD0022B0BD0D1F8241002F01F028A
:10075000012393400B4200D0012070470968F5E760
:10076000096AF3E7001002400248406800F00C00FC
:100770007047000000100240034A516821F0F00168
:100780000143516070470000001002400B490A68A5
:1007900022F480320A600A68B0F5803F22F4802299
:1007A0000A6007D0B0F5802F03D1086840F4A0207C
:1007B00008607047086840F48030F9E70010024094
:1007C00070470000034A516821F4E0610143516021
:1007D000704700000010024003494A6822F460524A
:1007E00042EAC000486070470010024001490866B4
:1007F0007047000000004242034A5368084323F454
:100800007C1318435060704700100240034A51683F
:1008100021F00301014351607047000000100240C5
:1008200030B500244FF4A0653120FFF785FF641C2C
:10083000AC4201D00028F7D03120FFF77DFF00281F
:1008400000D0012030BD70477047704770470000EE
:1008500010210148FFF726BD000801401021014882
:10086000FFF71EBD000801400029018802D041F0B9
:10087000400101E021F04001018070470246002064
:1008800012890A4200D00120704780897047818117
:10089000704770B502884D8802F441530A888C88ED
:1008A000CE882A4334430D8922434C892A438D89BB
:1008B0002243CC892A4322431A430280828B22F4AA
:1008C00000628283098A018270BD000010B5084C65
:1008D00001462046FFF7DBFF01212046FFF7CEFF50
:1008E0000028F9D02046FFF7D0FFC0B210BD0000AD
:1008F000003001407047704770477047704770473D
:10090000704770477047704770477047704770472F
:10091000FEE770470FB4084B10B504A902AA03986C
:1009200000F01CF8044602A9002000F0BBF92046A4
:1009300010BC5DF814FB0000A50C000802E008C81C
:10094000121F08C1002AFAD170477047002001E049
:1009500001C1121F002AFBD1704700002DE9FF4F93
:100960008DB005468846002667E125287AD1002407
:100970006D1CB64AA146A34601212B78203B01FA03
:1009800003F0104202D004436D1CF6E728782A28B1
:1009900010D06FF02F022878A0F13001092915D866
:1009A00009EB890102EB410144F0020400EB01096B
:1009B0006D1CF0E758F8049BB9F1000103DA44F428
:1009C0000054C1F1000944F002046D1C28782E285F
:1009D00017D115F8010F44F004042A280ED06FF047
:1009E0002F022878A0F1300109290AD80BEB8B01DE
:1009F00002EB410100EB010B6D1CF2E758F804BB60
:100A00006D1C28786C280FD006DC4C2817D068287D
:100A10000DD06A2814D104E0742810D07A280FD1A0
:100A20000DE044F400140AE044F4801401E044F4BE
:100A300040146978814202D16D1C04F580146D1C4C
:100A40002878692866D007DC002875D0632828D06C
:100A5000642807D15EE005E06E2808D073282AD00C
:100A600075287AD0DDE90F129047761CE4E0C4F3D4
:100A70000250022809D003280DD0D8F8001004280D
:100A80000DD00E6008F10408D6E0D8F80010F21777
:100A9000C1E90062F6E7D8F800100E80F2E70E70A8
:100AA000F0E758F8041B8DF8001000208DF80100C5
:100AB000EA46012003E058F804AB4FF0FF3061072D
:100AC0004FF0000701D40AE07F1C5F450DDA874232
:100AD000FADB1AF807100029F6D106E07F1C8742DE
:100AE000FCDB1AF807100029F8D1DDE90F23A9EB88
:100AF00007008146214600F0BEF83044C61904E0E4
:100B0000DDE90F121AF8010B90477F1EF8D221463B
:100B100048468CE00A2758F8040BC4F30251032915
:100B200000D100B2042900D140B2002806DAC0F199
:100B300000004FF02D0104E083E00EE0210504D514
:100B40002B218DF82C10012103E0E10710D020218A
:100B5000F7E70DF1200A099113E00A2758F8040B72
:100B6000C4F30251032900D180B2042900D1C0B2DC
:100B70000021EEE73946FFF7D1FA01F130020AF819
:100B8000012D0028F6D1ADEB0A0000F120000890FD
:100B9000600702D524F4803401E04FF0010B089A7D
:100BA00000205946934501DDA1EB0200834600EB8E
:100BB000020109980144A9EB01000A90E00306D460
:100BC000DDE90F2321460A9800F055F80644002776
:100BD0000DF12C0906E0DDE90F1219F80700904726
:100BE000761C7F1C09988742F5DBE0030CD5DDE914
:100BF0000F2321460A9800F03EF8064404E0DDE9A0
:100C00000F1230209047761CBBF10001ABF1010BB5
:100C1000F5DC05E0DDE90F121AF8010B9047761CB0
:100C20000899481E08900029F4DC0A982146DDE95D
:100C30000F2300F00DF806446D1C287800287FF47F
:100C400094AE11B03046BDE8F08F000009280100D5
:100C50002DE9F0410446002517461E46880405D4B8
:100C600006E039462020B04705F10105641EF8D59D
:100C70002846BDE8F0812DE9F041044600253027E3
:100C800090461E46C80300D42027880405D506E0F8
:100C900041463846B04705F10105641EF8D528469F
:100CA000BDE8F0810A68531C0B60107070470000AB
:100CB0008AB0002004900590FFF7DAFCFFF77EFA77
:100CC000FFF7B8FC7A4F4FF47F413846FFF7E8FA58
:100CD000FFF746FCFFF786FC20B9012211023846D7
:100CE000FFF7E2FA55213820FFF793FC0F213D2052
:100CF000FFF78FFC07213E20FFF78BFC11213B20E3
:100D0000FFF787FC02213C20FFF783FCFFF7DEFAA8
:100D10000120FFF779FB0022114666A0FFF7D4FB04
:100D20000022082165A0FFF7CFFB0122002165A06A
:100D3000FFF7CAFB0122082164A0FFF7C5FB654C41
:100D4000DFF894914FF064082D264FF4004A07AA6B
:100D500006A96846FFF7C6FB08A93920FFF7E1FBA3
:100D60009DF818109DF80000891C8DF818109DF84A
:100D70001C10001F491C8DF81C1040B257498DF8FB
:100D80000000414391FBF4F191FBF8F208FB1213D0
:100D900040F2D761484390FBF4F24546002B00DA5D
:100DA0005B42002A00DA52424DA104A8FFF7B2FDCF
:100DB0009DF90000002801DA8DF810600022022160
:100DC00004A8FFF781FB9DF918104848484390FBA1
:100DD000F4F090FBF5F205FB120340F2F762514389
:100DE00091FBF4F2002B00DA5B42002A00DA524257
:100DF0003BA104A8FFF78EFD9DF91800002801DA39
:100E00008DF8106000220A2104A8FFF75DFB9DF910
:100E10001C003749414391FBF4F191FBF5F205FBCE
:100E2000121340F2E761484390FBF4F2002B00DA22
:100E30005B42002A00DA524229A104A8FFF76AFDAA
:100E40009DF91C00002801DA8DF8106001220221B2
:100E500004A8FFF739FB9DF82000410624D541285E
:100E60000BD0442805D050280CD101220F2121A0FD
:100E700006E001220E2120A002E001220D211FA088
:100E8000FFF722FB554651463846FFF702FAC0F1FC
:100E90000100C2B229463846FFF706FA002049464B
:100EA000401C8842FCD352E701220D2114A0E7E741
:100EB000000C0140583A200000000000593A200080
:100EC000000000005A3A2000000000004B6C696BE3
:100ED0003A000000137F010080841E00FCAB02007A
:100EE000202531642E253032640000007CB80200D9
:100EF0003CB202005A0000005900000058000000F7
:100F00002020200000000000280F00080000002022
:100F1000040000003C0900082C0F00080400002019
:0C0F2000040400004C0900080000000060
:04000005080000ED02
:00000001FF
