:020000040800F2
:100000000804002001010008CF040008870200084E
:10001000CD04000841010008E106000800000000CE
:10002000000000000000000000000000DD060008E5
:100030004301000800000000F1040008DF0600088A
:100040001701000817010008170100081701000830
:100050001701000817010008170100081701000820
:100060001701000817010008170100081701000810
:100070001701000817010008170100081701000800
:1000800017010008170100081701000817010008F0
:1000900017010008170100081701000817010008E0
:1000A00017010008170100081701000817010008D0
:1000B00017010008170100081701000817010008C0
:1000C00017010008170100081701000817010008B0
:1000D00017010008170100081701000817010008A0
:1000E000170100081701000817010008DFF80CD0FD
:1000F00000F014F800480047010700080804002039
:1001000005480047FEE7FEE7FEE7FEE7FEE7FEE7FD
:10011000FEE7FEE7FEE7FEE7ED000008064C074DB0
:1001200006E0E06840F0010394E8070098471034C7
:10013000AC42F6D3FFF7DEFF0008000820080008F5
:10014000FEE7704704490A6822F010020A600A6854
:1001500002430A607047000000200240034A116811
:1001600001F0380101431160704700000020024097
:1001700038B50F20ADF8000003248DF802400420AC
:100180008DF8030069460E4800F020F84FF47F40D8
:10019000ADF800008DF8024010208DF8030069468C
:1001A000084800F013F82020ADF800008DF8024058
:1001B00048208DF803006946034800F007F838BD71
:1001C00000080140000C014000100140F0B5CA7861
:1001D000002502F00F03D20601D58A7813430C786C
:1001E0004FF00F0E0122ECB1D0F800400F8802FA58
:1001F00005F63740B74211D14FEA850C0EFA0CF7DD
:1002000024EA070703FA0CF43C43CF78282F02D0E6
:10021000482F02D002E0466100E006616D1C082D07
:10022000E4D304600C88FF2C1ED944685FF00006FC
:1002300006F1080702FA07F50F882F40AF420FD1E9
:100240004FEA860C0EFA0CF7BC4303FA0CF73C435A
:10025000CF78282F00D14561CF78482F00D1056194
:10026000761C082EE4D34460F0BD0246002092685C
:100270000A4200D001207047416170470AB1016114
:10028000704741617047FEE700EB8110C0B240F05B
:10029000800000F0B1B800007CB500248DF8044067
:1002A000264841F60F4100940180032181701021FE
:1002B000C170234D01462846FFF788FF4FF4E051F7
:1002C0002846FFF7D9FF1F4800940099491C009168
:1002D0008142FAD38DF8044047F230550DE00320F7
:1002E00000F0C0F800940098401C0090A842FAD397
:1002F0009DF80400401C8DF804009DF804000328BC
:10030000EDD3022000F0AEF841F270700094009935
:10031000491C00918142FAD3282000F06DF8082092
:1003200000F06AF8012000F067F8062000F064F899
:10033000BDE87C400C2000F05FB800000000002009
:1003400000100140E093040070B50122124E9502A6
:1003500029463046FFF792FF08213046FFF785FF18
:10036000044604213046FFF780FF44EA400402219E
:100370003046FFF77AFF44EA800401213046FFF758
:1003800074FF44EAC000C4B2002229463046FFF799
:1003900075FF204670BD0000001001402DE9F041BE
:1003A000134C0F2648202680124FE070002521466E
:1003B0003846FFF70BFF0122D1023846FFF75EFFF8
:1003C0000022B9143846FFF759FFFFF7BDFF45EA91
:1003D0000010C5B2FFF7B8FF054326801020E0707B
:1003E00021463846FFF7F2FE2846BDE8F0810000BE
:1003F000000000200010014010B5044600224FF418
:10040000C0510848FFF73AFF200900F02BF804F02C
:100410000F0000F027F800BFFFF7C0FF0006FBD475
:1004200010BD00000010014070B50D4D04460022C3
:100430004FF400612846FFF721FF012211032846EF
:10044000FFF71CFF200900F00DF804F00F0000F08A
:1004500009F800BFFFF7A2FF0006FBD470BD000043
:100460000010014070B50122124E04469502294643
:100470003046FFF703FF04F0010208213046FFF782
:10048000FDFE04F0020204213046FFF7F7FE04F0FF
:10049000040202213046FFF7F1FE04F008020121B8
:1004A0003046FFF7EBFE29463046BDE8704000229B
:1004B000FFF7E4BE0010014010B5044602E0641CE2
:1004C000FFF7B2FF20780028F9D110BDFEE7704792
:1004D00000214FF0006000F001B80000024A114016
:1004E000014302480160704780FFFF1F08ED00E0F4
:1004F00070470000044A0029916901D0014300E0DF
:1005000081439161704700000010024010B500F077
:100510003DF84FF48034204600F082F800F0C8F82F
:10052000012831D11020FFF70DFE0220FFF716FE43
:10053000002000F06BF8002000F096F8A01100F009
:1005400089F84FF4E011204600F09EF8012000F0F9
:1005500095F8392000F03AF80028FAD0022000F08F
:100560009DF800BF00F04AF80828FBD101210420C3
:10057000FFF7C0FF01210820FFF7BCFF0121BDE804
:1005800010401020FFF7B6BF10BD00000C480168F6
:1005900041F00101016041680A4A1140416001686F
:1005A000094A11400160016821F48021016041681D
:1005B00021F4FE0141604FF41F018160704700008B
:1005C000001002400000FFF8FFFFF6FE0246002088
:1005D00053090949012B0BD0022B0BD0D1F8241061
:1005E00002F01F02012393400B4200D0012070470C
:1005F0000968F5E7096AF3E700100240024840681D
:1006000000F00C007047000000100240034A5168DF
:1006100021F0F001014351607047000000100240DA
:100620000B490A6822F480320A600A6822F48022A8
:100630000A60B0F5803F07D0B0F5802F03D108687D
:1006400040F4A02008607047086840F48030F9E763
:1006500000100240034A516821F4E06101435160F7
:10066000704700000010024003494A6822F46052BB
:1006700042EAC00048607047001002400149086625
:100680007047000000004242034A5368084323F4C5
:100690007C1318435060704700100240034A5168B1
:1006A00021F0030101435160704700000010024037
:1006B00018B500204FF4A06400903120FFF786FFAA
:1006C0000099491C0091A14201D00028F5D03120A9
:1006D000FFF77CFF002800D0012018BD704770474D
:1006E000FEE702E008C8121F08C1002AFAD17047CD
:1006F0007047002001E001C1121F002AFBD17047A2
:1007000039A286B007CA8DE80700FFF7FFFEFFF7A2
:100710002FFDFFF7DDFE4FF47F413648FFF7ACFDBC
:10072000FFF7BAFD0F20FFF767FE0120FFF764FE19
:100730006846FFF7C1FE0026314630460396FFF7B4
:10074000A3FD2D4D2D4F6C4604212846FFF78DFD4E
:1007500038B903980A2804DA401C03901420FFF7E4
:100760004BFE08212846FFF780FD38B90398002882
:1007700004DD401E03901020FFF73EFE02212846B4
:10078000FFF773FD88B90398205C20280DD90399E1
:10079000401E60540120FFF72FFE6846FFF78CFED5
:1007A00003980021C0B2FFF76FFD01212846FFF733
:1007B0005CFD88B90398205CFF280DD20399401C8A
:1007C00060540120FFF718FE6846FFF775FE039896
:1007D0000021C0B2FFF758FD04960498401C049015
:1007E000B842FAD3B0E7000030313233342041420E
:1007F00043444500000C01400008014040420F0006
:10080000200800080000002004000000E2060008A4
:10081000240800080400002004040000F206000878
:0408200000000000D4
:04000005080000ED02
:00000001FF
