:020000040800F2
:10000000080400200101000821060008E30200089E
:100010001F06000867010008C90A00080000000068
:10002000000000000000000000000000AD0A000811
:10003000770100080000000057080008AF0A000818
:10004000CB0A000855080008B10A0008490A000850
:1000500087010008C1090008790100087D01000836
:100060007F01000881010008830100086901000880
:100070006B0100086D0100086F01000871010008A4
:1000800073010008750100086501000817010008E8
:100090001701000817010008170100088501000872
:1000A000B30A0008B90A0008B70A0008B50A000830
:1000B000BB0A0008BD0A0008BF0A0008E7020008E2
:1000C000E5020008EB020008E90200084B0A0008FC
:1000D0004D0A0008C10A0008C30A0008C50A000842
:1000E0007B010008470A0008C70A0008DFF80CD0A7
:1000F00000F026F800480047ED0A00080804002038
:1001000005480047FEE7FEE7FEE7FEE7FEE7FEE7FD
:10011000FEE7FEE7FEE7FEE7ED00000840EA010328
:100120009B0703D009E008C9121F08C0042AFAD2AD
:1001300003E011F8013B00F8013B521EF9D2704771
:10014000064C074D06E0E06840F0010394E8070024
:1001500098471034AC42F6D3FFF7CCFFF4100008F8
:10016000141100087047FEE77047704770477047EA
:1001700070477047704770477047704770477047C7
:10018000704770477047704704490A6822F01002B0
:100190000A600A6802430A607047000000200240BB
:1001A000034A116801F038010143116070470000F3
:1001B0000020024038B54FF47F40ADF80000032422
:1001C0008DF8024010208DF8030069460D4800F0BC
:1001D0001FF80F20ADF800008DF8024004258DF8BF
:1001E00003506946084800F013F82020ADF80000DD
:1001F0008DF802408DF803506946044800F008F875
:1002000038BD0000000C0140000801400010014012
:100210002DE9F041CA780025D30602F00F0201D57E
:100220008B781A430B884FF00F084FF0010C13F036
:10023000FF0F1CD0D0F800400E880CFA05F31E40CA
:100240009E4210D1AF0008FA07F624EA060602FA29
:1002500007F43443CE78282E02D0482E02D002E094
:10026000436100E003616D1C082DE5D304600B8839
:10027000FF2B1DD94468002505F108060CFA06F38A
:100280000E881E409E420FD1AF0008FA07F624EAFE
:10029000060602FA07F43443CE78282E00D14361D3
:1002A000CE78482E00D103616D1C082DE4D3446044
:1002B000BDE8F0810246002092680A4200D0012089
:1002C000704702460020D2680A4200D001207047E1
:1002D00041617047016170470AB101617047416136
:1002E0007047FEE7704770477047704770B500244D
:1002F0002146002000F0E2F80025002000F0BCF8C4
:100300006D1CEDB2542DF8D3641CE4B2062CEFD36F
:1003100070BD000030B587B0E020ADF814001820A3
:100320008DF817000320204D8DF8160005A92846EA
:10033000FFF76EFF1024ADF814408DF8174005A9A3
:100340002846FFF765FF4FF44070ADF814008DF8B4
:10035000174005A92846FFF75BFF4FF44040ADF872
:1003600000004FF48270ADF802000020ADF80400E8
:100370000221ADF806100121ADF808104902ADF8D0
:100380000A102021ADF80C10ADF80E000720074C24
:10039000ADF810006946204600F06CFB01212046B4
:1003A00000F055FB07B030BD0008014000300140AF
:1003B00070B51F4C4FF4807529462046FFF788FF23
:1003C0001C480022521C8242FCD329462046FFF7DB
:1003D00081FF10212046FFF77BFF4FF4007529466F
:1003E0002046FFF775FF212000F046F8052000F0B9
:1003F00043F8C82000F040F8062000F03DF8132034
:1004000000F03AF8202000F037F80C2000F034F823
:10041000402000F031F8802000F02EF81021204616
:10042000FFF758FF29462046BDE87040FFF752BF4E
:1004300000080140A086010070B50E4C0546102151
:100440002046FFF745FF661531462046FFF740FF7F
:10045000012D0DD05FF00C0000F00EF810212046A9
:10046000FFF738FF31462046BDE87040FFF732BF46
:100470000D20F1E70008014070B50E4C06468021C2
:10048000204600F0EEFA0128F9D00B4D1021284645
:10049000FFF71EFF3146204600F0EAFA8021204691
:1004A00000F0DFFA0128F9D02846BDE8704010219D
:1004B000FFF710BF00300140000801402DE9F04176
:1004C000114F05460C464FF4007631463846FFF78B
:1004D000FFFE10213846FFF7FBFE44F04000FFF717
:1004E000CBFF05EB45004006000E40F08000FFF713
:1004F000C3FF10213846FFF7EDFE31463846BDE810
:10050000F041FFF7E7BE0000000801402DE9F0418F
:100510000F4F04460D464FF4007631463846FFF73C
:10052000D7FE10213846FFF7D3FE45F04000FFF715
:10053000A3FF44F08000FFF79FFF10213846FFF72C
:10054000C9FE31463846BDE8F041FFF7C3BE0000A2
:100550000008014070B5064600210846FFF7D6FFA7
:100560000024E1B20020FFF7D1FF002516F8010BAF
:10057000FFF782FF6D1C542DF8D3641C062CF0D3BA
:10058000BDE870404FF400710148FFF7A3BE0000C2
:10059000000801402DE9F041203800EB40000D4DEE
:1005A00044004FF4007841462846FFF793FE10219F
:1005B0002846FFF78DFEA61D074F03E0385DFFF7C5
:1005C0005BFF641CB442F9D341462846BDE8F041C4
:1005D000FFF780BE00080140200E00082DE9F04121
:1005E000064601EB4100884647001546FCB211461D
:1005F0004046FFF763FF0DE0FFF7CCFFA41D761C1C
:10060000E4B2542C06D36D1CE9B20D464046FFF708
:1006100055FFFCB230780028EED1BDE8F081FEE74E
:10062000704700214FF00060AFF30080024A114094
:10063000014302480160704780FFFF1F08ED00E0A2
:100640002DE9F04F8BB0282239A16846FFF766FDEF
:1006500041A000680A90FFF749FEDFF800B16FF093
:100660001204E9460DF1280A002C03DAC4F100084F
:10067000002602E04FF000082646402C02DDC4F1BF
:10068000540700E014270221F0B2FFF73FFF454670
:1006900005E000BF19F80500FFF7EEFE6D1CBD4236
:1006A000F8DB452C0BDA201E00DA604200EBD0713B
:1006B00021F00101411A11F80A00FFF7DDFE0321C4
:1006C000F0B2FFF723FF08F1140504E019F8050064
:1006D000FFF7D2FE6D1C07F114008542F6DB452CB6
:1006E0000CDA201E00DA604200EBD07121F001012B
:1006F000411A01EB0A008078FFF7BEFE0020594640
:10070000401C8842FCD30221F0B2FFF7FFFE00201C
:10071000FFF7B2FE0321F0B2FFF7F8FE0020FFF76B
:10072000ABFE641C542C9FDB0BB0BDE8F08F0000C7
:10073000FC227521222C1020202030B0A8A8A8303F
:10074000202040800102030404040404050505057B
:100750000505050504040201FCC03F0380841E005A
:1007600010B5FFF7C3FD0022114611A0FFF736FFB9
:100770000122002112A0FFF731FF0222002114A064
:10078000FFF72CFF0322002115A0FFF727FF04220B
:10079000002117A0FFF722FF0522002118A0FFF774
:1007A0001DFF1B490020401C8842FCD310BD0000E7
:1007B0002020202044454D4F2020202020000000F4
:1007C0002077798F776965746C61637A61000000C6
:1007D00020207A2074656C65666F6E7520000000BD
:1007E00020204E4F4B494120333331302000000050
:1007F000202020206D6F64758C20202020000000B8
:1008000020204B416D6F64204C4344312000000098
:10081000C00E160210B50448FFF79CFE03490020E5
:10082000401C8842FCD310BD140C000840787D01A8
:1008300010B5074C207820B10020FFF7FDFD002007
:1008400003E00120FFF7F8FD0120207010BD00003B
:100850000000002070477047044A0029916901D0C8
:10086000014300E0814391617047000000100240A5
:1008700010B500F041F84FF48034204600F086F8BF
:1008800000F0CEF8012835D11020FFF77DFC0220C2
:10089000FFF786FC002000F06FF8002000F09CF8C5
:1008A000A01100F08FF84FF4E011204600F0A4F8FA
:1008B000012000F09BF8392000F03EF80028FAD023
:1008C000022000F0A3F800BF00F04EF80828FBD18A
:1008D00001210420FFF7C0FF01210820FFF7BCFF22
:1008E00001211020FFF7B8FF0121BDE810400803E7
:1008F000FFF7B2BF10BD00000C48016841F00101D4
:10090000016041680A4A114041600168094A11408A
:100910000160016821F48021016042684FF41F01E9
:1009200022F4FE0242608160704700000010024025
:100930000000FFF8FFFFF6FE0246002053090949B8
:10094000012B0BD0022B0BD0D1F8241002F01F0288
:10095000012393400B4200D0012070470968F5E75E
:10096000096AF3E7001002400248406800F00C00FA
:100970007047000000100240034A516821F0F00166
:100980000143516070470000001002400B490A68A3
:1009900022F480320A600A68B0F5803F22F4802297
:1009A0000A6007D0B0F5802F03D1086840F4A0207A
:1009B00008607047086840F48030F9E70010024092
:1009C00070470000034A516821F4E061014351601F
:1009D000704700000010024003494A6822F4605248
:1009E00042EAC000486070470010024001490866B2
:1009F0007047000000004242034A5368084323F452
:100A00007C1318435060704700100240034A51683D
:100A100021F00301014351607047000000100240C3
:100A200030B500244FF4A0653120FFF785FF641C2A
:100A3000AC4201D00028F7D03120FFF77DFF00281D
:100A400000D0012030BD70477047704770470029C3
:100A5000018802D041F0400101E021F04001018015
:100A600070470246002012890A4200D001207047D8
:100A70008181704770B502884D8802F441530A881D
:100A80008C88CE882A4334430D8922434C892A43DB
:100A90008D892243CC892A4322431A430280828BC8
:100AA00022F400628283098A018270BD7047704718
:100AB000704770477047704770477047704770477E
:100AC0007047704770477047FEE7704702E008C8FC
:100AD000121F08C1002AFAD170477047002001E0B8
:100AE00001C1121F002AFBD17047000086B001240B
:100AF000254614223D496846FFF710FBFFF7B8FE74
:100B0000FFF758FBFFF78DFD394E4FF47F4130461C
:100B1000FFF7DEFBFFF7FEFBFFF74AFCFFF7E6FB04
:100B2000DFF8D090DFF8D0B0DFF8D0A04FF4004865
:100B3000474641463046FFF7C4FBC0F10100C2B250
:100B400039463046FFF7C8FB01214F464846FFF7BC
:100B5000B1FB20B9012C02D9641EE4B201250221A7
:100B60003846FFF7A7FB20B9042C02D2641CE4B27C
:100B7000012520215846FFF79DFB18B3E5B100BFC2
:100B8000FFF7B4FB002211461DA0FFF727FD01254A
:100B90006F46A54204D1EAB200211DA0FFF71EFD59
:100BA00007EB8500EAB250F8040C0221FFF716FDAE
:100BB0006D1C042DEDD9002500205146401C8842B3
:100BC000FCD3B5E7012C08D0022C09D0032C0AD0A5
:100BD000042CD5D1FFF734FDD2E7FFF7C1FDCFE7F5
:100BE000FFF718FECCE7FFF723FEC9E70C0E00085D
:100BF000000C0140000801400010014060E31600B5
:100C000020202020204D454E55202020202000006F
:100C10003E00000000000000000000000000000096
:100C200000000000000000000000000000000000C4
:100C3000000000C0F0F8FCFCFCFCF8F0E000000054
:100C400000000000000000000000000000000000A4
:100C50000000000000000000000000000000000094
:100C60000000000000000000000000000000000084
:100C70000000000000000000000000000000000074
:100C8000000000C0F0FCFFFFFFFFFFFFFFFFFFFFC2
:100C9000FFFF38000000000000000000000000001E
:100CA0000000000000000000000000000000000044
:100CB0000000000000000000000000000000C0E094
:100CC000E0E0F0F0F0F8F8F8F8F8F8F8F8F8F8F8EC
:100CD000F0F0F0F0ECFCF8FFFFFFFFFFFFFFFFFF7D
:100CE000FFFFFFFFFFFEFEFEFEFEFEFCFCF0C0006D
:100CF00000000000000000000000000000000000F4
:100D000000000000000000000000000000000000E3
:100D100000000103070F0F1F1F3F3F7F7FFFFFFFF3
:100D2000FF7FFFFFFFFFFFFFFFFFFFFFFFFFFFFF53
:100D3000FFEF172F4F9F1F1F3F3F3F3F3F3F3F1F7B
:100D40001F0F030000000000000000000000000072
:100D50000000000000000000000000000000000093
:100D60000000000000000000000000000000000083
:100D700000000000003E7FFFFFFFFFFFFFFFFFFFBF
:100D8000FFFFFFFF3F0F0000C0F03060007070F009
:100D9000707000F0F08080F0F000603030E00060B3
:100DA0007030E000F0F030300080C0F00000E03043
:100DB00030E000603030E000000000000000000083
:100DC000000000000000000000000000010103031B
:100DD0000303030101010000000000003173677E7E
:100DE0001C00007F0000007F000F0F007F003060BC
:100DF000633F00707C6763007F7F03030001007F17
:100E000000003F60603F003060633F00D210000888
:100E1000D8100008DE100008E710000800000000ED
:100E200000000000000000002F0000000007000785
:100E30000000147F147F1400242A7F2A1200C4C8E3
:100E400010264600364955225000000503000000D8
:100E5000001C224100000041221C000014083E0832
:100E6000140008083E080800000050300000101070
:100E70001010100000606000000020100804020044
:100E80003E5149453E0000427F40000042615149C9
:100E900046002141454B31001814127F10002745B0
:100EA000454539003C4A49493000017109050300B4
:100EB000364949493600064949291E0000363600A0
:100EC00000000056360000000814224100001414EF
:100ED00014141400004122140800020151090600F4
:100EE000324959513E007E1111117E007F49494916
:100EF00036003E41414122007F4141221C007F4992
:100F0000494941007F09090901003E4149497A00E8
:100F10007F0808087F0000417F4100002040413FDA
:100F200001007F08142241007F40404040007F02C2
:100F30000C027F007F0408107F003E4141413E00CB
:100F40007F09090906003E4151215E007F091929E8
:100F5000460046494949310001017F0101003F40F7
:100F600040403F001F2040201F003F4038403F00CE
:100F700063140814630007087008070061514945AD
:100F80004300007F4141000002040810200000419E
:100F9000417F000004020102040040404040400044
:100FA0000001020400002054545478007F48444457
:100FB0003800384444442000384444487F003854C2
:100FC00054541800087E090102000C5252523E008F
:100FD0007F080404780000447D4000002040443D28
:100FE00000007F102844000000417F4000007C0486
:100FF000180478007C08040478003844444438001D
:101000007C1414140800081414187C007C080404D0
:101010000800485454542000043F444020003C4001
:1010200040207C001C2040201C003C4030403C0004
:101030004428102844000C5050503C004464544C48
:10104000440000083641000000007F00000000411D
:101050003608000000100810080000000000000022
:10106000205454D478003C42424324007F4949C96B
:101070004100107F444040007E0813207E003C4227
:1010800046433C00444A4A4B320062564B464200BB
:101090006959494D4B00205454D478003844444693
:1010A00020001C2A2A6A0C0000517F4400007C08A2
:1010B000040678003844444638004854545620000A
:1010C0004464564D44004464554C440000060909EC
:1010D0000600496E666F00004C6F676F00004E653A
:1010E00067617479770000416E696D61636A6100C0
:1010F000000000001411000800000020040000009F
:10110000CC0A0008181100080400002004040000A4
:08111000DC0A000800000000E9
:04000005080000ED02
:00000001FF
