:020000040800F2
:100000000804002001010008630700082F0500080C
:10001000610700089D030008C309000800000000F4
:10002000000000000000000000000000A709000818
:10003000AD0300080000000087070008A9090008B8
:10004000C509000885070008AB090008A1090008D8
:10005000BD03000819090008AF030008B303000836
:10006000B5030008B7030008B90300089F030008A0
:10007000A1030008A3030008A5030008A7030008C4
:10008000A9030008AB03000891010008170100084C
:10009000170100081701000817010008BB0300083A
:1000A000AD090008B3090008B1090008AF0900084C
:1000B000B5090008B7090008B909000833050008A8
:1000C000310500083705000835050008A3090008B8
:1000D000A5090008BB090008BD090008BF09000800
:1000E000B10300089F090008C1090008DFF80CD01F
:1000F00000F03CF800480047650D000808040020A7
:1001000005480047FEE7FEE7FEE7FEE7FEE7FEE7FD
:10011000FEE7FEE7FEE7FEE7ED00000840EA010328
:100120009B0703D009E008C9121F08C0042AFAD2AD
:1001300003E011F8013B00F8013B521EF9D2704771
:1001400030B50B46014600202022012409E021FAA7
:1001500002F59D4205D303FA02F5491B04FA02F5A4
:100160002844151EA2F10102F1DC30BD064C074DFA
:1001700006E0E06840F0010394E807009847103477
:10018000AC42F6D3FFF7B6FF200F0008400F00087F
:1001900070470029816802D041F0010101E021F09F
:1001A00001018160704700002DE9F04186B0002414
:1001B0004FF460280125CDE902842C4E4FF4C0276E
:1001C0008DF8044000978DF805508DF81050694661
:1001D000304600F071F8002301220E21304600F075
:1001E0008FF88DF804408DF805508DF81050CDE94A
:1001F00002841F4D00976946284600F05DF80023F1
:1002000001220F21284600F07BF80121284600F04A
:1002100031F801213046FFF7BCFF304600F0AAF864
:100220003446204600F041F80028FAD1204600F07C
:10023000B0F8204600F028F80028FAD101212C4619
:100240002846FFF7A6FF204600F094F8204600F06D
:100250002CF80028FAD1204600F09BF8204600F048
:1002600013F80028FAD106B0BDE8F081002401405F
:10027000002801400029816802D041F4801101E08A
:1002800021F4801181607047014600208968490788
:1002900000D501207047C06C80B270470246002034
:1002A00012680A4200D00120704701460020896888
:1002B000090700D50120704730B542680E4B0C7914
:1002C0001A400B6842EA04221343436083680B4AD6
:1002D0004D791340D1E9024243EA450322431A43D0
:1002E0008260C26A097C22F47002491EC9B242EAE5
:1002F0000151C16230BD0000FFFEF0FFFDF7F1FFCC
:1003000070B5072509290AD9C468A1F10A0606EBC8
:100310004606B540AC43B3401C43C46007E00469E3
:1003200001EB4106B540AC43B3401C4304611F23BD
:10033000072A09D2446B521E02EB820293409C436F
:1003400091400C43446370BD0D2A09D2046BD21F47
:1003500002EB820293409C4391400C43046370BDC6
:10036000C46A0D3A02EB820293409C4391400C43D5
:10037000C46270BD816841F0080181607047002946
:10038000816802D041F4A00101E021F4A001816064
:100390007047816841F0040181607047FEE7704753
:1003A0007047704770477047704770477047704795
:1003B000704770477047704770477047704700003C
:1003C00004490A6822F010020A600A6802430A60BF
:1003D0007047000000200240034A116801F0380114
:1003E00001431160704700000020024038B54FF40F
:1003F0007F40ADF8000003248DF8024010258DF8F1
:1004000003506946134800F02DF80F20ADF80000A6
:100410008DF8024004208DF8030069460E4800F074
:1004200021F83020ADF8000000208DF803008DF891
:1004300002406946094800F015F8FF20ADF80000B9
:100440008DF802408DF803506946054800F00AF81F
:1004500038BD0000000C01400008014000100140C0
:10046000001801402DE9F041CA780025D30602F0BA
:100470000F0201D58B781A430B884FF00F084FF00D
:10048000010C13F0FF0F1CD0D0F800400E880CFABE
:1004900005F31E409E4210D1AF0008FA07F624EA89
:1004A000060602FA07F43443CE78282E02D0482EEE
:1004B00002D002E0436100E003616D1C082DE5D32A
:1004C00004600B88FF2B1DD94468002505F1080640
:1004D0000CFA06F30E881E409E420FD1AF0008FAB8
:1004E00007F624EA060602FA07F43443CE78282EEB
:1004F00000D14361CE78482E00D103616D1C082DD8
:10050000E4D34460BDE8F0810246002092680A42CC
:1005100000D001207047C06880B2704741617047C9
:10052000C16070470AB10161704741617047FEE7E1
:10053000704770477047704700EB8110C0B240F0C1
:10054000800000F09FB8000070B51F4841F60F41D1
:100550001E4C0180032181701021C170014620468C
:10056000FFF780FF4FF4E0512046FFF7D7FF18490F
:100570000020401C8842FCD3002447F23055032061
:1005800000F0B6F80020401CA842FCD3641CE4B282
:10059000032CF4D3022000F0ABF8002041F270717C
:1005A000401C8842FCD3282000F06CF8082000F0A2
:1005B00069F8012000F066F8062000F063F8BDE855
:1005C00070400C2000F05EB80000002000100140D8
:1005D000E093040070B50122124E95022946304680
:1005E000FFF7A0FF08213046FFF78EFF04460421E5
:1005F0003046FFF789FF44EA400402213046FFF706
:1006000083FF44EA800401213046FFF77DFF44EA7E
:10061000C000C4B2002229463046FFF783FF2046BF
:1006200070BD0000001001402DE9F041134C0F2671
:1006300048202680124FE070002521463846FFF7FB
:1006400011FF0122D1023846FFF76CFF0022B914D6
:100650003846FFF767FFFFF7BDFF45EA0010C5B258
:10066000FFF7B8FF054326801020E070214638468A
:10067000FFF7F8FE2846BDE8F081000000000020EA
:100680000010014010B5044600224FF4C051084844
:10069000FFF748FF200900F02BF804F00F0000F0EE
:1006A00027F800BFFFF7C0FF0006FBD410BD000015
:1006B0000010014070B50D4D044600224FF400615A
:1006C0002846FFF72FFF012211032846FFF72AFFD4
:1006D000200900F00DF804F00F0000F009F800BF49
:1006E000FFF7A2FF0006FBD470BD00000010014020
:1006F00070B50122124E0446950229463046FFF796
:1007000011FF04F0010208213046FFF70BFF04F04F
:10071000020204213046FFF705FF04F00402022123
:100720003046FFF7FFFE04F0080201213046FFF7D4
:10073000F9FE29463046BDE870400022FFF7F2BEC0
:100740000010014010B5044608461146FFF7F4FEBC
:1007500002E0641CFFF7AEFF20780028F9D110BD3D
:10076000FEE7704700214FF0006000F001B8000084
:10077000024A1140014302480160704780FFFF1F99
:1007800008ED00E070477047034A516821F440418A
:10079000014351607047000000100240044A0029E4
:1007A000916901D0014300E08143916170470000ED
:1007B0000010024070B500F04BF84FF48034204632
:1007C00000F090F800F0D8F8012840D11020FFF791
:1007D000F7FD0220FFF700FE002000F079F800206E
:1007E00000F0A6F8A511284600F098F84FF4A011E3
:1007F000204600F0ADF8012000F0A4F8392000F008
:1008000047F80028FAD0022000F0ACF800F058F8C1
:100810000828FBD1C002FFF7B7FF01210420FFF732
:10082000BDFF01210820FFF7B9FF01211020FFF7CC
:10083000B5FF01214020FFF7B1FF01214802FFF77A
:10084000ADFF2846BDE870400121FFF7A7BF70BD8E
:100850000C48016841F00101016041680A4A1140F9
:1008600041600168094A11400160016821F480215A
:10087000016042684FF41F0122F4FE024260816071
:1008800070470000001002400000FFF8FFFFF6FE76
:100890000246002053090949012B0BD0022B0BD033
:1008A000D1F8241002F01F02012393400B4200D024
:1008B000012070470968F5E7096AF3E70010024074
:1008C0000248406800F00C00704700000010024031
:1008D000034A516821F0F001014351607047000064
:1008E000001002400B490A6822F480320A600A684C
:1008F000B0F5803F22F480220A6007D0B0F5802F47
:1009000003D1086840F4A02008607047086840F4EC
:100910008030F9E70010024070470000034A516838
:1009200021F4E06101435160704700000010024073
:1009300003494A6822F4605242EAC00048607047A6
:100940000010024001490866704700000000424262
:10095000034A5368084323F47C13184350607047DC
:1009600000100240034A516821F003010143516025
:10097000704700000010024030B500244FF4A0651D
:100980003120FFF785FF641CAC4201D00028F7D06E
:100990003120FFF77DFF002800D0012030BD7047D7
:1009A000704770477047704770477047704770478F
:1009B000704770477047704770477047704770477F
:1009C0007047FEE7704700000FB4084B10B504A94C
:1009D00002AA039800F01CF8044602A9002000F0C7
:1009E000BBF9204610BC5DF814FB0000590D00084F
:1009F00002E008C8121F08C1002AFAD170477047E8
:100A0000002001E001C1121F002AFBD17047000045
:100A10002DE9FF4F8DB005468846002667E1252861
:100A20007AD100246D1CB64AA146A34601212B7839
:100A3000203B01FA03F0104202D004436D1CF6E79C
:100A400028782A2810D06FF02F022878A0F13001E2
:100A5000092915D809EB890102EB410144F0020490
:100A600000EB01096D1CF0E758F8049BB9F1000197
:100A700003DA44F40054C1F1000944F002046D1C8F
:100A800028782E2817D115F8010F44F004042A28DD
:100A90000ED06FF02F022878A0F1300109290AD872
:100AA0000BEB8B0102EB410100EB010B6D1CF2E73C
:100AB00058F804BB6D1C28786C280FD006DC4C2835
:100AC00017D068280DD06A2814D104E0742810D0FB
:100AD0007A280FD10DE044F400140AE044F48014A5
:100AE00001E044F440146978814202D16D1C04F5A0
:100AF00080146D1C2878692866D007DC002875D022
:100B0000632828D0642807D15EE005E06E2808D06D
:100B100073282AD075287AD0DDE90F129047761C09
:100B2000E4E0C4F30250022809D003280DD0D8F81D
:100B3000001004280DD00E6008F10408D6E0D8F8A3
:100B40000010F217C1E90062F6E7D8F800100E8035
:100B5000F2E70E70F0E758F8041B8DF80010002043
:100B60008DF80100EA46012003E058F804AB4FF08D
:100B7000FF3061074FF0000701D40AE07F1C5F459A
:100B80000DDA8742FADB1AF807100029F6D106E0E1
:100B90007F1C8742FCDB1AF807100029F8D1DDE939
:100BA0000F23A9EB07008146214600F0BEF8304430
:100BB000C61904E0DDE90F121AF8010B90477F1EF9
:100BC000F8D2214648468CE00A2758F8040BC4F3B3
:100BD0000251032900D100B2042900D140B20028FB
:100BE00006DAC0F100004FF02D0104E083E00EE0D2
:100BF000210504D52B218DF82C10012103E0E107FC
:100C000010D02021F7E70DF1200A099113E00A27FF
:100C100058F8040BC4F30251032900D180B204290F
:100C200000D1C0B20021EEE73946FFF789FA01F1A1
:100C300030020AF8012D0028F6D1ADEB0A0000F1D0
:100C400020000890600702D524F4803401E04FF0C2
:100C5000010B089A00205946934501DDA1EB0200E3
:100C6000834600EB020109980144A9EB01000A90B8
:100C7000E00306D4DDE90F2321460A9800F055F879
:100C8000064400270DF12C0906E0DDE90F1219F8E2
:100C900007009047761C7F1C09988742F5DBE0032C
:100CA0000CD5DDE90F2321460A9800F03EF80644F2
:100CB00004E0DDE90F1230209047761CBBF1000103
:100CC000ABF1010BF5DC05E0DDE90F121AF8010BC1
:100CD0009047761C0899481E08900029F4DC0A9871
:100CE0002146DDE90F2300F00DF806446D1C28783D
:100CF00000287FF494AE11B03046BDE8F08F0000BC
:100D0000092801002DE9F0410446002517461E463A
:100D1000880405D406E039462020B04705F10105D6
:100D2000641EF8D52846BDE8F0812DE9F04104465F
:100D30000025302790461E46C80300D4202788048B
:100D400005D506E041463846B04705F10105641E69
:100D5000F8D52846BDE8F0810A68531C0B60107076
:100D6000704700008EB04F48D0E90012CDE90A125A
:100D7000D0E90210CDE90C104A492822103168460A
:100D8000FFF7CCF9FFF716FDFFF730FBFFF7EAFCA2
:100D9000FFF70AFADFF810814FF47F4421464046FE
:100DA000FFF7BCFBDFF804A121465046FFF7B6FB76
:100DB000FFF7CAFB0120FFF765FC002211463CA0AB
:100DC000FFF7C0FC012200213DA0FFF7BBFC404C17
:100DD00001212046FFF7D3FAA1466F4642F2107672
:100DE0004FF47A7B02214C464846FFF757FA002819
:100DF000F8D02046FFF74FFA044641F67B70604377
:100E0000B0FBF6F0B0FBFBF20BFB12035D4631A129
:100E10000AA8FFF7D9FD002207210AA8FFF792FCD4
:100E200004EBC400040B4046FFF775FB57F8241091
:100E3000C0B240EA012081B24046FFF771FB284C66
:100E400002212046FFF72AFA0028F9D02046FFF7B2
:100E500022FA044641F67B706043B0FBF6F0B0FB2B
:100E6000F5F205FB12031BA10CA8FFF7ADFD012253
:100E700007210CA8FFF766FC04EBC400040B5546E1
:100E80005046FFF748FB57F8241000F47F40014319
:100E900089B22846FFF744FB12490020401C8842D3
:100EA000FCD39FE7E80E0008000C01400018014049
:100EB000414443313A2020302C303030205600005D
:100EC000414443323A2020302C303030205600004C
:100ED0000024014025642C25303364205600000096
:100EE0000028014040420F003000000000000000D8
:100EF00030000000000000000000000001000000C1
:100F000003000000070000000F0000001F000000A9
:100F10003F0000007F000000FF000000FF00000015
:100F2000400F00080000002004000000F009000845
:100F3000440F00080400002004040000000A000818
:040F400000000000AD
:04000005080000ED02
:00000001FF
