:020000040800F2
:1000000008040020010100086B05000883020008B5
:100010006905000843010008970700080000000078
:100020000000000000000000000000007B07000846
:1000300053010008000000008F0500087D0700083C
:10004000990700088D0500087F070008750700085C
:1000500063010008ED060008550100085901000879
:100060005B0100085D0100085F0100084501000810
:1000700047010008490100084B0100084D01000834
:100080004F01000851010008410100081701000854
:100090001701000817010008170100086101000896
:1000A0008107000887070008850700088307000804
:1000B000890700088B0700088D07000887020008E1
:1000C000850200088B0200088902000877070008F3
:1000D000790700088F0700089107000893070008B8
:1000E000570100087307000895070008DFF80CD0D7
:1000F00000F014F800480047B90700080804002081
:1001000005480047FEE7FEE7FEE7FEE7FEE7FEE7FD
:10011000FEE7FEE7FEE7FEE7ED000008064C074DB0
:1001200006E0E06840F0010394E8070098471034C7
:10013000AC42F6D3FFF7DEFF500800087008000855
:100140007047FEE7704770477047704770477047C9
:1001500070477047704770477047704770477047E7
:100160007047704704490A6822F010020A600A6862
:1001700002430A607047000000200240034A1168F1
:1001800001F0380101431160704700000020024077
:1001900008B54FF47F40ADF8000003208DF8020051
:1001A00010208DF803006946014800F003F808BDEF
:1001B000000C01402DE9F041CA780025D30602F079
:1001C0000F0201D58B781A430B884FF00F084FF0C0
:1001D000010C13F0FF0F1CD0D0F800400E880CFA71
:1001E00005F31E409E4210D1AF0008FA07F624EA3C
:1001F000060602FA07F43443CE78282E02D0482EA1
:1002000002D002E0436100E003616D1C082DE5D3DC
:1002100004600B88FF2B1DD94468002505F10806F2
:100220000CFA06F30E881E409E420FD1AF0008FA6A
:1002300007F624EA060602FA07F43443CE78282E9D
:1002400000D14361CE78482E00D103616D1C082D8A
:10025000E4D34460BDE8F0810246002092680A427F
:1002600000D00120704702460020D2680A4200D028
:1002700001207047416170470AB1016170474161D7
:100280007047FEE7704770477047704738B50F20DA
:10029000ADF8000003248DF802401020094D8DF8C0
:1002A000030069462846FFF785FFF020ADF80000FF
:1002B0008DF8024028208DF8030069462846FFF794
:1002C00079FF38BD001801402DE9F047DFF8548070
:1002D0004FF0000ADFF850905446A8F104060122BE
:1002E000315D4846FFF7C8FF0E480025001D00EBB2
:1002F000840700BF18F805104846FFF7ADFF08B1A6
:1003000017F805A06D1CEDB2042DF3D3315D00226A
:100310004846FFF7B1FF641CE4B2042CDFD350461B
:10032000BDE8F0873C0800080018014000EB811090
:10033000C0B240F0800000F09FB8000070B51F48C8
:1003400041F60F411E4C0180032181701021C170C4
:1003500001462046FFF72EFF4FF4E0512046FFF7FD
:1003600089FF18490020401C8842FCD3002447F232
:100370003055032000F0B6F80020401CA842FCD302
:10038000641CE4B2032CF4D3022000F0ABF800208C
:1003900041F27071401C8842FCD3282000F06CF8B8
:1003A000082000F069F8012000F066F8062000F04F
:1003B00063F8BDE870400C2000F05EB8000000203B
:1003C00000100140E093040070B50122124E950226
:1003D00029463046FFF750FF08213046FFF73CFF23
:1003E000044604213046FFF737FF44EA4004022167
:1003F0003046FFF731FF44EA800401213046FFF721
:100400002BFF44EAC000C4B2002229463046FFF761
:1004100033FF204670BD0000001001402DE9F0417F
:10042000134C0F2648202680124FE07000252146ED
:100430003846FFF7BFFE0122D1023846FFF71CFF06
:100440000022B9143846FFF717FFFFF7BDFF45EA52
:100450000010C5B2FFF7B8FF054326801020E070FA
:1004600021463846FFF7A6FE2846BDE8F081000089
:10047000000000200010014010B5044600224FF497
:10048000C0510848FFF7F8FE200900F02BF804F0EF
:100490000F0000F027F800BFFFF7C0FF0006FBD4F5
:1004A00010BD00000010014070B50D4D0446002243
:1004B0004FF400612846FFF7DFFE012211032846B2
:1004C000FFF7DAFE200900F00DF804F00F0000F04D
:1004D00009F800BFFFF7A2FF0006FBD470BD0000C3
:1004E0000010014070B50122124E044695022946C3
:1004F0003046FFF7C1FE04F0010208213046FFF745
:10050000BBFE04F0020204213046FFF7B5FE04F002
:10051000040202213046FFF7AFFE04F00802012179
:100520003046FFF7A9FE29463046BDE8704000225C
:10053000FFF7A2BE0010014010B5044602E0641CA3
:10054000FFF7B2FF20780028F9D110BD10B504469E
:1005500008461146FFF7EAFE02E0641CFFF7A4FF1D
:1005600020780028F9D110BDFEE7704700214FF038
:10057000006000F001B80000024A11400143024847
:100580000160704780FFFF1F08ED00E07047704773
:10059000044A0029916901D0014300E0814391613F
:1005A000704700000010024010B500F03BF84FF417
:1005B0008034204600F080F800F0C8F8012830D1DF
:1005C0001020FFF7CFFD0220FFF7D8FD002000F03C
:1005D00069F8002000F096F8A01100F089F84FF4B7
:1005E000E011204600F09EF8012000F095F8392037
:1005F00000F038F80028FAD0022000F09DF800BF83
:1006000000F048F80828FBD10121FFF7C1FF0121C4
:100610001020FFF7BDFF0121BDE810404020FFF78B
:10062000B7BF10BD0C48016841F00101016041688D
:100630000A4A114041600168094A1140016001689D
:1006400021F48021016042684FF41F0122F4FE0270
:100650004260816070470000001002400000FFF817
:10066000FFFFF6FE0246002053090949012B0BD07B
:10067000022B0BD0D1F8241002F01F02012393406B
:100680000B4200D0012070470968F5E7096AF3E7DB
:10069000001002400248406800F00C007047000063
:1006A00000100240034A516821F0F00101435160FB
:1006B00070470000001002400B490A6822F48032A3
:1006C0000A600A68B0F5803F22F480220A6007D0F1
:1006D000B0F5802F03D1086840F4A020086070476F
:1006E000086840F48030F9E70010024070470000CD
:1006F000034A516821F4E0610143516070470000F2
:100700000010024003494A6822F4605242EAC000E5
:1007100048607047001002400149086670470000B9
:1007200000004242034A5368084323F47C131843F1
:100730005060704700100240034A516821F00301E5
:1007400001435160704700000010024030B50024A2
:100750004FF4A0653120FFF785FF641CAC4201D047
:100760000028F7D03120FFF77DFF002800D00120BE
:1007700030BD70477047704770477047704770478B
:1007800070477047704770477047704770477047B1
:10079000704770477047FEE7704702E008C8121FB5
:1007A00008C1002AFAD170477047002001E001C15A
:1007B000121F002AFBD1704708B500200090FFF7F8
:1007C000F3FEFFF7E5FCFFF7D1FE164C4FF47F4137
:1007D0002046FFF74FFDFFF759FDFFF7AFFD012062
:1007E000FFF74AFE10A0FFF7A7FE4FF40046114D99
:1007F000FFF76AFD8DF80000002209216846FFF727
:10080000A5FE31462046FFF72EFDC0F10100C2B221
:1008100031462046FFF730FD0021491CA942FCD398
:10082000E6E70000000C01404B6C617769737A3A8F
:1008300020000000B0710B0001020408102040806D
:100840003132334134353642373839432A30234444
:100850007008000800000020040000009A0700084B
:10086000740800080400002004040000AA0700081F
:040870000000000084
:04000005080000ED02
:00000001FF
