:020000040800F2
:100000004804002001010008FF040008E302000882
:10001000FD04000843010008930A000800000000E6
:100020000000000000000000000000004B08000875
:100030005301000800000000BB0500084D0800083F
:10004000950A0008B90500084F080008450800088F
:1000500063010008BD0700085501000859010008A8
:100060005B0100085D0100085F0100084501000810
:1000700047010008490100084B0100084D01000834
:100080004F01000851010008410100081701000854
:100090001701000817010008170100086101000896
:1000A00051080008570800085508000853080008C0
:1000B000590800085B0800085D080008E70200080E
:1000C000E5020008EB020008E90200084708000802
:1000D0004908000861080008010900080309000830
:1000E0005701000843080008910A0008DFF80CD007
:1000F00000F014F800480047B50A00084804002042
:1001000005480047FEE7FEE7FEE7FEE7FEE7FEE7FD
:10011000FEE7FEE7FEE7FEE7ED000008064C074DB0
:1001200006E0E06840F0010394E8070098471034C7
:10013000AC42F6D3FFF7DEFFAC0B0008CC0B000897
:100140007047FEE7704770477047704770477047C9
:1001500070477047704770477047704770477047E7
:100160007047704704490A6822F010020A600A6862
:1001700002430A607047000000200240034A1168F1
:1001800001F0380101431160704700000020024077
:10019000F8B54FF47F40ADF8000003248DF802401D
:1001A00010258DF803506946194800F035F80F20E6
:1001B000ADF80000174F8DF8024004268DF803605B
:1001C0006946384600F028F86801ADF800008DF85F
:1001D000024018208DF803006946384600F01CF8EC
:1001E000A801ADF800008DF802408DF80360694663
:1001F000384600F011F8E801ADF800008DF8024033
:100200008DF803506946384600F006F8F8BD000046
:10021000000C0140000801402DE9F041CA7800259A
:10022000D30602F00F0201D58B781A430B884FF0EA
:100230000F084FF0010C13F0FF0F1CD0D0F8004056
:100240000E880CFA05F31E409E4210D1AF0008FA4A
:1002500007F624EA060602FA07F43443CE78282E7D
:1002600002D0482E02D002E0436100E003616D1C21
:10027000082DE5D304600B88FF2B1DD944680025A9
:1002800005F108060CFA06F30E881E409E420FD1B7
:10029000AF0008FA07F624EA060602FA07F4344328
:1002A000CE78282E00D14361CE78482E00D103614C
:1002B0006D1C082DE4D34460BDE8F08102460020A7
:1002C00092680A4200D001207047C06880B270472F
:1002D00041617047016170470AB101617047416136
:1002E0007047FEE7704770477047704770B51F480A
:1002F00041F60F411E4C0180032181701021C17015
:1003000001462046FFF788FF4FF4E0512046FFF7F3
:10031000DFFF18490020401C8842FCD3002447F22C
:100320003055032000F0B6F80020401CA842FCD352
:10033000641CE4B2032CF4D3022000F0ABF80020DC
:1003400041F27071401C8842FCD3282000F06CF808
:10035000082000F069F8012000F066F8062000F09F
:1003600063F8BDE870400C2000F05EB81800002073
:1003700000100140E093040070B50122124E950276
:1003800029463046FFF7A8FF08213046FFF796FFC1
:10039000044604213046FFF791FF44EA400402215D
:1003A0003046FFF78BFF44EA800401213046FFF717
:1003B00085FF44EAC000C4B2002229463046FFF758
:1003C0008BFF204670BD0000001001402DE9F04178
:1003D000134C0F2648202680124FE070002521463E
:1003E0003846FFF719FF0122D1023846FFF774FFA4
:1003F0000022B9143846FFF76FFFFFF7BDFF45EA4B
:100400000010C5B2FFF7B8FF054326801020E0704A
:1004100021463846FFF700FF2846BDE8F08100007E
:10042000180000200010014010B5044600224FF4CF
:10043000C0510848FFF750FF200900F02BF804F0E6
:100440000F0000F027F800BFFFF7C0FF0006FBD445
:1004500010BD00000010014070B50D4D0446002293
:100460004FF400612846FFF737FF012211032846A9
:10047000FFF732FF200900F00DF804F00F0000F044
:1004800009F800BFFFF7A2FF0006FBD470BD000013
:100490000010014070B50122124E04469502294613
:1004A0003046FFF719FF04F0010208213046FFF73C
:1004B00013FF04F0020204213046FFF70DFF04F0A1
:1004C000040202213046FFF707FF04F00802012171
:1004D0003046FFF701FF29463046BDE87040002254
:1004E000FFF7FABE0010014010B5044602E0641C9C
:1004F000FFF7B2FF20780028F9D110BDFEE7704762
:1005000008B500214FF0006000F04CF84FF4C060D7
:1005100000F03EF825208DF8000000208DF8010045
:100520008DF8020001208DF80300684600F001F804
:1005300008BDF0B50F22C57803784FF0E021012403
:10054000E5B1D1F80C5D467805F4E065C5F5E065E8
:100550002D0AC5F10407EA408578BE4015403543B1
:100560000B442A0183F800240078420900F01F00A0
:10057000844001EB8200C0F80041F0BD03F01F0091
:100580008440580901EB8000C0F88041F0BD0000B4
:100590000249084302490860704700000000FA055C
:1005A0000CED00E0024A114001430248016070472F
:1005B00080FFFF1F08ED00E070477047044A0029E4
:1005C000916901D0014300E08143916170470000CF
:1005D0000010024010B500F041F84FF4803420467E
:1005E00000F0D2F800F01AF9012835D11020FFF7F9
:1005F000B9FD0220FFF7C2FD002000F0BBF800208B
:1006000000F0E8F8A01100F0DBF84FF4E01120460C
:1006100000F0F0F8012000F0E7F8392000F08AF847
:100620000028FAD0022000F0EFF800BF00F09AF89E
:100630000828FBD101210420FFF7C0FF0121082079
:10064000FFF7BCFF01211020FFF7B8FF0121BDE833
:1006500010408803FFF7B2BF10BD00000C480168CE
:1006600041F00101016041680A4A1140416001689E
:10067000094A11400160016821F48021016042684B
:100680004FF41F0122F4FE024260816070470000B7
:10069000001002400000FFF8FFFFF6FE214910B5F0
:1006A0004B68214A13F00C0303D0042B01D0082B14
:1006B00026D002604A681D4B02F0F00212099C5CD1
:1006C0000268E24042604C6804F4E064240A1C5D65
:1006D00022FA04F484604C6804F460544FEAD42491
:1006E0001B5D22FA03F2C2604968104B01F44041DD
:1006F0004FEA91311B1F595CB2FBF1F1016110BD52
:100700004A684B68022402F4701204EB924213F41C
:10071000803F02D04B689B0301D5054B00E0024BA4
:100720005A43C6E70010024000127A002000002061
:1007300000093D000246002053090949012B0BD056
:10074000022B0BD0D1F8241002F01F02012393409A
:100750000B4200D0012070470968F5E7096AF3E70A
:10076000001002400248406800F00C007047000092
:1007700000100240034A516821F0F001014351602A
:1007800070470000001002400B490A6822F48032D2
:100790000A600A68B0F5803F22F480220A6007D020
:1007A000B0F5802F03D1086840F4A020086070479E
:1007B000086840F48030F9E70010024070470000FC
:1007C000034A516821F4E061014351607047000021
:1007D0000010024003494A6822F4605242EAC00015
:1007E00048607047001002400149086670470000E9
:1007F00000004242034A5368084323F47C13184321
:100800005060704700100240034A516821F0030114
:1008100001435160704700000010024030B50024D1
:100820004FF4A0653120FFF785FF641CAC4201D076
:100830000028F7D03120FFF77DFF002800D00120ED
:1008400030BD7047704770477047704770477047BA
:100850007047704770477047704770477047000097
:100860002DE9F041204E40F22551304600F076F857
:10087000002478B1304600F003F91D49C3B21B488B
:100880000A780D2B835424D0521CD0B20870102843
:1008900000D90C7040F227784146304600F05EF8EF
:1008A000002814D0144D134F2878395C401C287050
:1008B000304600F0E9F82878384410F8010C0D288B
:1008C00005D100224146304600F067F82C70BDE8A3
:1008D000F0810A4B01221A7002E08454521C0A7003
:1008E0000A78112AF9D3D4E70038014030000020FB
:1008F000000000200200002016000020010000205F
:10090000704770470029818902D041F4005101E00D
:1009100021F40051818170471FB54FF4964000903B
:100920000020ADF80400ADF80600ADF80800ADF801
:100930000C000C20084CADF80A006946204600F077
:1009400045F8012240F22551204600F026F8012109
:100950002046FFF7D7FF1FBD0038014070B501F0FA
:100960001F0601220025C1F3421302FA06F4012BEF
:100970000FD0022B0FD0838A4FEA11210088234227
:1009800002FA01F200EA020001D000B10125284676
:1009900070BD8389F0E7038AEEE710B5C1F3421317
:1009A00001F01F040121A140012B07D0022B07D029
:1009B0001430002A026805D00A4304E00C30F8E73E
:1009C0001030F6E78A43026010BD000030B50446DF
:1009D000008A85B00D464CF6FF710840E988014356
:1009E0002182A1894EF6F3100140A8882A8910437C
:1009F0006A890A431043A081A08A4FF6FF4108404C
:100A0000A9890143A1826846FFF748FE1B4884423A
:100A100001D1039800E00298A1890904002900EBA4
:100A2000C00101EB0010296802DA4FEA410101E040
:100A30004FEA8101B0FBF1F06422B0FBF2F14FEA22
:100A400001114FEA11136FF018056B43A58900EBF4
:100A500083004FF032032D0406D503EBC000B0FB3A
:100A6000F2F000F0070005E003EB0010B0FBF2F03D
:100A700000F00F000843208105B030BD0038014070
:100A80008088C0F308007047C1F308018180704777
:100A90007047FEE7704702E008C8121F08C1002A2D
:100AA000FAD170477047002001E001C1121F002AEF
:100AB000FBD17047FFF78EFDFFF76AFBFFF720FDC4
:100AC000FFF72AFFFFF712FC0120FFF7ADFC2FA074
:100AD000FFF70AFD4FF400612E48FFF7FBFB2E4E97
:100AE0002E4CDFF8BC802F4F4FF48079751C307886
:100AF000C0B30120FFF798FC2848FFF7F5FC002061
:100B000030704046FFF7E1FB20783F281AD04C2890
:100B100001D06C2835D160782B2807D1A1783139E4
:100B200009FA01F081B24046FFF7D4FB60782D2826
:100B300027D1A178313909FA01F081B24046FFF797
:100B4000C7FB1EE04046FFF7C0FB010A00204F2212
:100B50005FF02E035FEAC17CC0F1120C03D005F8F0
:100B60000C2002E00EE005F80C304908401C082873
:100B7000F0D30D20E874012240F227710A48FFF7F4
:100B80000CFF0020401CB842FCD3B0E7476F746FE5
:100B900077790000000801400100002030000020AB
:100BA000000C014080841E0000380140CC0B00087E
:100BB0000000002030000000960A0008FC0B00082E
:100BC0003000002018040000A60A0008000053743A
:100BD000616E2064696F643A202E2E2E2E2E2E2EEA
:100BE0002E000000000000000204060800000000C3
:0C0BF000010203040102030406070809C7
:04000005080000ED02
:00000001FF
