:020000040800F2
:1000000008040020010100085F030008E302000863
:100010005D03000867010008E90E00080000000009
:10002000000000000000000000000000E3080008DD
:100030007701000800000000EB060008E508000852
:10004000EB0E0008E9060008E7080008DD080008D4
:100050008701000855080008790100087D010008A3
:100060007F01000881010008830100086901000880
:100070006B0100086D0100086F01000871010008A4
:1000800073010008750100086501000817010008E8
:100090001701000817010008170100088501000872
:1000A000D30E0008D90E0008D70E0008D50E0008A0
:1000B000DB0E0008DD0E0008DF0E0008E702000876
:1000C000E5020008EB020008E9020008DF0800086A
:1000D000E1080008E10E0008E30E0008E50E000844
:1000E0007B010008DB080008E70E0008DFF80CD0F1
:1000F00000F026F8004800470D0F00080804002013
:1001000005480047FEE7FEE7FEE7FEE7FEE7FEE7FD
:10011000FEE7FEE7FEE7FEE7ED00000840EA010328
:100120009B0703D009E008C9121F08C0042AFAD2AD
:1001300003E011F8013B00F8013B521EF9D2704771
:10014000064C074D06E0E06840F0010394E8070024
:1001500098471034AC42F6D3FFF7CCFF9841000823
:10016000B84100087047FEE7704770477047704716
:1001700070477047704770477047704770477047C7
:10018000704770477047704704490A6822F01002B0
:100190000A600A6802430A607047000000200240BB
:1001A000034A116801F038010143116070470000F3
:1001B0000020024038B54FF47F40ADF80000032422
:1001C0008DF8024010208DF8030069460D4800F0BC
:1001D0001FF80F20ADF800008DF8024004258DF8BF
:1001E00003506946084800F013F82020ADF80000DD
:1001F0008DF802408DF803506946044800F008F875
:1002000038BD0000000C0140000801400010014012
:100210002DE9F041CA780025D30602F00F0201D57E
:100220008B781A430B884FF00F084FF0010C13F036
:10023000FF0F1CD0D0F800400E880CFA05F31E40CA
:100240009E4210D1AF0008FA07F624EA060602FA29
:1002500007F43443CE78282E02D0482E02D002E094
:10026000436100E003616D1C082DE5D304600B8839
:10027000FF2B1DD94468002505F108060CFA06F38A
:100280000E881E409E420FD1AF0008FA07F624EAFE
:10029000060602FA07F43443CE78282E00D14361D3
:1002A000CE78482E00D103616D1C082DE4D3446044
:1002B000BDE8F0810246002092680A4200D0012089
:1002C000704702460020D2680A4200D001207047E1
:1002D00041617047016170470AB101617047416136
:1002E0007047FEE7704770477047704738B5072082
:1002F000ADF8000003248DF8024004200B4D8DF86A
:10030000030069462846FFF783FF0820ADF8000088
:100310008DF8024010208DF8030069462846FFF74B
:1003200077FF08212846FFF7D5FF38BD00180140A8
:1003300070B5094D04212846FFF7BCFF8400022157
:100340002846FFF7B7FF04EB400401212846FFF7DA
:10035000B1FF2044C0B270BD00180140FEE77047F5
:1003600000214FF0006000F001B80000024A114087
:10037000014302480160704780FFFF1F08ED00E065
:1003800008B500230093002183231C22084600F0B7
:1003900078FB4FF4706300938323362200211D20E5
:1003A00000F06FFBF02300938323502200213720BD
:1003B00000F067FB0F23009383236A220021512062
:1003C00000F05FFB40F6FF73009383231A46002181
:1003D0006B2000F056FB03490020401C8842FCD3F0
:1003E00008BD000040787D011CB50F2000F0E5FA43
:1003F000264B0F22CDE9002340F6FF7423460A2244
:100400000D2123A000F0E4FC204B0F22CDE90023B6
:1004100023461A220A2122A000F0DAFC1B4B0F22ED
:10042000CDE9002323462A220A2121A000F0D0FC96
:10043000164B0F22CDE9002323463A220A2120A0A1
:1004400000F0C6FC114B0F22CDE9002323464A22BF
:100450000D211FA000F0BCFC0C4B0F22CDE90023A6
:1004600023465A220A211EA000F0B2FC204B0F2284
:10047000CDE9002323466E220A211EA000F0A8FC2D
:1004800021490020401C8842FCD31CBD0C3A0008C6
:100490002020202044454D4F202020202000000017
:1004A0002077798F776965746C61637A61000000E9
:1004B00020207A2074656C65666F6E7520000000E0
:1004C00020204E4F4B49412036363130200000006D
:1004D000202020206D6F64758C20202020000000DB
:1004E00020204B416D6F64205446543220000000A0
:1004F0006C360008656B72616E20696E666F726D96
:100500006163796A6E790000C00E16027CB5002026
:1005100000F053FA4FF4706400211223832208463E
:10052000009400F0AEFA294B0222CDE9004340F6D8
:10053000FF73122126A000F04BFC00247F254FF40E
:10054000805600BFC4F3981105EA440014310B46ED
:10055000421C009400F095FA641CB442F2D30024CB
:10056000082501262302009305EBC40206EBC40014
:1005700061235A2100F085FA2301009305EBC402A0
:1005800006EBC4006923622100F07BFA05EBC4028C
:1005900006EBC40071236A21009400F072FA200275
:1005A00000EB04100319009305EBC40206EBC40032
:1005B0007923722100F065FA641C0F2CD2D9084906
:1005C0000020401C8842FCD37CBD00000C3A00088F
:1005D00034303936204B4F4C4F52855700000000C5
:1005E00000E1F50510B5074C207820B1202000F07F
:1005F00063FB002003E0212000F05EFB012020705F
:1006000010BD0000000000201CB5002000F0D5F94E
:100610004FF470640021122383220846009400F0F6
:1006200030FA274B0222CDE9004340F6FF73262122
:1006300024A000F0CDFBE31D14223221412000F064
:10064000C5F940F6E3742346142232212C2000F031
:100650004BF9234614223221562000F045F9E023BD
:10066000009369236E224B215A2000F00AFA50238E
:10067000009369236E224B215A2000F0B5FA5023D3
:1006800000934B236E2269215A2000F0ADFA3023EB
:1006900000933223502205210D4800F055FB0D4BED
:1006A0000022CDE900235F2378222D210AA000F04B
:1006B0008FFB0C490020401C8842FCD31CBD00006D
:1006C0000C3A0008525953554E454B0000000000AB
:1006D000EC1000086C36000853544D33324631306C
:1006E0003300000000E1F50570477047044A002917
:1006F000916901D0014300E081439161704700009E
:100700000010024010B500F041F84FF4803420464C
:1007100000F086F800F0CEF8012835D11020FFF760
:1007200033FD0220FFF73CFD002000F06FF80020B1
:1007300000F09CF8A01100F08FF84FF4E011204673
:1007400000F0A4F8012000F09BF8392000F03EF8FA
:100750000028FAD0022000F0A3F800BF00F04EF805
:100760000828FBD101210420FFF7C0FF0121082048
:10077000FFF7BCFF01211020FFF7B8FF0121BDE802
:1007800010404020FFF7B2BF10BD00000C480168C8
:1007900041F00101016041680A4A1140416001686D
:1007A000094A11400160016821F48021016042681A
:1007B0004FF41F0122F4FE02426081607047000086
:1007C000001002400000FFF8FFFFF6FE0246002086
:1007D00053090949012B0BD0022B0BD0D1F824105F
:1007E00002F01F02012393400B4200D0012070470A
:1007F0000968F5E7096AF3E700100240024840681B
:1008000000F00C007047000000100240034A5168DD
:1008100021F0F001014351607047000000100240D8
:100820000B490A6822F480320A600A68B0F5803FFA
:1008300022F480220A6007D0B0F5802F03D1086827
:1008400040F4A02008607047086840F48030F9E761
:100850000010024070470000034A516821F4E06133
:1008600001435160704700000010024003494A688C
:1008700022F4605242EAC000486070470010024013
:10088000014908667047000000004242034A53686D
:10089000084323F47C131843506070470010024053
:1008A000034A516821F00301014351607047000081
:1008B0000010024030B500244FF4A0653120FFF74E
:1008C00085FF641CAC4201D00028F7D03120FFF72F
:1008D0007DFF002800D0012030BD70477047704771
:1008E00070477047704770472DE9FF4F064650002C
:1008F00083B00F461446C2F101084FF00009C0F161
:10090000000A11444D463046069A00F0B6F9391BEC
:100910003046069A00F0B1F930193946069A00F0CF
:10092000ACF9301B3946069A40E000BFB8F1000F21
:1009300003DB0AF1020A641ED04409F1020908EB44
:1009400009006D1C00F1010807EB040B7019009001
:100950005946069A00F091F9701B01905946069A83
:1009600000F08BF9381B83460146069A009800F088
:1009700084F95946069A019800F07FF907EB050BB8
:10098000301900905946069A00F077F9301B019013
:100990005946069A00F071F9781B83460146069A7B
:1009A000009800F06AF95946069A019800F065F936
:1009B000A542BBDB07B0BDE8F08F08B5832300215B
:1009C00000901A46084600F05CF808BD2DE9FF4F7C
:1009D00083B00646069B500000930F468B1A1446C0
:1009E000C2F101084FF00009C0F1000A11444D4660
:1009F0003246304600F045F830193946069A00F084
:100A00003CF9301B3946069A00F037F934E000BF54
:100A1000B8F1000F03DB0AF1020A641ED04409F1A9
:100A2000020908EB090000F10108381B069BCDE91B
:100A300000306D1C701939198B460246019B00F07D
:100A400020F8069B701B009302465946019B00F05C
:100A500018F8781B069BCDE90030301979198B46C0
:100A60000246019B00F00DF8069B301B00930246E6
:100A70005946019B00F005F8A542C9DB07B0BDE867
:100A8000F08F2DE9F0470546DDF820800C4616462C
:100A90001F46904201DD2E461546BC4201DD0F4641
:100AA0001C462A2000F008F9E8B200F013F9F0B271
:100AB00000F010F92B2000F0FFF8E0B200F00AF986
:100AC000F8B200F007F92C2000F0F6F8701B401C7B
:100AD0003B1BC8F30B085B1C584308F00F01C8F31D
:100AE0000322012300EBD0704FF00009C8F3071A6E
:100AF00003EB600542EA01160BE04446504600F065
:100B0000E9F8304600F0E6F8E0B200F0E3F809F169
:100B100001094D45F1D8BDE8F047002000F0CCB800
:100B200038B5E020ADF8000010248DF80340032014
:100B30000C4D8DF8020069462846FFF769FBADF8B9
:100B400000408DF8034069462846FFF761FB20010D
:100B5000ADF800008DF8034069462846FFF758FBC2
:100B600038BD00000008014070B51D4DB021284679
:100B7000FFF7B0FBAE1531462846FFF7A9FB194C2D
:100B80000022521CA242FCD331462846FFF7A2FBAA
:100B90000020401CA042FCD3112000F08DF8202042
:100BA00000F08AF83A2000F087F8032000F092F86D
:100BB000362000F081F8102000F08CF800204FF46F
:100BC000FA61401C8842FCD3292000F075F82520EA
:100BD00000F072F8BDE87040372000F07BB80000EC
:100BE00000080140A08601002DE9FF5F044603983C
:100BF0000D46411A9346A2EB04004FF0FF3202D596
:100C00004942924601E04FF0010A002801DA4042D1
:100C100000E0012291464E004700294620460E9AE8
:100C200000F02BF8B74214DDA6EB67080DE000BF1B
:100C3000B8F1000F02DB5544A8EB07084C44B04460
:100C4000294620460E9A00F018F85C45F0D1BDE820
:100C5000FF9FA7EB66080CE0B8F1000F02DB4C44E5
:100C6000A8EB06085544B844294620460E9A00F0E1
:100C700004F803988542EFD1E9E708B50B460092E6
:100C80000246FFF7FEFE08BD10B50446362000F010
:100C900013F82CB1012C05D0022C05D0032C05D063
:100CA000102004E0602002E0D02000E0B020BDE889
:100CB000104000F00FB8000010B50446B021044801
:100CC000FFF706FB2046BDE8104000F015B8000015
:100CD0000008014070B5074C054630212046FFF75B
:100CE000F7FA80212046FFF7F5FA2846BDE8704064
:100CF00000F002B80008014070B5124E05462021F0
:100D00003046FFF7E7FA002420213046FFF7E0FAEB
:100D100028064FF08001304602D5FFF7DBFA01E0EC
:100D2000FFF7D6FA20213046FFF7D4FA6806641C94
:100D3000050EE4B2082CE7D33046BDE87040102120
:100D4000FFF7C8BA000801402DE9F04180460C4683
:100D500017461D462A20069EFFF7AEFFE0B2FFF7BA
:100D6000B9FF6019401EC0B2FFF7B4FF2B20FFF798
:100D7000A3FFF8B2FFF7AEFFB819401EC0B2FFF7ED
:100D8000A9FF2C20FFF798FF75430024012105EBF4
:100D9000D57001EB600714E008EBC40058F834503C
:100DA0004668C5F30710FFF795FF05F00F00C6F37F
:100DB000032141EA0010FFF78DFFF0B2FFF78AFF31
:100DC000641CA742E8D8BDE8F0410020FFF774BFDB
:100DD0002DE9FF4F83B0DDF810A0119C00926DE06B
:100DE000217801EB0A00832805D961780098DDF8A5
:100DF00010A0084400902A20FFF75EFF0AF0FF00D1
:100E0000FFF768FF2178AAF101000844C0B2FFF79C
:100E100061FF2B20FFF750FF0098C0B2FFF75AFF89
:100E200000986178401E0844C0B2FFF753FF2C20A1
:100E3000FFF742FF0698C0F30B0006901098C0F32E
:100E40000B001090039800781F38C0B20025019065
:100E500029E00199802748436119002610F801B064
:100E60001DE000BF1BEA070F2FD0069880467808C8
:100E70001BEA000F2BD0069947088946C8F30710D4
:100E8000FFF728FF08F00F01C9F3032040EA011023
:100E9000FFF720FF09F0FF00FFF71CFFB61C2078CA
:100EA000B042DFD86D1C6078A842D2D80398401CAD
:100EB0000390217800208A44FFF7FEFE0398007813
:100EC00000288DD107B0BDE8F08F1098CEE71099BB
:100ED000D2E7704770477047704770477047704758
:100EE0007047704770477047FEE7704702E008C8D8
:100EF000121F08C1002AFAD170477047002001E094
:100F000001C1121F002AFBD17047000088B00125E3
:100F1000002418226D4902A8FFF700F9FFF7F2FB41
:100F2000FFF748F9FFF71CFA694E4FF47F4130464E
:100F3000FFF7CEF9FFF7F4FDFFF716FEFFF7D6F93E
:100F4000FF27B0460DF108094FF01A0A4FF0080BC1
:100F50004FF4004631464046FFF7B3F9C0F10100B7
:100F6000C2B231464046FFF7B7F9FFF7E1F906464E
:100F7000B84211D0072E0FD2DFE806F00404080EA5
:100F80000E060A00002004E0022002E0012000E03A
:100F90000320FFF779FE002437464E4E01213046EC
:100FA000FFF788F920B9012D02DD2C46681E45B2F5
:100FB00002213046FFF77EF920B9052D02DA2C46D2
:100FC000681C45B220214448FFF774F9D0B1002CC9
:100FD00076DB2ED1E020FFF7F0FC70230093002198
:100FE000122383220846FFF74CFD3C4B7022CDE9CB
:100FF000002340F6FF7302222D2139A0FFF7E8FEFF
:1010000001261AE0062D12D2DFE805F011030609C9
:101010000C0FFFF7E9F90AE0FFF7B2F907E0FFF775
:1010200075FA04E0FFF7DEFA01E0FFF7EDFA0024BD
:10103000D0E70126A64200D0ECB9E02306EBC600BB
:1010400000930AEB40030BEB400183220020FFF7E3
:1010500018FD224BE022CDE9002306EBC6010A2051
:1010600000EB410209EB860040F6FF7350F8040CD8
:101070000521FFF7ADFEAE421DD1702306EBC60081
:1010800000930AEB40030BEB400183220020FFF7A3
:10109000F8FC124B7022CDE9002306EBC6010A20B2
:1010A00000EB410209EB860040F6FF7350F8040C98
:1010B0000521FFF78DFE761C052EBBD94FF0FF34BE
:1010C00009490020401C8842FCD341E74C410008FC
:1010D000000C014000080140001001400C3A0008DB
:1010E0004D454E550000000040420F00000000003A
:1010F00000000000000000000000000000000000F0
:1011000000000000000000000000000000000000DF
:1011100000000000000000000000000000000000CF
:1011200000000000000000000000000000000000BF
:1011300000000000000000000000000000000000AF
:10114000000000000000000000000000000000009F
:10115000000000000000000000000000000000008F
:10116000000000000000000000000000000000007F
:10117000040000000B0000000A0000000300000053
:10118000000000000000000000000000000000005F
:10119000000000000000000000000000000000004F
:1011A000000000000000000000000000000000003F
:1011B000000000000000000000000000000000002F
:1011C000000000000000000000000000000000001F
:1011D000000000000000000000000000000000000F
:1011E00000000000000000000000000000000000FF
:1011F00000000000000000000000000000000000EF
:1012000000000000000000000000000000000000DE
:1012100000000000000000000000000000000000CE
:1012200000000000000000000000000000000000BE
:1012300000000000070000000F0000000F00000089
:101240000F0000000F00000002000000000000007E
:10125000000000000000000000000000000000008E
:10126000000000000000000000000000000000007E
:10127000000000000000000000000000000000006E
:10128000000000000000000000000000000000005E
:10129000000000000000000000000000000000004E
:1012A000000000000000000000000000000000003E
:1012B000000000000000000000000000000000002E
:1012C000000000000000000000000000000000001E
:1012D000000000000000000000000000000000000E
:1012E00000000000000000000000000000000000FE
:1012F0000000000000000000050000000F000000DA
:101300000F0000000F0000000F0000000F000000A1
:101310000E000000020000000000000000000000BD
:1013200000000000000000000000000000000000BD
:1013300000000000000000000000000000000000AD
:10134000000000000000000000000000000000009D
:10135000000000000000000000000000000000008D
:10136000000000000000000000000000000000007D
:10137000000000000000000000000000000000006D
:10138000000000000000000000000000000000005D
:10139000000000000000000000000000000000004D
:1013A000000000000000000000000000000000003D
:1013B000000000000000000000000000010000002C
:1013C0000D0000000F0000000F0000000F000000E3
:1013D0000F0000000F0000000F00000009000000D7
:1013E00000000000000000000000000000000000FD
:1013F00000000000000000000000000000000000ED
:1014000000000000000000000000000000000000DC
:1014100000000000000000000000000000000000CC
:1014200000000000000000000000000000000000BC
:1014300000000000000000000000000000000000AC
:10144000000000000000000000000000000000009C
:10145000000000000000000000000000000000008C
:10146000000000000000000000000000000000007C
:10147000000000000000000000000000000000006C
:1014800000000000050000000F0000000F00000039
:101490000F0000000F0000000F0000000F00000010
:1014A0000F0000000E00000002000000000000001D
:1014B000000000000000000000000000000000002C
:1014C000000000000000000000000000000000001C
:1014D000000000000000000000000000000000000C
:1014E00000000000000000000000000000000000FC
:1014F00000000000000000000000000000000000EC
:1015000000000000000000000000000000000000DB
:1015100000000000000000000000000000000000CB
:1015200000000000000000000000000000000000BB
:1015300000000000000000000000000000000000AB
:101540000000000000000000000000000C0000008F
:101550000F0000000F0000000F0000000F0000004F
:101560000F0000000F0000000F0000000F0000003F
:101570000700000000000000000000000000000064
:10158000000000000000000000000000000000005B
:10159000000000000000000000000000000000004B
:1015A000000000000000000000000000000000003B
:1015B000000000000000000000000000000000002B
:1015C000000000000000000000000000000000001B
:1015D000000000000000000000000000000000000B
:1015E00000000000000000000000000000000000FB
:1015F00000000000000000000000000000000000EB
:1016000000000000000000000000000000000000DA
:10161000040000000F0000000F0000000F00000099
:101620000F0000000F0000000F0000000F0000007E
:101630000F0000000F000000090000000000000083
:10164000000000000000000000000000000000009A
:10165000000000000000000000000000000000008A
:10166000000000000000000000000000000000007A
:10167000000000000000000000000000000000006A
:10168000000000000000000000000000000000005A
:10169000000000000000000000000000000000004A
:1016A000000000000000000000000000000000003A
:1016B000000000000000000000000000000000002A
:1016C000000000000000000000000000000000001A
:1016D00000000000000000000A0000000F000000F1
:1016E0000F0000000F0000000F0000000F000000BE
:1016F0000F0000000F0000000F0000000F000000AE
:101700000D000000010000000000000000000000CB
:1017100000000000000000000000000000000000C9
:1017200000000000000000000000000000000000B9
:1017300000000000000000000000000000000000A9
:101740000000000000000000000000000000000099
:101750000000000000000000000000000000000089
:101760000000000000000000000000000000000079
:101770000000000000000000000000000000000069
:101780000000000000000000000000000000000059
:101790000000000000000000000000000200000047
:1017A0000F0000000F0000000F0000000F000000FD
:1017B0000F0000000F0000000F0000000F000000ED
:1017C0000F0000000F0000000F00000005000000E7
:1017D0000000000000000000000000000000000009
:1017E00000000000000000000000000000000000F9
:1017F00000000000000000000000000000000000E9
:1018000000000000000000000000000000000000D8
:1018100000000000000000000000000000000000C8
:1018200000000000000000000000000000000000B8
:1018300000000000000000000000000000000000A8
:101840000000000000000000000000000000000098
:101850000000000000000000000000000000000088
:1018600000000000080000000F0000000F00000052
:101870000F0000000F0000000F0000000F0000002C
:101880000F0000000F0000000F0000000F0000001C
:101890000F00000008000000000000000000000031
:1018A0000000000000000000000000000000000038
:1018B0000000000000000000000000000000000028
:1018C0000000000000000000000000000000000018
:1018D0000000000000000000000000000000000008
:1018E00000000000000000000000000000000000F8
:1018F00000000000000000000000000000000000E8
:1019000000000000000000000000000000000000D7
:1019100000000000000000000000000000000000C7
:101920000000000000000000010000000D000000A9
:101930000F0000000F0000000F0000000F0000006B
:101940000F0000000F0000000F0000000F0000005B
:101950000F0000000F0000000F0000000C0000004E
:101960000100000000000000000000000000000076
:101970000000000000000000000000000000000067
:101980000000000000000000000000000000000057
:101990000000000000000000000000000000000047
:1019A0000000000000000000000000000000000037
:1019B0000000000000000000000000000000000027
:1019C0000000000000000000000000000000000017
:1019D0000000000000000000000000000000000007
:1019E00000000000000000000000000000000000F7
:1019F000040000000F0000000F0000000F000000B6
:101A00000F0000000F0000000F0000000F0000009A
:101A10000F0000000F0000000F0000000F0000008A
:101A20000F0000000F000000030000000000000095
:101A300000000000000000000000000000000000A6
:101A40000000000000000000000000000000000096
:101A50000000000000000000000000000000000086
:101A60000000000000000000000000000000000076
:101A70000000000000000000000000000000000066
:101A80000000000000000000000000000000000056
:101A90000000000000000000000000000000000046
:101AA0000000000000000000000000000000000036
:101AB0000000000000000000060000000F00000011
:101AC0000F0000000F0000000F0000000F000000DA
:101AD0000F0000000F0000000F0000000F000000CA
:101AE0000F0000000F0000000F0000000F000000BA
:101AF00005000000000000000000000000000000E1
:101B000000000000000000000000000000000000D5
:101B100000000000000000000000000000000000C5
:101B200000000000000000000000000000000000B5
:101B300000000000000000000000000000000000A5
:101B40000000000000000000000000000000000095
:101B50000000000000000000000000000000000085
:101B60000000000000000000000000000000000075
:101B70000000000000000000000000000100000064
:101B80000E0000000F0000000F0000000F0000001A
:101B90000F0000000F0000000F0000000F00000009
:101BA0000F0000000F0000000F0000000F000000F9
:101BB0000F0000000F0000000800000000000000FF
:101BC0000000000000000000000000000000000015
:101BD0000000000000000000000000000000000005
:101BE00000000000000000000000000000000000F5
:101BF00000000000000000000000000000000000E5
:101C000000000000000000000000000000000000D4
:101C100000000000000000000000000000000000C4
:101C200000000000000000000000000000000000B4
:101C300000000000000000000000000000000000A4
:101C400000000000050000000F0000000F00000071
:101C50000F0000000F0000000F0000000F00000048
:101C60000F0000000F0000000F0000000F00000038
:101C70000F0000000F0000000F0000000F00000028
:101C8000080000000000000000000000000000004C
:101C90000000000000000000000000000000000044
:101CA0000000000000000000000000000000000034
:101CB0000000000000000000000000000000000024
:101CC0000000000000000000000000000000000014
:101CD0000000000000000000000000000000000004
:101CE00000000000000000000000000000000000F4
:101CF00000000000000000000000000000000000E4
:101D000000000000000000000000000008000000CB
:101D10000F0000000F0000000F0000000F00000087
:101D20000F0000000F0000000F0000000F00000077
:101D30000F0000000F0000000F0000000F00000067
:101D40000F0000000F000000040000000000000071
:101D50000000000000000000000000000000000083
:101D60000000000000000000000000000000000073
:101D70000000000000000000000000000000000063
:101D80000000000000000000000000000000000053
:101D90000000000000000000000000000000000043
:101DA0000000000000000000000000000000000033
:101DB0000000000000000000000000000000000023
:101DC0000000000000000000000000000000000013
:101DD000000000000B0000000F0000000F000000DA
:101DE0000F0000000F0000000F0000000F000000B7
:101DF0000F0000000F0000000F0000000F000000A7
:101E00000F0000000F0000000F0000000B0000009A
:101E100000000000000000000000000000000000C2
:101E200000000000000000000000000000000000B2
:101E300000000000000000000000000000000000A2
:101E40000000000000000000000000000000000092
:101E50000000000000000000000000000000000082
:101E60000000000000000000000000000000000072
:101E70000000000000000000000000000000000062
:101E80000000000000000000000000000000000052
:101E90000000000000000000000000000D00000035
:101EA0000F0000000F0000000F0000000F000000F6
:101EB0000F0000000F0000000F0000000F000000E6
:101EC0000F0000000F0000000F0000000F000000D6
:101ED0000E000000030000000000000000000000F1
:101EE00000000000000000000000000000000000F2
:101EF00000000000000000000000000000000000E2
:101F000000000000000000000000000000000000D1
:101F100000000000000000000000000000000000C1
:101F200000000000000000000000000000000000B1
:101F300000000000000000000000000000000000A1
:101F40000000000000000000000000000000000091
:101F50000000000000000000000000000000000081
:101F6000010000000E0000000F0000000F00000044
:101F70000F0000000F0000000F0000000F00000025
:101F80000F0000000F0000000F0000000F00000015
:101F90000F0000000F0000000E0000000D00000008
:101FA0000D0000000C000000090000000600000009
:101FB000030000000000000000000000000000001E
:101FC0000000000000000000000000000000000011
:101FD0000000000000000000000000000000000001
:101FE00000000000000000000000000000000000F1
:101FF00000000000000000000000000000000000E1
:1020000000000000000000000000000000000000D0
:1020100000000000000000000000000001000000BF
:102020000B00000007000000020000000E0000008E
:102030000F0000000F0000000F0000000F00000064
:102040000F0000000F0000000F0000000F00000054
:102050000F0000000F0000000F0000000F00000044
:102060000F0000000F0000000F0000000F00000034
:102070000F0000000F0000000F0000000C00000027
:10208000040000000000000000000000000000004C
:102090000000000000000000000000000000000040
:1020A0000000000000000000000000000000000030
:1020B0000000000000000000000000000000000020
:1020C0000000000000000000000000000000000010
:1020D0000000000000000000000000000000000000
:1020E00000000000010000000F0000000F000000D1
:1020F0000C0000000E0000000F0000000F000000A8
:102100000F0000000F0000000F0000000F00000093
:102110000F0000000F0000000F0000000F00000083
:102120000F0000000F0000000F0000000F00000073
:102130000F0000000F0000000F0000000F00000063
:102140000F0000000F0000000F000000040000005E
:10215000000000000000000000000000000000007F
:10216000000000000000000000000000000000006F
:10217000000000000000000001000000010000005D
:10218000030000000400000006000000070000003B
:10219000080000000900000009000000090000001C
:1021A000080000000600000003000000010000001D
:1021B000080000000F0000000F0000000F000000EA
:1021C0000F0000000F0000000F0000000F000000D3
:1021D0000F0000000F0000000F0000000F000000C3
:1021E0000F0000000F0000000F0000000F000000B3
:1021F0000F0000000F0000000F0000000F000000A3
:102200000F0000000F0000000F0000000F00000092
:102210000F0000000D0000000100000000000000A1
:1022200000000000000000000000000001000000AD
:1022300005000000070000000A0000000C0000007C
:102240000D0000000E0000000F0000000F00000055
:102250000F0000000F0000000F0000000F00000042
:102260000F0000000F0000000F0000000F00000032
:102270000F0000000E0000000D0000000F00000025
:102280000F0000000F0000000F0000000F00000012
:102290000F0000000F0000000F0000000F00000002
:1022A0000F0000000F0000000F0000000F000000F2
:1022B0000F0000000F0000000F0000000F000000E2
:1022C0000F0000000F0000000F0000000F000000D2
:1022D0000F0000000F0000000F0000000F000000C2
:1022E00006000000000000000000000001000000E7
:1022F0000E0000000F0000000F0000000F000000A3
:102300000F0000000F0000000F0000000F00000091
:102310000F0000000F0000000F0000000F00000081
:102320000F0000000F0000000F0000000F00000071
:102330000F0000000F0000000F0000000F00000061
:102340000F0000000F0000000F0000000F00000051
:102350000F0000000F0000000F0000000F00000041
:102360000F0000000F0000000F0000000F00000031
:102370000F0000000F0000000F0000000F00000021
:102380000F0000000F0000000F0000000F00000011
:102390000F0000000F0000000F0000000F00000001
:1023A0000F0000000F0000000B0000000000000004
:1023B000010000000C0000000F0000000F000000F2
:1023C0000F0000000F0000000F0000000F000000D1
:1023D0000F0000000F0000000F0000000F000000C1
:1023E0000F0000000F0000000F0000000F000000B1
:1023F0000F0000000F0000000F0000000F000000A1
:102400000F0000000F0000000F0000000F00000090
:102410000F0000000F0000000F0000000F00000080
:102420000F0000000F0000000F0000000F00000070
:102430000F0000000F0000000F0000000F00000060
:102440000F0000000F0000000F0000000F00000050
:102450000F0000000F0000000F0000000F00000040
:102460000F0000000F0000000F0000000F00000030
:102470000F000000060000000F0000000F00000029
:102480000F0000000F0000000F0000000F00000010
:102490000F0000000F0000000F0000000F00000000
:1024A0000F0000000F0000000F0000000F000000F0
:1024B0000F0000000F0000000F0000000F000000E0
:1024C0000F0000000F0000000F0000000F000000D0
:1024D0000F0000000F0000000F0000000F000000C0
:1024E0000F0000000F0000000F0000000F000000B0
:1024F0000F0000000F0000000F0000000F000000A0
:102500000F0000000F0000000F0000000F0000008F
:102510000F0000000F0000000F0000000F0000007F
:102520000F0000000F0000000F0000000F0000006F
:102530000F0000000F0000000F0000000600000068
:102540000F0000000F0000000F0000000F0000004F
:102550000F0000000F0000000F0000000F0000003F
:102560000F0000000F0000000F0000000F0000002F
:102570000F0000000F0000000F0000000F0000001F
:102580000F0000000F0000000F0000000F0000000F
:102590000F0000000F0000000F0000000F000000FF
:1025A0000F0000000F0000000F0000000F000000EF
:1025B0000F0000000F0000000F0000000F000000DF
:1025C0000F0000000F0000000F0000000F000000CF
:1025D0000F0000000F0000000F0000000F000000BF
:1025E0000F0000000F0000000F0000000F000000AF
:1025F0000F0000000F0000000F0000000F0000009F
:102600000D000000010000000D0000000F000000A0
:102610000F0000000F0000000F0000000F0000007E
:102620000F0000000F0000000F0000000F0000006E
:102630000F0000000F0000000F0000000F0000005E
:102640000F0000000F0000000F0000000F0000004E
:102650000F0000000F0000000F0000000F0000003E
:102660000F0000000F0000000F0000000F0000002E
:102670000F0000000F0000000F0000000F0000001E
:102680000F0000000F0000000F0000000F0000000E
:102690000F0000000F0000000F0000000F000000FE
:1026A0000F0000000F0000000F0000000F000000EE
:1026B0000F0000000F0000000F0000000F000000DE
:1026C0000F0000000F0000000900000000000000E3
:1026D00000000000060000000F0000000F000000D6
:1026E0000F0000000F0000000F0000000F000000AE
:1026F0000F0000000F0000000F0000000F0000009E
:102700000F0000000F0000000F0000000F0000008D
:102710000F0000000F0000000F0000000F0000007D
:102720000F0000000F0000000F0000000F0000006D
:102730000F0000000F0000000F0000000F0000005D
:102740000F0000000F0000000F0000000F0000004D
:102750000F0000000F0000000F0000000F0000003D
:102760000F0000000F0000000F0000000F0000002D
:102770000F0000000F0000000F0000000F0000001D
:102780000F0000000F0000000F0000000F0000000D
:10279000060000000000000000000000060000002D
:1027A0000F0000000F0000000F0000000F000000ED
:1027B0000F0000000F0000000F0000000F000000DD
:1027C0000F0000000F0000000F0000000F000000CD
:1027D0000F0000000F0000000F0000000F000000BD
:1027E0000F0000000F0000000F0000000F000000AD
:1027F0000F0000000F0000000F0000000F0000009D
:102800000F0000000F0000000F0000000F0000008C
:102810000F0000000F0000000F0000000F0000007C
:102820000F0000000F0000000F0000000F0000006C
:102830000F0000000F0000000F0000000F0000005C
:102840000F0000000F0000000F0000000F0000004C
:102850000F0000000A00000001000000000000005E
:102860000000000000000000000000000700000061
:102870000F0000000F0000000F0000000F0000001C
:102880000F0000000F0000000F0000000F0000000C
:102890000F0000000F0000000F0000000F000000FC
:1028A0000F0000000F0000000F0000000F000000EC
:1028B0000F0000000F0000000F0000000F000000DC
:1028C0000F0000000F0000000F0000000F000000CC
:1028D0000F0000000F0000000F0000000F000000BC
:1028E0000F0000000E0000000F0000000F000000AD
:1028F0000F0000000F0000000F0000000F0000009C
:102900000F0000000F0000000F0000000F0000008B
:102910000F0000000F0000000F0000000600000084
:1029200000000000000000000000000000000000A7
:102930000000000000000000040000000A00000089
:102940000F0000000F0000000F0000000F0000004B
:102950000F0000000F0000000F0000000F0000003B
:102960000F0000000F0000000F0000000F0000002B
:102970000F0000000F0000000F0000000F0000001B
:102980000F0000000F0000000F0000000F0000000B
:102990000F0000000F0000000F0000000F000000FB
:1029A0000F0000000D0000000E0000000A000000F3
:1029B0000F0000000F0000000F0000000F000000DB
:1029C0000F0000000F0000000F0000000F000000CB
:1029D0000F0000000F0000000F0000000F000000BB
:1029E00008000000000000000000000000000000DF
:1029F00000000000000000000000000000000000D7
:102A00000000000000000000060000000E000000B2
:102A10000F0000000F0000000F0000000F0000007A
:102A20000F0000000F0000000F0000000F0000006A
:102A30000F0000000F0000000F0000000F0000005A
:102A40000F0000000F0000000F0000000F0000004A
:102A50000F0000000F0000000F0000000F0000003A
:102A60000F0000000F0000000C0000000B00000031
:102A70000C00000005000000090000000E0000002E
:102A80000E0000000F0000000F0000000F0000000B
:102A90000F0000000F0000000F0000000F000000FA
:102AA0000F0000000800000000000000000000000F
:102AB0000000000000000000000000000000000016
:102AC0000000000000000000000000000000000006
:102AD00000000000030000000A0000000F000000DA
:102AE0000F0000000F0000000F0000000F000000AA
:102AF0000F0000000F0000000F0000000F0000009A
:102B00000F0000000F0000000F0000000F00000089
:102B10000F0000000F0000000F0000000F00000079
:102B20000F0000000F0000000F0000000F00000069
:102B30000E000000030000000C0000000600000072
:102B40000000000001000000040000000800000078
:102B50000C0000000E0000000F0000000F0000003D
:102B60000E0000000D000000050000000000000045
:102B70000000000000000000000000000000000055
:102B80000000000000000000000000000000000045
:102B90000000000000000000000000000000000035
:102BA0000000000000000000060000000C00000013
:102BB0000F0000000F0000000F0000000F000000D9
:102BC0000E0000000F0000000F0000000F000000CA
:102BD0000F0000000F0000000F0000000F000000B9
:102BE0000F0000000F0000000F0000000F000000A9
:102BF0000F0000000F0000000E00000001000000A8
:102C0000010000000D0000000500000001000000B0
:102C100000000000000000000000000000000000B4
:102C2000010000000200000002000000000000009F
:102C30000000000000000000000000000000000094
:102C40000000000000000000000000000000000084
:102C50000000000000000000000000000000000074
:102C60000000000000000000000000000000000064
:102C700001000000060000000A0000000A00000039
:102C800008000000030000000C0000000F0000001E
:102C90000F0000000F0000000F0000000F000000F8
:102CA0000F0000000F0000000F0000000F000000E8
:102CB0000F0000000F0000000F0000000F000000D8
:102CC0000F000000030000000000000003000000EF
:102CD0000A000000050000000000000000000000E5
:102CE00000000000000000000000000000000000E4
:102CF00000000000000000000000000000000000D4
:102D000000000000000000000000000000000000C3
:102D100000000000000000000000000000000000B3
:102D200000000000000000000000000000000000A3
:102D30000000000000000000000000000000000093
:102D40000000000000000000000000000100000082
:102D50000E0000000F0000000F0000000F00000038
:102D60000F0000000F0000000F0000000F00000027
:102D70000F0000000F0000000F0000000F00000017
:102D80000F0000000F0000000F0000000500000011
:102D90000000000000000000070000000600000026
:102DA0000000000000000000000000000000000023
:102DB0000000000000000000000000000000000013
:102DC0000000000000000000000000000000000003
:102DD00000000000000000000000000000000000F3
:102DE00000000000000000000000000000000000E3
:102DF00000000000000000000000000000000000D3
:102E000000000000000000000000000000000000C2
:102E100000000000040000000F0000000F00000090
:102E20000F0000000F0000000F0000000F00000066
:102E30000F0000000F0000000F0000000F00000056
:102E40000F0000000F0000000F0000000F00000046
:102E50000F0000000600000000000000000000005D
:102E60000000000000000000000000000000000062
:102E70000000000000000000000000000000000052
:102E80000000000000000000000000000000000042
:102E90000000000000000000000000000000000032
:102EA0000000000000000000000000000000000022
:102EB0000000000000000000000000000000000012
:102EC0000000000000000000000000000000000002
:102ED00000000000000000000000000005000000ED
:102EE0000F0000000F0000000F0000000F000000A6
:102EF0000F0000000F0000000F0000000F00000096
:102F00000F0000000F0000000F0000000F00000085
:102F10000F0000000F0000000F000000070000007D
:102F200000000000000000000000000000000000A1
:102F30000000000000000000000000000000000091
:102F40000000000000000000000000000000000081
:102F50000000000000000000000000000000000071
:102F60000000000000000000000000000000000061
:102F70000000000000000000000000000000000051
:102F80000000000000000000000000000000000041
:102F90000000000000000000000000000000000031
:102FA00000000000060000000F0000000F000000FD
:102FB0000F0000000F0000000F0000000F000000D5
:102FC0000F0000000F0000000F0000000F000000C5
:102FD0000F0000000F0000000F0000000F000000B5
:102FE0000F000000070000000000000000000000CB
:102FF00000000000000000000000000000000000D1
:1030000000000000000000000000000000000000C0
:1030100000000000000000000000000000000000B0
:1030200000000000000000000000000000000000A0
:103030000000000000000000000000000000000090
:103040000000000000000000000000000000000080
:103050000000000000000000000000000000000070
:103060000000000000000000000000000700000059
:103070000F0000000F0000000F0000000F00000014
:103080000F0000000F0000000F0000000F00000004
:103090000F0000000F0000000F0000000F000000F4
:1030A0000F0000000F0000000F00000006000000ED
:1030B0000000000000000000000000000000000010
:1030C0000000000000000000000000000000000000
:1030D00000000000000000000000000000000000F0
:1030E00000000000000000000000000000000000E0
:1030F00000000000000000000000000000000000D0
:1031000000000000000000000000000000000000BF
:1031100000000000000000000000000000000000AF
:10312000000000000000000000000000000000009F
:1031300000000000070000000F0000000F0000006A
:103140000F0000000F0000000F0000000F00000043
:103150000F0000000F0000000F0000000F00000033
:103160000F0000000F0000000F0000000F00000023
:103170000F0000000300000000000000000000003D
:10318000000000000000000000000000000000003F
:10319000000000000000000000000000000000002F
:1031A000000000000000000000000000000000001F
:1031B000000000000000000000000000000000000F
:1031C00000000000000000000000000000000000FF
:1031D00000000000000000000000000000000000EF
:1031E00000000000000000000000000000000000DF
:1031F00000000000000000000000000004000000CB
:103200000F0000000F0000000F0000000F00000082
:103210000F0000000F0000000F0000000F00000072
:103220000F0000000F0000000F0000000F00000062
:103230000F0000000F0000000D0000000100000062
:10324000000000000000000000000000000000007E
:10325000000000000000000000000000000000006E
:10326000000000000000000000000000000000005E
:10327000000000000000000000000000000000004E
:10328000000000000000000000000000000000003E
:10329000000000000000000000000000000000002E
:1032A000000000000000000000000000000000001E
:1032B000000000000000000000000000000000000E
:1032C00000000000000000000B0000000F000000E4
:1032D0000F0000000F0000000F0000000F000000B2
:1032E0000F0000000F0000000F0000000F000000A2
:1032F0000F0000000F0000000F0000000F00000092
:1033000006000000000000000000000000000000B7
:1033100000000000000000000000000000000000AD
:10332000000000000000000000000000000000009D
:10333000000000000000000000000000000000008D
:10334000000000000000000000000000000000007D
:10335000000000000000000000000000000000006D
:10336000000000000000000000000000000000005D
:10337000000000000000000000000000000000004D
:10338000000000000000000000000000000000003D
:10339000020000000F0000000F0000000F000000FE
:1033A0000F0000000F0000000F0000000F000000E1
:1033B0000F0000000F0000000F0000000F000000D1
:1033C0000F000000090000000000000000000000E5
:1033D00000000000000000000000000000000000ED
:1033E00000000000000000000000000000000000DD
:1033F00000000000000000000000000000000000CD
:1034000000000000000000000000000000000000BC
:1034100000000000000000000000000000000000AC
:10342000000000000000000000000000000000009C
:10343000000000000000000000000000000000008C
:10344000000000000000000000000000000000007C
:103450000000000000000000000000000300000069
:103460000C0000000F0000000F0000000F00000023
:103470000F0000000F0000000F0000000F00000010
:103480000F0000000D00000006000000000000001A
:10349000000000000000000000000000000000002C
:1034A000000000000000000000000000000000001C
:1034B000000000000000000000000000000000000C
:1034C00000000000000000000000000000000000FC
:1034D00000000000000000000000000000000000EC
:1034E00000000000000000000000000000000000DC
:1034F00000000000000000000000000000000000CC
:1035000000000000000000000000000000000000BB
:1035100000000000000000000000000000000000AB
:103520000000000000000000010000000900000091
:103530000E0000000E0000000E0000000E00000053
:103540000E0000000B00000007000000010000005A
:10355000000000000000000000000000000000006B
:10356000000000000000000000000000000000005B
:10357000000000000000000000000000000000004B
:10358000000000000000000000000000000000003B
:10359000000000000000000000000000000000002B
:1035A000000000000000000000000000000000001B
:1035B000000000000000000000000000000000000B
:1035C00000000000000000000000000000000000FB
:1035D00000000000000000000000000000000000EB
:1035E00000000000000000000000000000000000DB
:1035F00001000000000000000300000004000000C3
:1036000004000000050000000300000000000000AE
:1036100000000000000000000000000000000000AA
:10362000000000000000000000000000000000009A
:10363000000000000000000000000000000000008A
:10364000000000000000000000000000000000007A
:10365000000000000000000000000000000000006A
:103660000000000000000000000000000608082123
:1036700000000000000000000000000020202020CA
:103680002000200050505000000000005050F85022
:10369000F85050002078A07028F02000C0C81020FA
:1036A0004098180040A0A040A8906800303020400A
:1036B000000000001020404040201000402010106A
:1036C000102040000020A87070A82000002020F8E2
:1036D000202000000000000030302040000000F8F2
:1036E0000000000000000000003030000008102042
:1036F00040800000708888A88888700020602020A2
:1037000020207000708808708080F800F808103061
:103710000888700010305090F8101000F880F00801
:1037200008887000384080F088887000F808081019
:103730002040800070888870888870007088887841
:103740000810E00000002000200000000000200021
:103750002020400008102040201008000000F80041
:10376000F800000040201008102040007088083049
:10377000200020007088A8B8B08078002050888889
:10378000F8888800F08888F08888F0007088808049
:1037900080887000F08888888888F000F88080F041
:1037A0008080F800F88080F08080800078888080B9
:1037B00098887800888888F8888888007020202079
:1037C0002020700038101010109060008890A0C069
:1037D000A0908800808080808080F80088D8A8A889
:1037E000A88888008888C8A89888880070888888F1
:1037F00088887000F08888F08080800070888888D1
:10380000A8906800F08888F0A09088007088807088
:1038100008887000F8A82020202020008888888848
:10382000888870008888888888502000888888A8C0
:10383000A8A8500088885020508888008888502088
:1038400020202000F80810204080F80078404040F8
:1038500040407800008040201008000078080808E8
:1038600008087800205088000000000000000000D8
:103870000000F800606020100000000000006010F0
:10388000709078008080B0C888C8B0000000708850
:103890008088700008086898889868000000708820
:1038A000F880700010282070202020000000709800
:1038B000986808708080B0C88888880020006020E0
:1038C000202070001000101010109060808090A0D8
:1038D000C0A0900060202020202070000000D0A810
:1038E000A8A8A8000000B0C88888880000007088D8
:1038F000888870000000B0C8C8B080800000689858
:10390000986808080000B0C88080800000007880B7
:103910007008F0002020F82020281000000088887F
:1039200088986800000088888850200000008888F7
:10393000A8A8500000008850205088000000888807
:10394000780888700000F8102040F800102020400F
:1039500020201000202020002020200040202010C7
:103960002020400040A810000000000000000000DF
:103970000000000020508888F88888101070888027
:1039800080887000F88080F08080F81040406040AF
:10399000C0407800208888C8A8988800207088884F
:1039A00088887000207080700808F00040F81020AF
:1039B0004080F800F80810704080F80000006010A7
:1039C00070907808001070888088700000007088FF
:1039D000F880701060203020602070000010B0C8A7
:1039E000888888000020708888887000002078808F
:1039F0007008F0000020F8102040F8000000F810D7
:103A00007040F800304848300000000008101021D5
:103A100000000000000000000000000000000000A6
:103A20000000000000000000000000000000183C42
:103A30003C3C1818180018180000000000333333FD
:103A4000220000000000000000000000000000361E
:103A5000367F3636367F3636000000000C0C3E636B
:103A600061603E030343633E0C0C00000000000055
:103A7000006163060C183363000000000000001CA6
:103A800036361C3B6E66663B00000000003030306E
:103A900060000000000000000000000000000C18A2
:103AA000183030303018180C000000000000180CDE
:103AB0000C060606060C0C180000000000000000B2
:103AC00042663CFF3C66420000000000000000002F
:103AD000181818FF18181800000000000000000057
:103AE000000000000000181818300000000000005E
:103AF000000000FF000000000000000000000000C7
:103B00000000000000001818000000000000010381
:103B1000070E1C3870E0C0800000000000003E630B
:103B200063636B6B6363633E0000000000000C1C6A
:103B30003C0C0C0C0C0C0C3F0000000000003E6321
:103B400003060C183061637F0000000000003E6334
:103B500003031E030303633E000000000000060E83
:103B60001E3666667F06060F0000000000007F60BC
:103B700060607E030363733E0000000000001C30A1
:103B800060607E636363633E0000000000007F634B
:103B90000306060C0C1818180000000000003E6315
:103BA00063633E636363633E0000000000003E63A6
:103BB0006363633F0303063C000000000000000055
:103BC0000018180000001818000000000000000095
:103BD0000018180000001818183000000000000637
:103BE0000C18306030180C060000000000000000C7
:103BF00000007E00007E0000000000000000006069
:103C000030180C060C1830600000000000003E6305
:103C100063060C0C0C000C0C0000000000003E635E
:103C2000636F6B6B6E60603E000000000000081C5C
:103C3000366363637F6363630000000000007E33CC
:103C400033333E333333337E0000000000001E3335
:103C5000616060606061331E0000000000007C361F
:103C6000333333333333367C0000000000007F33BE
:103C700031343C343031337F0000000000007F33AA
:103C800031343C34303030780000000000001E3306
:103C90006160606F6363371D0000000000006363B4
:103CA00063637F63636363630000000000003C188C
:103CB000181818181818183C0000000000000F060B
:103CC000060606060666663C000000000000733328
:103CD00036363C363633337300000000000078304F
:103CE000303030303031337F000000000000637727
:103CF0007F6B6363636363630000000000006363C2
:103D0000737B7F6F676363630000000000001C36F5
:103D1000636363636363361C0000000000007E334E
:103D200033333E30303030780000000000003E6316
:103D300063636363636B6F3E0607000000007E33BE
:103D400033333E36363333730000000000003E63E9
:103D500063301C060363633E000000000000FFDBCD
:103D6000991818181818183C000000000000636328
:103D7000636363636363633E00000000000063638A
:103D80006363636363361C08000000000000636324
:103D90006363636B6B7F3636000000000000C3C3B3
:103DA000663C18183C66C3C3000000000000C3C393
:103DB000C3663C181818183C0000000000007F6320
:103DC00043060C183061637F0000000000003C30A7
:103DD000303030303030303C00000000000080C017
:103DE000E070381C0E0703010000000000003C0CCE
:103DF0000C0C0C0C0C0C0C3C00000000081C366376
:103E000000000000000000000000000000000000B2
:103E10000000000000000000FF00000018180C0067
:103E20000000000000000000000000000000000092
:103E3000003C46063E66663B000000000000703015
:103E4000303C36333333336E000000000000000096
:103E5000003E63606060633E0000000000000E06EC
:103E6000061E36666666663B000000000000000025
:103E7000003E63637E60633E0000000000001C366D
:103E800032307C303030307800000000000000001C
:103E9000003B666666663E06663C000000007030C9
:103EA00030363B33333333730000000000000C0C1A
:103EB000001C0C0C0C0C0C1E000000000000060680
:103EC000000E060606060666663C0000000070301E
:103ED000303333363C3633730000000000001C0CD6
:103EE0000C0C0C0C0C0C0C1E000000000000000060
:103EF000006E7F6B6B6B6B6B0000000000000000BE
:103F0000006E333333333333000000000000000011
:103F1000003E63636363633E000000000000000036
:103F2000006E333333333E30307800000000000041
:103F3000003B666666663E06060F00000000000055
:103F4000006E3B333030307800000000000000008D
:103F5000003E63380E03633E0000000000000818B6
:103F6000187E181818181B0E000000000000000032
:103F7000006666666666663B0000000000000000A2
:103F800000636336361C1C080000000000000000BF
:103F9000006363636B6B7F3600000000000000006D
:103FA0000063361C1C1C366300000000000000008B
:103FB0000063636363633F03063C0000000000008E
:103FC000007F660C1830637F0000000000000E18B0
:103FD000181870181818180E0000000000001818A3
:103FE0001818180018181818180000000000701889
:103FF00018180E18181818700000000000003B6E0A
:1040000000000000000000000000000000000000B0
:104010000000000000000000000000000000081C7C
:10402000366363637F6363630201000002041E332F
:10403000616060606061331E0000000000007F333B
:1040400031343C343031337F0204000000007830DA
:10405000303830703031337F000000000408636373
:10406000737B7F6F676363630000000002041C368C
:10407000636363636363361C0000000004083E63EF
:1040800063301C060363633E0000000004087F6386
:1040900043060C183061637F0000000018007F6346
:1040A00043060C183061637F000000000000000030
:1040B000003C46063E66663B02010000000002042A
:1040C000003E63606060633E00000000000000008E
:1040D000003E63637E60633E0204000000001C0C2F
:1040E0000C0E0C1C0C0C0C1E000000000000040840
:1040F000006E333333333333000000000000040814
:10410000003E63636363633E000000000000040838
:10411000003E63380E03633E000000000000040808
:10412000007F660C1830637F000000000000000C68
:10413000007F660C1830637F00000000001C3636DC
:104140001C000000000000000000000064410008A6
:104150006A41000875410008854100088E41000849
:1041600000000000496E666F000035206B6F6C6FB9
:10417000728E77000050616C657461206B6F6C6F9C
:10418000728E7700004E656761747977000052790E
:1041900073756E656B000000B841000800000020D8
:1041A00004000000EC0E0008BC41000804000020E0
:0C41B00004040000FC0E000800000000E9
:04000005080000ED02
:00000001FF
