:020000040800F2
:1000000008040020010100083F050008CB02000899
:100010003D0500086F0100084308000800000000CB
:100020000000000000000000000000002708000899
:100030007F0100080000000063050008290800088F
:1000400045080008610500082B080008550700084E
:100050008F010008CD060008810100088501000815
:1000600087010008890100088B0100087101000860
:100070007301000875010008770100087901000884
:100080007B0100087D0100086D01000817010008D0
:100090001701000817010008170100088D0100086A
:1000A0002D08000833080008310800082F08000850
:1000B000350800083708000839080008CF02000892
:1000C000CD020008D3020008D1020008570700083B
:1000D000590700083B0800083D0800083F080008D1
:1000E000830100085307000841080008DFF80CD01E
:1000F00000F02AF800480047E50B0008080400203B
:1001000005480047FEE7FEE7FEE7FEE7FEE7FEE7FD
:10011000FEE7FEE7FEE7FEE7ED00000830B50B4620
:10012000014600202022012409E021FA02F59D4227
:1001300005D303FA02F5491B04FA02F52844151EFB
:10014000A2F10102F1DC30BD064C074D06E0E0688B
:1001500040F0010394E8070098471034AC42F6D30E
:10016000FFF7C8FFEC0C00080C0D00087047FEE715
:1001700070477047704770477047704770477047C7
:1001800070477047704770477047704770477047B7
:1001900004490A6822F010020A600A6802430A60F1
:1001A0007047000000200240034A116801F0380146
:1001B00001431160704700000020024038B54FF441
:1001C0007F40ADF8000003248DF8024010208DF828
:1001D00003006946074800F011F8F020ADF8000070
:1001E0008DF8024018208DF803006946024800F09F
:1001F00005F838BD000C0140000801402DE9F04130
:10020000CA780025D30602F00F0201D58B781A4375
:100210000B884FF00F084FF0010C13F0FF0F1CD0AC
:10022000D0F800400E880CFA05F31E409E4210D113
:10023000AF0008FA07F624EA060602FA07F4344388
:10024000CE78282E02D0482E02D002E0436100E092
:1002500003616D1C082DE5D304600B88FF2B1DD9AD
:100260004468002505F108060CFA06F30E881E40C6
:100270009E420FD1AF0008FA07F624EA060602FAFA
:1002800007F43443CE78282E00D14361CE78482E2F
:1002900000D103616D1C082DE4D34460BDE8F081FA
:1002A0000246002092680A4200D0012070470246B0
:1002B0000020D2680A4200D0012070474161704797
:1002C0000AB10161704741617047FEE770477047AE
:1002D0007047704700EB8110C0B240F0800000F022
:1002E000B5B8000070B51F4841F60F411E4C0180A3
:1002F000032181701021C17001462046FFF77EFF67
:100300004FF4E0512046FFF7D9FF18490020401C68
:100310008842FCD3002447F23055032000F0CCF88B
:100320000020401CA842FCD3641CE4B2032CF4D38C
:10033000022000F0C1F8002041F27071401C884298
:10034000FCD3282000F082F8082000F07FF801207C
:1003500000F07CF8062000F079F8BDE870400C2031
:1003600000F074B80000002000100140E093040089
:1003700070B50122124E950229463046FFF7A0FFC4
:1003800008213046FFF78CFF044604213046FFF772
:1003900087FF44EA400402213046FFF781FF44EA28
:1003A000800401213046FFF77BFF44EAC000C4B25D
:1003B000002229463046FFF783FF204670BD00002B
:1003C000001001402DE9F041134C0F2648202680F3
:1003D000124FE070002521463846FFF70FFF01223B
:1003E000D1023846FFF76CFF0022B9143846FFF7F8
:1003F00067FFFFF7BDFF45EA0010C5B2FFF7B8FF82
:10040000054326801020E07021463846FFF7F6FEAF
:100410002846BDE8F08100000000002000100140E7
:1004200070B50D46402141EAC0001446C0B200F04C
:100430000DF8E8065FEA106514F8010B00F01EF8ED
:100440006D1E15F0FF05F7D170BD000010B5044614
:1004500000224FF4C0510848FFF732FF200900F096
:100460002BF804F00F0000F027F800BFFFF7AAFFF9
:100470000006FBD410BD00000010014070B50D4D0A
:10048000044600224FF400612846FFF719FF0122BD
:1004900011032846FFF714FF200900F00DF804F0BF
:1004A0000F0000F009F800BFFFF78CFF0006FBD437
:1004B00070BD00000010014070B50122124E0446CC
:1004C000950229463046FFF7FBFE04F001020821A1
:1004D0003046FFF7F5FE04F0020204213046FFF734
:1004E000EFFE04F0040202213046FFF7E9FE04F0BB
:1004F000080201213046FFF7E3FE29463046BDE8F9
:1005000070400022FFF7DCBE0010014010B5044629
:1005100002E0641CFFF7B2FF20780028F9D110BD7B
:1005200010B5044608461146FFF7D4FE02E0641CED
:10053000FFF7A4FF20780028F9D110BDFEE770472F
:1005400000214FF0006000F001B80000024A1140A5
:10055000014302480160704780FFFF1F08ED00E083
:1005600070477047044A0029916901D0014300E0B7
:1005700081439161704700000010024010B500F007
:1005800041F84FF48034204600F086F800F0CEF8B1
:10059000012835D11020FFF7FBFD0220FFF704FEF4
:1005A000002000F06FF8002000F09CF8A01100F08F
:1005B0008FF84FF4E011204600F0A4F8012000F07D
:1005C0009BF8392000F03EF80028FAD0022000F015
:1005D000A3F800BF00F04EF80828FBD10121042049
:1005E000FFF7C0FF01210820FFF7BCFF0121102009
:1005F000FFF7B8FF0121BDE810400803FFF7B2BFC5
:1006000010BD00000C48016841F001010160416823
:100610000A4A114041600168094A114001600168BD
:1006200021F48021016042684FF41F0122F4FE0290
:100630004260816070470000001002400000FFF837
:10064000FFFFF6FE0246002053090949012B0BD09B
:10065000022B0BD0D1F8241002F01F02012393408B
:100660000B4200D0012070470968F5E7096AF3E7FB
:10067000001002400248406800F00C007047000083
:1006800000100240034A516821F0F001014351601B
:1006900070470000001002400B490A6822F48032C3
:1006A0000A600A68B0F5803F22F480220A6007D011
:1006B000B0F5802F03D1086840F4A020086070478F
:1006C000086840F48030F9E70010024070470000ED
:1006D000034A516821F4E061014351607047000012
:1006E0000010024003494A6822F4605242EAC00006
:1006F00048607047001002400149086670470000DA
:1007000000004242034A5368084323F47C13184311
:100710005060704700100240034A516821F0030105
:1007200001435160704700000010024030B50024C2
:100730004FF4A0653120FFF785FF641CAC4201D067
:100740000028F7D03120FFF77DFF002800D00120DE
:1007500030BD70477047704770470029018802D04C
:1007600041F0400101E021F04001018070470000AC
:1007700010B586B04FF40040ADF800004FF40061B2
:100780000020ADF804103821ADF80C10ADF80800C9
:10079000ADF80200ADF80600ADF80A00ADF80E00A5
:1007A0000720084CADF810006946204600F015F807
:1007B0000121204600F02DF801212046FFF7CDFF52
:1007C00006B010BD003001400246002012890A42E6
:1007D00000D0012070478089704770B502884D882D
:1007E00002F441530A888C88CE882A4334430D8909
:1007F00022434C892A438D892243CC892A432243B0
:100800001A430280828B22F400628283098A018269
:1008100070BD0029818802D041F0040101E021F07F
:100820000401818070477047704770477047704778
:100830007047704770477047704770477047704700
:100840007047FEE7704700000FB4084B10B504A9CD
:1008500002AA039800F01CF8044602A9002000F048
:10086000BBF9204610BC5DF814FB0000D90B000852
:1008700002E008C8121F08C1002AFAD17047704769
:10088000002001E001C1121F002AFBD170470000C7
:100890002DE9FF4F8DB005468846002667E12528E3
:1008A0007AD100246D1CB64AA146A34601212B78BB
:1008B000203B01FA03F0104202D004436D1CF6E71E
:1008C00028782A2810D06FF02F022878A0F1300164
:1008D000092915D809EB890102EB410144F0020412
:1008E00000EB01096D1CF0E758F8049BB9F1000119
:1008F00003DA44F40054C1F1000944F002046D1C11
:1009000028782E2817D115F8010F44F004042A285E
:100910000ED06FF02F022878A0F1300109290AD8F3
:100920000BEB8B0102EB410100EB010B6D1CF2E7BD
:1009300058F804BB6D1C28786C280FD006DC4C28B6
:1009400017D068280DD06A2814D104E0742810D07C
:100950007A280FD10DE044F400140AE044F4801426
:1009600001E044F440146978814202D16D1C04F521
:1009700080146D1C2878692866D007DC002875D0A3
:10098000632828D0642807D15EE005E06E2808D0EF
:1009900073282AD075287AD0DDE90F129047761C8B
:1009A000E4E0C4F30250022809D003280DD0D8F89F
:1009B000001004280DD00E6008F10408D6E0D8F825
:1009C0000010F217C1E90062F6E7D8F800100E80B7
:1009D000F2E70E70F0E758F8041B8DF800100020C5
:1009E0008DF80100EA46012003E058F804AB4FF00F
:1009F000FF3061074FF0000701D40AE07F1C5F451C
:100A00000DDA8742FADB1AF807100029F6D106E062
:100A10007F1C8742FCDB1AF807100029F8D1DDE9BA
:100A20000F23A9EB07008146214600F0BEF83044B1
:100A3000C61904E0DDE90F121AF8010B90477F1E7A
:100A4000F8D2214648468CE00A2758F8040BC4F334
:100A50000251032900D100B2042900D140B200287C
:100A600006DAC0F100004FF02D0104E083E00EE053
:100A7000210504D52B218DF82C10012103E0E1077D
:100A800010D02021F7E70DF1200A099113E00A2781
:100A900058F8040BC4F30251032900D180B2042991
:100AA00000D1C0B20021EEE73946FFF737FB01F174
:100AB00030020AF8012D0028F6D1ADEB0A0000F152
:100AC00020000890600702D524F4803401E04FF044
:100AD000010B089A00205946934501DDA1EB020065
:100AE000834600EB020109980144A9EB01000A903A
:100AF000E00306D4DDE90F2321460A9800F055F8FB
:100B0000064400270DF12C0906E0DDE90F1219F863
:100B100007009047761C7F1C09988742F5DBE003AD
:100B20000CD5DDE90F2321460A9800F03EF8064473
:100B300004E0DDE90F1230209047761CBBF1000184
:100B4000ABF1010BF5DC05E0DDE90F121AF8010B42
:100B50009047761C0899481E08900029F4DC0A98F2
:100B60002146DDE90F2300F00DF806446D1C2878BE
:100B700000287FF494AE11B03046BDE8F08F00003D
:100B8000092801002DE9F0410446002517461E46BC
:100B9000880405D406E039462020B04705F1010558
:100BA000641EF8D52846BDE8F0812DE9F0410446E1
:100BB0000025302790461E46C80300D4202788040D
:100BC00005D506E041463846B04705F10105641EEB
:100BD000F8D52846BDE8F0810A68531C0B601070F8
:100BE000704700001CB534A1D1E90001CDE9000136
:100BF000FFF7C4FCFFF7E2FAFFF7A2FCFFF7B8FD2E
:100C00002F4E4FF47F413046FFF758FBFFF76AFB4A
:100C100001212C4A0846FFF703FC0120FFF716FCD0
:100C200029A0FFF773FC01258DF80550002207214C
:100C30006846FFF775FC264C208840F482702080BF
:100C400001212046FFF7C0FD0028F9D02046FFF71C
:100C5000C2FD410700D400202188C01021F4827118
:100C6000218040F271214843642190FBF1F090FB18
:100C7000F1F201FB12000A2190FBF1F315A1684685
:100C8000FFF7E2FD8DF80450002207216846FFF7C8
:100C900047FC13490020401C8842FCD34FF4004716
:100CA00039463046FFF703FBC0F10100C2B23946B6
:100CB0003046FFF705FBBFE720302C302043000013
:100CC000000C0140E40C000854656D702E3A0000E1
:100CD000003001402532642C2564204320000000B0
:100CE00020AA440006090906000000000C0D0008B7
:100CF000000000200400000070080008100D00082B
:100D00000400002004040000800800080000000027
:04000005080000ED02
:00000001FF
