:020000040800F2
:100000000004002001010008930300088703000892
:100010009103000843010008D50600080000000015
:100020000000000000000000000000006106000861
:100030005301000800000000730400089506000842
:10004000D706000871040008BD0600085B0600081A
:1000500035020008CD050008550100088F01000891
:10006000910100089301000895010008450100086E
:1000700047010008490100084B0100084D01000834
:100080004F01000851010008410100081701000854
:100090001701000817010008170100089701000860
:1000A000BF060008C5060008C3060008C106000810
:1000B000C7060008C9060008CB0600088B03000825
:1000C000890300088F0300088D0300085D060008FF
:1000D0005F060008CD060008CF060008D10600081C
:1000E0008D01000859060008D3060008DFF80CD07F
:1000F00000F014F800480047F9060008000400204A
:1001000005480047FEE7FEE7FEE7FEE7FEE7FEE7FD
:10011000FEE7FEE7FEE7FEE7ED000008064C074DB0
:1001200006E0E06840F0010394E8070098471034C7
:10013000AC42F6D3FFF7DEFF8407000894070008FF
:100140007047FEE7704770477047704770477047C9
:100150007047704770B5012000F024F8002812D0D5
:10016000094D4FF480742146284600F0FEF8C0F196
:100170000100C2B22146284600F000F9BDE87040F7
:10018000012000F009B870BD000C014070477047B5
:10019000704770477047704701490860704700001A
:1001A00014040140064A014600201268044B0A402C
:1001B00014331B680B4202D0002A00D00120704784
:1001C0000004014030B51A498379026853B30B68C3
:1001D00093430B600A1D13680468A34313600279FC
:1001E0000A441368046823431360114A08321368F1
:1001F0000468A3431360131D1C680568AC431C60AE
:100200004479102C05D021440A68006802430A6032
:1002100030BD11680468214311601968006801430A
:10022000196030BD0079084401689143016030BD18
:10023000000401407047000004490A6822F01002DF
:100240000A600A6802430A6070470000002002400A
:10025000034A116801F03801014311607047000042
:100260000020024038B50F20ADF8000003248DF8BF
:10027000024004208DF803006946084800F026F883
:100280004FF47F40ADF800008DF8024010208DF84B
:1002900003006946024800F019F838BD0008014023
:1002A000000C014010B58A0721F003040649130F22
:1002B00021440F228C689A4094438C608A6898404D
:1002C00002438A6010BD000000000140F0B5CA780A
:1002D000002502F00F03D20601D58A7813430C786B
:1002E0004FF00F0E0122ECB1D0F800400F8802FA57
:1002F00005F63740B74211D14FEA850C0EFA0CF7DC
:1003000024EA070703FA0CF43C43CF78282F02D0E5
:10031000482F02D002E0466100E006616D1C082D06
:10032000E4D304600C88FF2C1ED944685FF00006FB
:1003300006F1080702FA07F50F882F40AF420FD1E8
:100340004FEA860C0EFA0CF7BC4303FA0CF73C4359
:10035000CF78282F00D14561CF78482F00D1056193
:10036000761C082EE4D34460F0BD02460020D2681B
:100370000A4200D001207047416170470AB1016113
:10038000704741617047FEE770477047704770479C
:10039000FEE770473EB500214FF0006000F05EF8C8
:1003A0004FF4C06000F050F806208DF808000124DA
:1003B0008DF8094000258DF80A508DF80B4002A8F1
:1003C00000F010F800210846FFF76CFF8DF804508C
:1003D0000C208DF8050000948DF806406846FFF764
:1003E000F1FE3EBDF0B50F21C478027801234FF035
:1003F000E026DCB1124C2468457804F4E064C4F5CE
:10040000E064240AC4F10407E1408478BD400C4054
:100410002C4321010B4C1155007800F01F018B403B
:10042000400906EB8000C0F80031F0BD02F01F006B
:100430008340500906EB8000C0F88031F0BD000019
:100440000CED00E000E400E00249084302490860C6
:10045000704700000000FA050CED00E0024A114070
:10046000014302480160704780FFFF1F08ED00E074
:1004700070477047044A0029916901D0014300E0A8
:1004800081439161704700000010024010B500F0F8
:1004900039F84FF48034204600F07EF800F0C6F8BA
:1004A00001282DD11020FFF7C7FE0220FFF7D0FE54
:1004B000002000F067F8002000F094F8A01100F090
:1004C00087F84FF4E011204600F09CF8012000F07E
:1004D00093F8392000F036F80028FAD0022000F016
:1004E0009BF800BF00F046F80828FBD1012104204A
:1004F000FFF7C0FF0121BDE810400820FFF7BABF99
:1005000010BD00000C48016841F001010160416824
:100510000A4A114041600168094A114001600168BE
:1005200021F480210160416821F4FE0141604FF413
:100530001F01816070470000001002400000FFF8BA
:10054000FFFFF6FE0246002053090949012B0BD09C
:10055000022B0BD0D1F8241002F01F02012393408C
:100560000B4200D0012070470968F5E7096AF3E7FC
:10057000001002400248406800F00C007047000084
:1005800000100240034A516821F0F001014351601C
:1005900070470000001002400B490A6822F48032C4
:1005A0000A600A6822F480220A60B0F5803F07D012
:1005B000B0F5802F03D1086840F4A0200860704790
:1005C000086840F48030F9E70010024070470000EE
:1005D000034A516821F4E061014351607047000013
:1005E0000010024003494A6822F4605242EAC00007
:1005F00048607047001002400149086670470000DB
:1006000000004242034A5368084323F47C13184312
:100610005060704700100240034A516821F0030106
:1006200001435160704700000010024018B50020DF
:100630004FF4A06400903120FFF784FF0099491C1B
:100640000091A14201D00028F5D03120FFF77AFFB8
:10065000002800D0012018BD7047704770477047D0
:1006600070470000B1F1807F01D30120704721F075
:100670007F424FF0E021521E4A61054B00221A7062
:100680008A610322042800D107220A6100207047F2
:1006900023ED00E070B5084D4FF400442146284694
:1006A000FFF763FEC0F10100C2B221462846BDE853
:1006B0007040FFF763BE0000000C014070477047B8
:1006C0007047704770477047704770477047704772
:1006D00070477047FEE7704702E008C8121F08C164
:1006E000002AFAD170477047002001E001C1121FB3
:1006F000002AFBD17047000008B5FFF7C7FEFFF7DF
:10070000B1FDFFF747FE1D4C4FF47F412046FFF738
:1007100033FE1B496FF00400FFF7A4FF01004FF008
:1007200000064FF480424FF48A054FF4005000D089
:10073000FEE79146804601224F4649462046FFF794
:100740001DFE00960098401C0090A842FAD300229B
:1007500039462046FFF712FE012247464146204611
:10076000FFF70CFE00960098401C0090A842FAD3B8
:10077000002239462046FFF701FEDCE7000C01406D
:100780004054890094070008000000200004000085
:04079000E80600086F
:04000005080000ED02
:00000001FF
