:020000040800F2
:10000000080400200101000837050008F10200087B
:10001000350500086F0100085D0C000800000000B5
:1000200000000000000000000000000007080008B9
:100030007F01000800000000F3050008090800081F
:100040005F0C0008F10500080B0800080108000813
:100050008F01000879070008810100088501000868
:1000600087010008890100088B0100087101000860
:100070007301000875010008770100087901000884
:100080007B0100087D0100086D01000817010008D0
:100090001701000817010008170100088D0100086A
:1000A00061080008B7080008B508000865080008DE
:1000B000B9080008BB080008BD080008F5020008E0
:1000C000F3020008F9020008F7020008030800081C
:1000D00005080008550C0008570C0008590C0008CA
:1000E00083010008FF0700085B0C0008DFF80CD054
:1000F00000F02AF800480047FD0F0008080400201F
:1001000005480047FEE7FEE7FEE7FEE7FEE7FEE7FD
:10011000FEE7FEE7FEE7FEE7ED00000830B50B4620
:10012000014600202022012409E021FA02F59D4227
:1001300005D303FA02F5491B04FA02F52844151EFB
:10014000A2F10102F1DC30BD064C074D06E0E0688B
:1001500040F0010394E8070098471034AC42F6D30E
:10016000FFF7C8FFE4100008041100087047FEE71D
:1001700070477047704770477047704770477047C7
:1001800070477047704770477047704770477047B7
:1001900004490A6822F010020A600A6802430A60F1
:1001A0007047000000200240034A116801F0380146
:1001B000014311607047000000200240F8B54FF481
:1001C0007C40ADF8000003248DF802401020164D4D
:1001D0008DF803006946284600F02AF82002ADF8A1
:1001E00000008DF8024018208DF80300694628466B
:1001F00000F01EF80F20ADF800000C4E8DF8024004
:1002000004258DF803506946304600F011F8A80126
:10021000ADF800008DF803508DF802406946304675
:1002200000F006F8F8BD0000000C01400008014095
:100230002DE9F041CA780025D30602F00F0201D55E
:100240008B781A430B884FF00F084FF0010C13F016
:10025000FF0F1CD0D0F800400E880CFA05F31E40AA
:100260009E4210D1AF0008FA07F624EA060602FA09
:1002700007F43443CE78282E02D0482E02D002E074
:10028000436100E003616D1C082DE5D304600B8819
:10029000FF2B1DD94468002505F108060CFA06F36A
:1002A0000E881E409E420FD1AF0008FA07F624EADE
:1002B000060602FA07F43443CE78282E00D14361B3
:1002C000CE78482E00D103616D1C082DE4D3446024
:1002D000BDE8F0810246002092680A4200D0012069
:1002E0007047416170470AB10161704741617047D1
:1002F000FEE7704770477047704700EB8110C0B24F
:1003000040F0800000F09EB870B51F4841F60F41E4
:100310001E4C0180032181701021C17001462046CE
:10032000FFF786FF4FF4E0512046FFF7DAFF184948
:100330000020401C8842FCD3002447F230550320A3
:1003400000F0B6F80020401CA842FCD3641CE4B2C4
:10035000032CF4D3022000F0ABF8002041F27071BE
:10036000401C8842FCD3282000F06CF8082000F0E4
:1003700069F8012000F066F8062000F063F8BDE897
:1003800070400C2000F05EB8040000200010014016
:10039000E093040070B50122124E950229463046C2
:1003A000FFF7A1FF08213046FFF794FF0446042120
:1003B0003046FFF78FFF44EA400402213046FFF742
:1003C00089FF44EA800401213046FFF783FF44EAB5
:1003D000C000C4B2002229463046FFF784FF204601
:1003E00070BD0000001001402DE9F041134C0F26B4
:1003F00048202680124FE070002521463846FFF73E
:1004000017FF0122D1023846FFF76DFF0022B91411
:100410003846FFF768FFFFF7BDFF45EA0010C5B299
:10042000FFF7B8FF054326801020E07021463846CC
:10043000FFF7FEFE2846BDE8F08100000400002022
:100440000010014010B5044600224FF4C051084886
:10045000FFF749FF200900F02BF804F00F0000F02F
:1004600027F800BFFFF7C0FF0006FBD410BD000057
:100470000010014070B50D4D044600224FF400619C
:100480002846FFF730FF012211032846FFF72BFF14
:10049000200900F00DF804F00F0000F009F800BF8B
:1004A000FFF7A2FF0006FBD470BD00000010014062
:1004B00070B50122124E0446950229463046FFF7D8
:1004C00012FF04F0010208213046FFF70CFF04F090
:1004D000020204213046FFF706FF04F00402022165
:1004E0003046FFF700FF04F0080201213046FFF715
:1004F000FAFE29463046BDE870400022FFF7F3BE01
:100500000010014010B5044602E0641CFFF7B2FF82
:1005100020780028F9D110BD10B5044608461146D0
:10052000FFF7EBFE02E0641CFFF7A4FF2078002831
:10053000F9D110BDFEE7704708B500214FF000600B
:1005400000F04CF84FF4C06000F03EF81B208DF82E
:10055000000000208DF8010001208DF802008DF8C8
:100560000300684600F001F808BDF0B50F22C57819
:1005700003784FF0E0210124E5B1D1F80C5D467815
:1005800005F4E065C5F5E0652D0AC5F10407EA400C
:100590008578BE40154035430B442A0183F800247A
:1005A0000078420900F01F00844001EB8200C0F88F
:1005B0000041F0BD03F01F008440580901EB8000AA
:1005C000C0F88041F0BD00000249084302490860BC
:1005D000704700000000FA050CED00E0024A1140EF
:1005E000014302480160704780FFFF1F08ED00E0F3
:1005F00070477047044A0029D16901D0014300E0E7
:100600008143D1617047000000100240044A002974
:10061000916901D0014300E081439161704700007E
:100620000010024010B500F043F84FF4803420462B
:1006300000F088F800F0D0F8012838D11020FFF73A
:10064000A7FD0220FFF7B0FD002000F071F80020A8
:1006500000F09EF8A01100F091F84FF4E011204650
:1006600000F0A6F8012000F09DF8392000F040F8D5
:100670000028FAD0022000F0A5F800BF00F050F8E2
:100680000828FBD10121FFF7C1FF01210420FFF75A
:10069000BDFF01211020FFF7B9FF01210420FFF762
:1006A000A9FF0121BDE81040C802FFF7AFBF10BD90
:1006B0000C48016841F00101016041680A4A11409B
:1006C00041600168094A11400160016821F48021FC
:1006D000016042684FF41F0122F4FE024260816013
:1006E00070470000001002400000FFF8FFFFF6FE18
:1006F0000246002053090949012B0BD0022B0BD0D5
:10070000D1F8241002F01F02012393400B4200D0C5
:10071000012070470968F5E7096AF3E70010024015
:100720000248406800F00C007047000000100240D2
:10073000034A516821F0F001014351607047000005
:10074000001002400B490A6822F480320A600A68ED
:10075000B0F5803F22F480220A6007D0B0F5802FE8
:1007600003D1086840F4A02008607047086840F48E
:100770008030F9E70010024070470000034A5168DA
:1007800021F4E06101435160704700000010024015
:1007900003494A6822F4605242EAC0004860704748
:1007A0000010024001490866704700000000424204
:1007B000034A5368084323F47C131843506070477E
:1007C00000100240034A516821F0030101435160C7
:1007D000704700000010024030B500244FF4A065BF
:1007E0003120FFF785FF641CAC4201D00028F7D010
:1007F0003120FFF77DFF002800D0012030BD704779
:1008000070477047704770477047704730B5048C29
:1008100024F001040484058B048C42EA031325F0C0
:10082000F3052B4324F002020A4342F00101038343
:10083000018430BD70B5048C24F010040484068B50
:10084000058C0C0126F4734646EA033141EA022284
:1008500025F02001214341F010010283018470BD85
:100860007047000070B5104E0221304600F0BAF813
:10087000002818D00221304600F02BF8304600F056
:10088000ADF80A4C05000BD0304600F0A9F8642101
:100890004843B0FBF5F020800548B0FBF5F001E0DF
:1008A00000202080608070BD002C014000000020EE
:1008B000405489007047704770477047704700295F
:1008C000018802D041F0800101E021F08001018027
:1008D0007047C943018270470029018802D041F066
:1008E000010101E021F0010101807047F0B58BB0FA
:1008F00000244CF24F30ADF81400364FADF81040E4
:10090000ADF81640ADF8124004A9384600F054F98D
:1009100060263220ADF800600125ADF80600ADF884
:100920000250ADF808406946384600F06FF80821DB
:10093000384600F0A7F846F2A810ADF80060ADF810
:100940000600ADF80250ADF808406946384600F0A0
:100950009FF80821384600F0CBF801213846FFF710
:10096000AEFF0720ADF810004FF6FF70ADF8140091
:10097000194EADF81640ADF8124004A9304600F00B
:100980001BF9ADF81C40ADF82240ADF82440ADF89D
:100990001E40ADF8205007A9304600F0B0F85021B5
:1009A000304600F0E2F80421304600F0ECF88021F7
:1009B000304600F0E0F801213846FFF78DFF0121B5
:1009C0003046FFF789FF01220221304600F016F879
:1009D0000BB0F0BD00080040002C0140808E704735
:1009E000008F704702460020138A92890B4202EA68
:1009F000010202D0002A00D001207047002A82891B
:100A000001D00A4300E08A438281704770B5028CAE
:100A100022F480720284028C8388848B0D8922F4F4
:100A200000722D0642EA15454A8824F07306120624
:100A30000C8845EA1242114D3443A84202D0104DB1
:100A4000A84215D122F400654A8923F440531206C6
:100A500045EA124222F480658A88120645EA12426B
:100A60008D892D0543EA1545CB891B0545EA1343BE
:100A700083808483C9888187028470BD002C0140F3
:100A800000340140828B22F008020A4382837047BF
:100A900030B5028C22F480520284048C8288838BCD
:100AA00023F4E6450B881B0645EA134324F400555E
:100AB0000C89240745EA14444D882D0744EA15455E
:100AC000094CA04202D0094CA04205D122F4804436
:100AD0008A89920544EA124282808383C988A0F8F9
:100AE0004010058430BD0000002C0140003401405E
:100AF000828B22F4006242EA0121818370472DE952
:100B0000F0410C46002549880746012601B9022517
:100B1000A288012A00D1022620882389002838468D
:100B200011D0FFF787FEE188384600F03CF82389B2
:100B3000324629463846FFF769FEE1883846BDE867
:100B4000F04100F028B8FFF761FEE188384600F078
:100B500022F82389324629463846FFF76BFEE188A2
:100B60003846BDE8F04100F01EB8028922F070025C
:100B70000A4302817047028922F0800202810289C1
:100B80000A4302817047028922F00702028102892A
:100B90000A4302817047028B22F00C020283028B0F
:100BA0000A4302837047028B22F440620283028B65
:100BB00042EA01220283704730B502881B4B1C4C6D
:100BC00098420DD0A0420BD0B0F1804F08D0194D03
:100BD000A84205D0184DA84202D0184DA84203D112
:100BE00022F070054A882A43154DA84206D0154DBB
:100BF000A84203D022F44075CA882A4302808A881A
:100C0000984282850A8802850AD0A04208D00E4AFE
:100C1000904205D00D4A904202D00D4A904201D137
:100C2000097A01860121818230BD0000002C01403B
:100C3000003401400004004000080040000C004067
:100C400000100040001400400040014000440140FA
:100C5000004801407047704770477047FEE7704793
:100C60000FB4084B10B504A902AA039800F01CF8B1
:100C7000044602A9002000F0BBF9204610BC5DF834
:100C800014FB0000F10F000802E008C8121F08C1A1
:100C9000002AFAD170477047002001E001C1121FFD
:100CA000002AFBD1704700002DE9FF4F8DB00546AB
:100CB0008846002667E125287AD100246D1CB64AB3
:100CC000A146A34601212B78203B01FA03F01042F4
:100CD00002D004436D1CF6E728782A2810D06FF064
:100CE0002F022878A0F13001092915D809EB8901D4
:100CF00002EB410144F0020400EB01096D1CF0E736
:100D000058F8049BB9F1000103DA44F40054C1F12E
:100D1000000944F002046D1C28782E2817D115F81C
:100D2000010F44F004042A280ED06FF02F02287817
:100D3000A0F1300109290AD80BEB8B0102EB41012C
:100D400000EB010B6D1CF2E758F804BB6D1C287812
:100D50006C280FD006DC4C2817D068280DD06A28E4
:100D600014D104E0742810D07A280FD10DE044F497
:100D700000140AE044F4801401E044F4401469785B
:100D8000814202D16D1C04F580146D1C28786928FD
:100D900066D007DC002875D0632828D0642807D1E6
:100DA0005EE005E06E2808D073282AD075287AD036
:100DB000DDE90F129047761CE4E0C4F302500228EC
:100DC00009D003280DD0D8F8001004280DD00E60EB
:100DD00008F10408D6E0D8F80010F217C1E9006263
:100DE000F6E7D8F800100E80F2E70E70F0E758F83A
:100DF000041B8DF8001000208DF80100EA46012048
:100E000003E058F804AB4FF0FF3061074FF00007E4
:100E100001D40AE07F1C5F450DDA8742FADB1AF83D
:100E200007100029F6D106E07F1C8742FCDB1AF888
:100E300007100029F8D1DDE90F23A9EB070081464F
:100E4000214600F0BEF83044C61904E0DDE90F1277
:100E50001AF8010B90477F1EF8D2214648468CE0D5
:100E60000A2758F8040BC4F30251032900D100B239
:100E7000042900D140B2002806DAC0F100004FF08A
:100E80002D0104E083E00EE0210504D52B218DF82F
:100E90002C10012103E0E10710D02021F7E70DF12C
:100EA000200A099113E00A2758F8040BC4F30251F1
:100EB000032900D180B2042900D1C0B20021EEE79D
:100EC0003946FFF72BF901F130020AF8012D00280D
:100ED000F6D1ADEB0A0000F120000890600702D5C2
:100EE00024F4803401E04FF0010B089A00205946A9
:100EF000934501DDA1EB0200834600EB0201099856
:100F00000144A9EB01000A90E00306D4DDE90F23B8
:100F100021460A9800F055F8064400270DF12C09E7
:100F200006E0DDE90F1219F807009047761C7F1CD8
:100F300009988742F5DBE0030CD5DDE90F23214654
:100F40000A9800F03EF8064404E0DDE90F12302074
:100F50009047761CBBF10001ABF1010BF5DC05E01D
:100F6000DDE90F121AF8010B9047761C0899481E0C
:100F700008900029F4DC0A982146DDE90F2300F0EF
:100F80000DF806446D1C287800287FF494AE11B04B
:100F90003046BDE8F08F0000092801002DE9F0413E
:100FA0000446002517461E46880405D406E0394647
:100FB0002020B04705F10105641EF8D52846BDE89C
:100FC000F0812DE9F04104460025302790461E4669
:100FD000C80300D42027880405D506E041463846DA
:100FE000B04705F10105641EF8D52846BDE8F0813B
:100FF0000A68531C0B601070704700001CB529492B
:10100000D1E90001CDE90001FFF70CFBFFF7D6F8AD
:10101000FFF792FAFFF76AFCFFF776F90120FFF776
:1010200011FA21A0FFF76EFA234D244FDFF89080CC
:10103000244EEC0401212846FFF74CF950B9B4F8CE
:101040003C084FF60571884204D8B4F83C08FA30E1
:10105000A4F83C0802212846FFF73CF940B9B4F84F
:101060003C08FA2804D3B4F83C08FA38A4F83C0841
:101070003A8815A16846FFF7F3FD01220021684672
:10108000FFF74AFAB8F8002011A16846FFF7E8FD1B
:10109000012209216846FFF73FFA0020401CB042B8
:1010A000FCD3C7E7DC100008506172616D65747293
:1010B000792050574D3A00000008014002000020FE
:1010C00000000020801A0600663D253569000000FA
:1010D0007779703D25336900000000003000000082
:1010E00000000000041100080000002008000000BB
:1010F000880C00080C110008080000200004000003
:0C110000980C0008000000000000000037
:04000005080000ED02
:00000001FF
